:020000040000fa
:080000000002040000000000f2
:020000040000fa
:0400080010040000e0
:020000040000fa
:04000c0010040000dc
:020000040000fa
:0400100010040000d8
:020000040000fa
:0400140010040000d4
:020000040000fa
:0400180010040000d0
:020000040000fa
:04001c0010040000cc
:020000040000fa
:0400200010040000c8
:020000040000fa
:0400240010040000c4
:020000040000fa
:0400280010040000c0
:020000040000fa
:04002c0010040000bc
:020000040000fa
:0400300010040000b8
:020000040000fa
:0400340002030000c3
:020000040000fa
:0400380010040000b0
:020000040000fa
:04003c0010040000ac
:020000040000fa
:0400400010040000a8
:020000040000fa
:0400440010040000a4
:020000040000fa
:04004800fa020000b8
:020000040000fa
:04004c00100400009c
:020000040000fa
:040050001004000098
:020000040000fa
:04005400cc030000d9
:020000040000fa
:04005800a2030000ff
:020000040000fa
:04005c007e0300001f
:020000040000fa
:040060001004000088
:020000040000fa
:040064001004000084
:020000040000fa
:040068001004000080
:020000040000fa
:04006c00100400007c
:020000040000fa
:040070001004000078
:020000040000fa
:040074001004000074
:020000040000fa
:040078001004000070
:020000040000fa
:04007c00100400006c
:020000040000fa
:040080001004000068
:020000040000fa
:040084001004000064
:020000040000fa
:040088001004000060
:020000040000fa
:04008c00100400005c
:020000040000fa
:040090001004000058
:020000040000fa
:040094004203000023
:020000040000fa
:040098001004000050
:020000040000fa
:04009c00100400004c
:020000040000fa
:0400a0001004000048
:020000040000fa
:0400a4001004000044
:020000040000fa
:0400a8001004000040
:020000040000fa
:0400ac00100400003c
:020000040000fa
:0400b0001004000038
:020000040000fa
:0400b4001004000034
:020000040000fa
:0400b8001004000030
:020000040000fa
:0400bc00100400002c
:020000040000fa
:0400c0001004000028
:020000040000fa
:0400c4001004000024
:020000040000fa
:0400c8001004000020
:020000040000fa
:0400cc00100400001c
:020000040000fa
:0400d0001004000018
:020000040000fa
:0400d4001004000014
:020000040000fa
:0400d8001004000010
:020000040000fa
:0400dc00100400000c
:020000040000fa
:0400e0001004000008
:020000040000fa
:0400e4001004000004
:020000040000fa
:0400e8001004000000
:020000040000fa
:0400ec0010040000fc
:020000040000fa
:0400f00010040000f8
:020000040000fa
:0400f40010040000f4
:020000040000fa
:0400f80010040000f0
:020000040000fa
:0400fc0010040000ec
:020000040000fa
:0401000010040000e7
:020000040000fa
:0401040010040000e3
:020000040000fa
:0401080010040000df
:020000040000fa
:04010c0010040000db
:020000040000fa
:0401100010040000d7
:020000040000fa
:0401140010040000d3
:020000040000fa
:0401180010040000cf
:020000040000fa
:04011c0010040000cb
:020000040000fa
:0401200010040000c7
:020000040000fa
:0401240010040000c3
:020000040000fa
:0401280010040000bf
:020000040000fa
:04012c0010040000bb
:020000040000fa
:0401300010040000b7
:020000040000fa
:0401340010040000b3
:020000040000fa
:0401380010040000af
:020000040000fa
:04013c0010040000ab
:020000040000fa
:0401400010040000a7
:020000040000fa
:0401440010040000a3
:020000040000fa
:04014800100400009f
:020000040000fa
:04014c00100400009b
:020000040000fa
:040150001004000097
:020000040000fa
:040154001004000093
:020000040000fa
:04015800100400008f
:020000040000fa
:04015c00100400008b
:020000040000fa
:040160001004000087
:020000040000fa
:040164001004000083
:020000040000fa
:04016800100400007f
:020000040000fa
:04016c00100400007b
:020000040000fa
:040170001004000077
:020000040000fa
:040174001004000073
:020000040000fa
:04017800100400006f
:020000040000fa
:04017c00100400006b
:020000040000fa
:040180001004000067
:020000040000fa
:040184001004000063
:020000040000fa
:04018800100400005f
:020000040000fa
:04018c00100400005b
:020000040000fa
:040190001004000057
:020000040000fa
:040194001004000053
:020000040000fa
:04019800100400004f
:020000040000fa
:04019c00100400004b
:020000040000fa
:0401a0001004000047
:020000040000fa
:0401a4001004000043
:020000040000fa
:0401a800100400003f
:020000040000fa
:0401ac00100400003b
:020000040000fa
:0401b0001004000037
:020000040000fa
:0401b4001004000033
:020000040000fa
:0401b800100400002f
:020000040000fa
:0401bc00100400002b
:020000040000fa
:0401c0001004000027
:020000040000fa
:0401c4001004000023
:020000040000fa
:0401c800100400001f
:020000040000fa
:0401cc00100400001b
:020000040000fa
:0401d0001004000017
:020000040000fa
:0401d4001004000013
:020000040000fa
:0401d800100400000f
:020000040000fa
:0401dc00100400000b
:020000040000fa
:0401e0001004000007
:020000040000fa
:0401e4001004000003
:020000040000fa
:0401e80010040000ff
:020000040000fa
:0401ec0010040000fb
:020000040000fa
:0401f00010040000f7
:020000040000fa
:0401f40010040000f3
:020000040000fa
:0401f80010040000ef
:020000040000fa
:0401fc0010040000eb
:020000040000fa
:0402000010040000e6
:020000040000fa
:0402040010040000e2
:020000040000fa
:0402080010040000de
:020000040000fa
:04020c0010040000da
:020000040000fa
:0402100010040000d6
:020000040000fa
:0402140010040000d2
:020000040000fa
:0402180010040000ce
:020000040000fa
:04021c0010040000ca
:020000040000fa
:0402200010040000c6
:020000040000fa
:0402240010040000c2
:020000040000fa
:0402280010040000be
:020000040000fa
:04022c0010040000ba
:020000040000fa
:0402300010040000b6
:020000040000fa
:0402340010040000b2
:020000040000fa
:0402380010040000ae
:020000040000fa
:04023c0010040000aa
:020000040000fa
:0402400010040000a6
:020000040000fa
:0402440010040000a2
:020000040000fa
:04024800100400009e
:020000040000fa
:04024c00100400009a
:020000040000fa
:040250001004000096
:020000040000fa
:040254001004000092
:020000040000fa
:04025800100400008e
:020000040000fa
:04025c00100400008a
:020000040000fa
:040260001004000086
:020000040000fa
:040264001004000082
:020000040000fa
:04026800100400007e
:020000040000fa
:04026c00100400007a
:020000040000fa
:040270001004000076
:020000040000fa
:040274001004000072
:020000040000fa
:04027800100400006e
:020000040000fa
:04027c00100400006a
:020000040000fa
:040280001004000066
:020000040000fa
:10040000ef3521000eff2c000e01880000000000d7
:10041000000020000000e000020032000001200087
:100420002002880014000700ff0007000000e00021
:1004300003003a0060b422000100200002003700ef
:100440000000200001002000810f70000100320038
:100450000f000700000020000000e0000200320052
:100460000000020000000000b429020000000000ab
:100470000040da000000fe00200020000000e00044
:1004800002003200100020009001880000000600e9
:10049000a1028800800478000000eb001f003700f4
:1004a000e284440054a0b4009905ba00e2844400f8
:1004b00054a0b4009906ba00e284440054a0b400e9
:1004c0000006eb00476fde00fd07b200ae018800ba
:1004d000636ce10003003a000ad801000000eb0061
:1004e0000e003700606ce10008003a00004deb00a0
:1004f0000a05e800020039003420ec000af0a000f0
:100500008b05e900f9ff3e00040037006168e10057
:10051000010032000086eb000b00070019c7ba008b
:100520000e04e0001905ba0003003a000a00e000da
:10053000dbff3a0000000600fe07b200ae028800b2
:100540008a047800f5ff37000cd0a300e20f4d00bd
:100550001c003b0089027800354dba000a05e8000e
:10056000020039003420ec000af0a0008b05e900fd
:100570000f003200254dba000a05e80002003900dc
:100580003420ec000af0a0008b05e90008003200de
:100590000c00e0000600320015cdba000a05e800a4
:1005a000020039003420ec000af0a0008b05e900bd
:1005b0008984e80054a0b4000b00e000e2ff3a0098
:1005c000000006009902ba00055d78008b05e9007d
:1005d000f7ff3200c82ade00055d78008b05e900d0
:1005e000f3ff32000c00e000f1ff320019ddba0029
:1005f000eeff37000000fa000108a9000080fa00b1
:10060000004006003600f800809fbe00829fbe00ba
:10061000849fbe00869fbe000000fa000068a9000b
:10062000b0120700831607005910070021738000dd
:10063000000420000080600000f0a7000000ea0035
:100640000000e9004f00de00004078000080fb0061
:10065000610060004600dd00217380000160a100a0
:1006600001007000207388000080fa004f03be0074
:100670004f02be004f01be004f00be003600f90021
:10068000004006003600f800809fbe00829fbe003a
:10069000849fbe00869fbe000000fa000368a90088
:1006a000408180005181800061004000e08048006e
:1006b0004081880051818800408180005181800004
:1006c0004206200003002000b2000700e00f5000a7
:1006d000e08f580001003a000d110700400b0700a1
:1006e0000080fa004f03be004f02be004f01be0063
:1006f0004f00be003600f90000400600801f780061
:100700000000fa0001a8a90000188000a09a880043
:1007100010188000b09a880020188000c09a8800c5
:1007200030188000d09a880040188000e09a880035
:1007300010c0b30053f0b7000080fa004f007800fb
:10074000004006003600f800809fbe00829fbe0079
:10075000849fbe00869fbe000000fa000188a900a9
:10076000f1818000e0818000808f50000200320023
:10077000cf150700010037004070ef000080fa003d
:100780004f03be004f02be004f01be004f00be002f
:100790003600f900004006003600f800809fbe00d9
:1007a000829fbe00849fbe00869fbe000000fa00ac
:1007b0000168a90010118000640060000000e000e2
:1007c000010032002242a900101180006200600086
:1007d0000000e000060032002222a90005003700d8
:1007e0003011800000407800221607000100370019
:1007f0000000000010118000610060000000e000b7
:10080000f7ff3a000080fa004f03be004f02be001f
:100810004f01be004f00be003600f9000040060048
:100820000040da000000fe00000005001400200077
:10083000b0033700f4ff2f00ae0337000001be0005
:100840003f0007000470a70003f0a1006509b10094
:10085000160032000d0035006828e1000600350062
:10086000f0ff2f00f1ff27000300e00013003b0022
:1008700001002800000005000000400081804800c1
:100880008502e900fcff3a0008003700f88f4200bb
:1008900002003c008000eb00000005008100d10058
:1008a0000080d3008502e800fcff3a000300e0006e
:1008b00002003b0060001000e0801800000006000d
:1008c0000001be001e0007000470a70003f0a10095
:1008d00003f8a30013003a006509b10010003200cc
:1008e000090035006928e1000200350001002800f8
:1008f0000000050000004000818048008502e900fa
:10090000fcff3a0000000600f88f420005003500a9
:100910008100d1000080d3008502e800fcff3a008e
:10092000000006008000eb00000005004f89de009b
:10093000820178008a0337006011b80098033700fd
:10094000c70ade00f107b200f50fb200080032005e
:10095000e1cf4200020032000170a0002400050037
:10096000810f7000010032000408050044000500fa
:10097000810f700002003a00140005008502e900b2
:100980000000400081c04800fcff3b000170a00057
:1009900024000500df0307000400be00000006007d
:1009a00007f82700078361000638e10004003a00d9
:1009b000f7072000878361008703710001003a0078
:1009c00003f0a200889fbe008a9fbe008c9fbe00dd
:1009d000470ade000480a100c71ade000580a100de
:1009e000070028000785600087856100f70f200059
:1009f0000720e1009e0032000728e1009c00320041
:100a0000010678000400e000b4003200f70720007f
:100a1000878060000170a0000500e000c000320087
:100a2000f7072000878161000370a00005065200cf
:100a30000f003a000b50e1000b0032000308e10008
:100a400002003a000200e1007e0032000204500081
:100a500083845800040031000001fd008101fd0085
:100a60008402fd008a05fd006044b80021003700c3
:100a70000520e10005003d000001fd008101fd00b1
:100a80008402fd008a05fd00050652007a60e1003f
:100a9000050035000170a1004722dd008480700050
:100aa0008a807000630037006044b800ef0266007f
:100ab00007ff2f00070666000500e000060034006f
:100ac000f08312008714dd000511de00071bdd0036
:100ad000060171008519de007060e1000500350037
:100ae0000904780082047800030178008001eb009b
:100af000700656000b50e10003003a00020040006f
:100b0000838048000400370060041400e0841c0067
:100b100002005800838058000188a30006003200bc
:100b20008100d1000080d3008984d3000884d300e1
:100b30000402e800270037000178a30025003a00ee
:100b40000100e000030032008186cf006986560074
:100b50000a0037008c0020000000e00004003a008a
:100b600009007800880478000004eb00700252004d
:100b70008086cf000d0646000c06e9007060e1009b
:100b800006003500800078000900780088047800ad
:100b90000004eb0070065600700252000c00e000ea
:100ba0000c0034008c08dd00f00316000703de00a3
:100bb000868070000c00dd00074bde000600700030
:100bc0008c4cdd000743de00868474000c44dd009d
:100bd0000c0252006120e10020003500610160003c
:100be0000700280087816400f7ff270087836400df
:100bf000070374000300e000060032008203730064
:100c0000040032000000e800e08048000188a300f2
:100c10000e003a00f70f20000720e1004a003d00d7
:100c20000170a1004722dd00810072008a807000ff
:100c30000000be004f06be004f05be004f04be00c0
:100c4000000006006000b800faff37008100d10004
:100c50000080d3000402e800eeff370004017800b2
:100c600089017400a10107008a807000f1ff37003c
:100c7000f7010700070278000001fd008101fd0077
:100c8000f301070087027800850372000778a3004c
:100c9000040032000001fd008101fd000602070092
:100ca000e4ff3700850362000768a30008003200f4
:100cb0000b50e10003003200f0ff2f00f1ff27008e
:100cc000dcff37000001fd008101fd00d9ff370086
:100cd0000468a300d7ff3200faff3700f8ff2700af
:100ce000888360000b003a000000e00009003a0031
:100cf0008303640082837300020032000200be009e
:100d0000ccff37000b50e100ceff3a000200be00de
:100d1000c8ff370014002000810064003eff370048
:100d2000f8ff27008883610004003a000200e00019
:100d300002003a008c007800beff3700150020004a
:100d40008301640039ff370001f82700000020000c
:100d500081007500b7ff3700889fbe008a9fbe00e4
:100d60008c9fbe001b0020000202be0005866800aa
:100d700006002800060666004709de00f20fb200f2
:100d8000820032000243e80080003200c729de0002
:100d9000f30fb2007d0032000343e8007b00320015
:100da000f107b2000170a000f507b2000570a000c5
:100db000c708dd004903de00868070004700dd00c3
:100dc000c72add004923de00868272004722dd004b
:100dd00003055100040350008583580003003100cf
:100de00000004000818048000a05e9008c1f78005f
:100df0008a9fbe0004005000858058000402420013
:100e000085824a0000004000818048000005eb0018
:100e10000004be006033b8000406be000d48e100c7
:100e200056003100110009004dccd8000c01b8006b
:100e30000d02b8008481410060824a008283530021
:100e400003045c0084845c0060055d000a00e0002f
:100e500025003a00800578000d40e100490031008e
:100e60008800780007007800110009004d88d8003c
:100e70000c01b8000d02b8008481410060824a0074
:100e80006003110083835b0004045c00e0845c0069
:100e90000900e00021003a004f01be000300e0001d
:100ea0002b003200e3016000070673008c817100a3
:100eb00001003200640070004200de004e5edd0082
:100ec0000c007000c258de0001e0a00083010700a2
:100ed000cf017800818071004f06be004f05be0033
:100ee0004f04be00000006008c8343000d044c003c
:100ef000e0844c0060054d000000e9000a00e000bd
:100f0000d4ff32008c8343000d044c00e0844c007d
:100f100060054d000000e900ceff37000c034300e0
:100f20008d834b0060044c00e0844c000000e9001d
:100f30000900e000d8ff32000c0343008d834b0012
:100f400060044c00e0844c000000e900d2ff370050
:100f50004200de004e5edd000c007000c258de0074
:100f600001e0a000cf0178000300e000daff3200ca
:100f700060001000e0801800d7ff3700f0ff2f005e
:100f8000aaff3700f0ff2f00b9ff37000404be00ae
:100f90002f010700870678000004fd008104fd0092
:100fa0002b010700078366000678a30003003200c8
:100fb0000960a7000800be002c0037000d78a300d0
:100fc000020032000800be00280037000778a300a6
:100fd00026003a0001f0a10009f0a1000668a30074
:100fe00003003200f1ff2700f0ff2f00baff3700a7
:100ff0000d68a300030032000800be008c80700062
:10100000b5ff37000768a30007003a000648a300b1
:1010100003003200f1ff2700f0ff2f00aeff370082
:101020000d48a300030032006000b8008c807000ff
:10103000a9ff37000748a3000400320001f8270089
:10104000000020008c807000a3ff370076010700ad
:101050000004fd008104fd00020578007201070014
:101060000802be008a01780059ff37000160a00025
:1010700012022000a282880097ff37000100e000e2
:10108000120032000500e00010003200889fbe0010
:101090008a9fbe008c9fbe000006eb0001f8a300f3
:1010a0000300320060001000e08018000cf0a00087
:1010b00005f8a3000300320060021200e0821a006b
:1010c0000cf0a2008005eb0041ff37006000b80083
:1010d000020005000383680007002800070363007f
:1010e000470ade000480a100c71ade000580a100c7
:1010f000f70f20000720e100420032000728e1003e
:1011000040003200889fbe008a9fbe008c1f78007e
:10111000f107b200f307b2000400e00064003200ff
:101120000170a0000500e000680032000370a0001c
:1011300085054200eb07b1000204b8000302b800c5
:101140008484440060854a00020ab8008484440014
:101150000a854a00030ab80004054500040033006c
:101160000804d0008984d2000a85d2008b05e900ea
:101170006158e1003d0035000210200009016100c6
:101180000308200089816100f7072000878364003d
:1011900008867300c84cde00c853dd0087847400e5
:1011a0004855de000300e0000600320082037600ae
:1011b000040032008904e80060054d000a88a3009d
:1011c0000c003a00f70f20000758e10044003d00f2
:1011d0000a70a100c75ddd000a8575008a007300f2
:1011e000090078004f0678004f05be004f04be008e
:1011f000000006000a05d1008984d3008b05e800b1
:10120000f0ff3700881f7800060478009000070080
:10121000070278000001fd008101fd008c0007003d
:1012200087027800850372000778a300050032006a
:101230000001fd008101fd009f0007004f047800c0
:1012400000000600850372000748a3000300320077
:10125000f0ff2f00f1ff2700f8ff3700000020000b
:1012600001f8270088807000f4ff370088017800bb
:101270004848dd00808171004848de00c850dd002c
:1012800001007000c850de00060478000b017800f1
:101290001600070088807000d2ff37000500e000cc
:1012a00005003200170020003a0007009dff3700bc
:1012b00081037000f9ff3a00860078004f0678003d
:1012c0004f05be004f04be000000050083037100ff
:1012d000f9ff3200270020002e00070094ff37009e
:1012e00001f8270086807000f4ff37000100e0005d
:1012f00026003200610111007810e10023003c005b
:101300006022b8007010e10004003500800278000f
:10131000010078008000eb00700151000200e00045
:101320000900340070031100062add00822ade0065
:101330008603dd00878272000200de00860bdd007e
:10134000070070008208de0084817100f4ff27002e
:10135000048262008481710004002800848262009b
:101360006102600005f0a600000006000482710022
:10137000070032000000e800e0804800000006009e
:101380000002be006000b800efff37006000b80048
:1013900000000600889fbe000004eb006138e100f9
:1013a00016003a000100e00008003a00c800de0024
:1013b0004800dd00880020000100e00003003a0042
:1013c000c800de004800dd00680444008184cf00ce
:1013d000e9845400060034008908dd00f08314001d
:1013e0008703de00878070000900dd0009044400e7
:1013f000610214004f04be00000006000300e0007c
:1014000008003a00c811de004811dd008800200005
:101410000300e00003003a00c811de004811dd00bf
:10142000680444008384cf00e9845400060034003b
:101430008919dd00f08314008713de0087817100b5
:101440000911dd0009044400e1021400e9ff37003e
:101450002700200001f0a70017002000470bde0046
:10146000f60fb200040032000643e8000a00320022
:101470004702b3000000060001037800f607b2003f
:101480000603700002003a000703b30000000600e4
:101490008702b3000000060001037800f607b200df
:1014a00006037000020032000770a0000000060072
:1014b0000760a000000006000478a30004003200ca
:1014c0000578a300030032000168a30001003a0080
:1014d0000200be000160a000000006008101700053
:1014e000270032008002eb0001f8a3000300320065
:1014f00060001000e080180015002000f4072000b4
:101500000202420020003400f7032000870360003d
:1015100006042000000363000208200000016100af
:101520004700de00c909dd0000807100c708de0049
:101530000600e00008003200870371000600320058
:101540001000b0000180b0000188a300020032004a
:10155000c108de000402e800f107b200f30f20002a
:101560000320e10003003d004722dd0081007200fe
:101570002900370001f827000000eb0026003700a3
:101580006000b80000000600680212007f20e10041
:10159000020034006000b8001f0037006011b8007e
:1015a0007020e1000400350080017800010078001f
:1015b0008000eb00700252000400e00009003400db
:1015c000f00312000719dd008419de000703dd00b7
:1015d000868171000400de00070bdd00060070004c
:1015e0008408de00f7ff2700838363008703710010
:1015f0000600280003036300070032000700e00034
:1016000003003a00610160000281730002003200b1
:101610001000b0000180b0000500a6000000060028
:1016200001f0a000000006004f0ade004709de00be
:10163000f107b200f20fb2000b003200f207b10066
:101640000170a000c708dd00c901de0083807000c2
:101650004700dd000400a600000006006000100046
:10166000e080180000000600810f700001003a00c1
:10167000000006008182cf000500e00010003e005f
:101680008082cf00ee8242007028e1000400390021
:1016900007003e00800078000000eb000e003700dd
:1016a000708312008600de000500dd000a003700ae
:1016b000708352008600dd000000eb00060037005a
:1016c000e28252008508dd00708312000603de000e
:1016d000868070000500dd007507b0000501ea0096
:1016e0000400a6000000060060001000e080180062
:1016f00000000600889fbe008a9fbe00841f7800fd
:101700007c0007004f00780011003300f0ff2f002d
:10171000838f6c0006003b00040565000a00a700eb
:101720000800370009f0a60010002000080037006c
:10173000820f5400838f5c000300390010002000ea
:1017400001003e000000200009f0a7000000ea00b0
:101750004f05be004f04be000000e0000000060080
:10176000881f7800030478000300e00007003d00b4
:1017700060001000e080180060011900e08119008d
:1017800002003b0001f02d000300370004000700b9
:1017900008f0a70001f0a0004f0478000000060048
:1017a000889fbe008a9fbe00008270000402710004
:1017b00004827100260032000004be000200be0058
:1017c0006011b8006b092000950220000182cf0053
:1017d0000a0039000541b1000082cf00070039003e
:1017e0000541b1000982cf00040039000541b10074
:1017f0000882cf00010039000541b10005425200c6
:10180000120032000a003b00828171006101640015
:101810008100d1000080d3008984d3000884d300e4
:101820008b05e8000442e800f7ff3a0007003700a4
:101830000804440089844c0000004800818048006e
:101840008b05e9000442e900f9ff3a0003000700b4
:101850004f05be004f04be000000060081002000be
:10186000618055000b003d000b00200061fe2f0041
:101870000100e1001d0034008281710061016400fb
:101880008904d1000884d3000000e800faff3a0080
:10189000710020006100640003007000020060001d
:1018a0000900320061044400e0844c000988a5006e
:1018b000050032008b05e8006808e10002003a00ec
:1018c0008904d1000884d300f20f20000258e100ff
:1018d00005003d00c75ddd00f907b2008980750095
:1018e00008007800000006000bf827008b00780045
:1018f000000005000004be0011fc07000003be004c
:101900000405be000200be000dfc0700844f7500f8
:10191000000006006022b800060220000000d0008f
:101920008180d2000482d2008582d2000000a00013
:101930000202520083825a00030031000202420078
:1019400083824a000000a1000603e900f3ff3a0089
:10195000000006000800fa000002be0085017800c1
:1019600003f0a10000017800a6fd200097f42300f9
:10197000860f5100878f590008003e00f4ff2f00aa
:10198000f5972300840f5100858f590055003e00c4
:101990000000200001f82300600037004f0ade003d
:1019a00005002000163d2500b7072400860f5100d2
:1019b000878f590019003e0036be2c0067012400b5
:1019c000860f5100878f59000a0036000400e0009e
:1019d00004003200b2fd200093042400f9fb07004c
:1019e00048003700b2fd200093042400ecfb070000
:1019f000440037000400e00004003200b2fd200083
:101a000093fc2300effb0700430037000001be00fa
:101a1000b0fd200091fc230019003700561d230063
:101a2000270e2400860f5100878f590016003e00b4
:101a3000f6dd2e00f70a2400860f5100878f59002b
:101a40000a0036000400e00004003200b2fd20006d
:101a5000930c2400dbfb070022003700b2fd2000be
:101a6000930c2400cefb07001e0037000400e000aa
:101a70000100320001f0a20042be2c0063092400e4
:101a8000c7fb070024003700f4ff2f00f5f72700fd
:101a9000840f5100858f5900030036000001be00fd
:101aa000bffb07001d003700688157006501070074
:101ab0006011b80063016000e10f5100e08f590030
:101ac0000a003200e20f5100e08f59000b00320093
:101ad000e00f5100e08f59000d003a004fb8970019
:101ae000dfb89700290107000c0037004fb89700b6
:101af000dfb8970001f0a200070037004fb8970049
:101b0000dfb897002101070001f0a20003003700b1
:101b10004fb89700dfb89700a60107000080fa00d1
:101b200000000600000006000400fa00889fbe00c6
:101b30008a9fbe008c9fbe000004be000205be004e
:101b40000206410083864900e00f5600e08f5e00e8
:101b5000140032000200be0082bf9f0093bf9f00ae
:101b6000f0ff07008102780005f0a1000002780074
:101b70000000200001f827000fb997009fb99700d7
:101b8000800f5200818f5a0006003e000802be00fe
:101b9000474bde00070020000680fb00e14f4300ba
:101ba00005003a000800be004afd07000001be0023
:101bb00069fc0700090037000801440089814c00d6
:101bc0008c0f51008d8f590006003e0074003a00c2
:101bd0006011b8000800be003efd07000004be0012
:101be0006f0037000000e00013003a004949dd00b3
:101bf000c741de00830171004941dd000300370069
:101c00000000e9000201410083814900e00f51001a
:101c1000e08f5900faff3d00e10010000401be0012
:101c20008100e90003003300020141008381490083
:101c3000fbff37000400370085017800f307b2008e
:101c4000080178000370a000475bde000700200059
:101c500086007800f10fb20012003a00495bdd0007
:101c6000c753de00870373004953dd0003003700cc
:101c70008100e9000603430087834b00e00f530017
:101c8000e08f5b00faff3d00618310000603e9006e
:101c9000030033000a0545008b854d00fbff37002c
:101ca000100037008b037800f707b2000a037800b2
:101cb0000605be000b70a0000a003700e00f5300bd
:101cc000e08f5b0004003500e00f5300e08f5b0005
:101cd000bfff32000601be000201410083814900be
:101ce0000000e9000a0351008b835900810f500066
:101cf000f2ff3c00e00f5300e08f5b0003003d006b
:101d0000090037000601be0007003700e00f53004e
:101d1000e08f5b00fbff3a00adff3700020141009e
:101d2000838149000000e900471bde000700200016
:101d3000e00f5300e08f5b00f8ff32000000e0008e
:101d40000a0034000600200007f82f0002014300bb
:101d500083814b00cf80de00c700dd000000200043
:101d600002017000838170000600370061001000de
:101d70000000e900030033008301d1000281d30099
:101d8000fbff370000002000010028008583600071
:101d90000003780006017100878171000204be0013
:101da0000800be004f06be004f05be004f04be0037
:101db0000080fa00000006000800fa000002be00e1
:101dc0008501780003f0a10000017800a6fd200045
:101dd00097f42300860f5100878f590006003e00bc
:101de000f4ff2f00f5972300840f5100858f5900d1
:101df000640036005d0037004f0ade000500200059
:101e0000163d2500b7072400860f5100878f590023
:101e100019003e0036be2c0067012400860f5100d9
:101e2000878f59000a003e000400e00004003200e1
:101e3000b2fd200093fc2300e2fa07004f003700b8
:101e4000b2fd200093fc2300d5fa070042003700c2
:101e50000400e00004003200b2fd200093042400de
:101e6000d8fa070040003700b2fd20009304240098
:101e7000cbfa07003c003700561d2300270e240034
:101e8000860f5100878f590019003e00f6dd2e00a5
:101e9000f70a2400860f5100878f59000a003e0080
:101ea0000400e0000400320042be2c00630924005c
:101eb000c4fa07002800370042be2c006309240042
:101ec000b7fa07002d0037000400e00004003200dc
:101ed000b2fd2000930c2400bafa0700230037005b
:101ee000b2fd2000930c2400adfa07001f0037005c
:101ef000f4ff2f00f5f72700840f5100858f59005c
:101f0000030036000001be00a5fa07001d003700df
:101f1000688157004b0007006011b8006301600042
:101f2000e10f5100e08f590009003200e20f51002b
:101f3000e08f59000a003200e00f5100e08f590095
:101f40000c003a004fb89700dfb897000700370041
:101f50004fb89700dfb897000c0007000900370062
:101f60004fb89700dfb8970001f0a200910007007a
:101f7000040037004fb89700dfb897000300070050
:101f800001f0a2000080fa0000000600889fbe0059
:101f90008a9fbe008c9fbe000001be004dfc070062
:101fa0000004be000001be004afc07000005be00a0
:101fb0000200200003f02b000800be0045fc0700d3
:101fc0000200200003f823007efa07000006be008e
:101fd000f2a92a00a3d223000a00be003dfc07009c
:101fe0000001be000c00be0076fa07000006be002d
:101ff0000801be000a00be0036fc07000005be0056
:1020000072a12900c37c23000800be0031fc070038
:10201000f243200063ab230061fa07000001be0019
:102020000a00be002bfc07000001be000c00be0031
:1020300064fa07004f06be004f05be004f04be0005
:1020400000000600ea874700889fbe008a9fbe0006
:102050008c9fbe008e1f78000006be000204780030
:102060000005be008b01780003f0a100000178009c
:10207000a0fd200091dc2400800f5100818f5900c9
:102080001e003e0032982f0023f223000c00be00f9
:1020900010fc07000200200003b4240049fa0700e6
:1020a0000200200003b424003dfa07000005be0032
:1020b000e2f9070080047800a2fd200093fc2300d1
:1020c0000a00be0003fc07000001be000c00be00b9
:1020d00033fa07000006be00325a28008328230086
:1020e0000a00be00fbfb07000001be000c00be00a2
:1020f0002bfa0700008cbe0027003700f0ff2f00ee
:10210000f1f72700800f5100818f5900060036003b
:102110000c01be000c00be0021fa0700008cbe00be
:102120008004eb001c0037004718de00010020008f
:102130006009b1000180b100c702dd000400200089
:10214000040151008581590076875700029fbe0027
:102150000002eb0013002000000178008e007800e0
:10216000768057004300070080047800e00f560097
:10217000e08f5e0006003d001e0078009e0090008b
:1021800001f0a200008cbe008904ea0002003700c2
:102190003e1c78002e147800090078004f07780064
:1021a0004f06be004f05be004f04be00af00b10099
:1021b00000000600889fbe008a9fbe008c9fbe0064
:1021c0000005be000001be00c2fb07000004be0007
:1021d0000a01be00bffb07000006be0042882800bf
:1021e00083c023000800be00bafb0700b2aa2a0081
:1021f000a3e22300eaf907000001be000c00be00c4
:10220000b4fb07000001be000a00be00edf90700a4
:102210000005be000801be000800be00adfb0700bf
:102220000001be000c00be00aafb07000006be00b5
:10223000c2c32600636323000800be00a5fb07009d
:10224000f27c200003952300d5f907000001be00b1
:102250000c00be009ffb07000001be000a00be008c
:10226000d8f907004f06be004f05be004f04be0060
:1022700000000600af17b000889fbe008a9fbe0016
:102280008c9fbe008e1f7800b0a79f0081af9f007b
:102290000204780003057800f4a79f0004004200c0
:1022a0006105210000804000100078006101b90044
:1022b000b2af9f00c3af9f000a00e9006102b900fe
:1022c00094af9f00a5af9f006300540082012000df
:1022d000110009000200d8006103b900d6a79f00d1
:1022e000e7a79f00e00f5300e08f5b0003003d0075
:1022f0006000b800d0a79f00e1a79f005fa19700f2
:10230000efa197000280ea008380ea0082012000aa
:10231000030020002c040700cfc1de0000044400ad
:10232000818449005fa29700efa297001fab97003e
:10233000afab97000606520087865a003fa8970069
:10234000cfa897000002430081824b006eec2f0063
:102350000f074700c265dd00e005210080854500cc
:102360006011b8000803be000a04be000205be00ea
:10237000150037006000b800e00f5600e08f5e00e7
:102380000b0035001900780099009000d4b79f0029
:10239000e5b79f00f6b79f0087bf9f0063f907006e
:1023a0008fbb97007fb39700efb297005fb29700a3
:1023b00000afbe0061054500e0854d0061064600a6
:1023c000e0864e00e4844400840f5500858f5d0054
:1023d000e8ff34000805780064f62f000f02420081
:1023e0006011b800b2b79f00c3b79f0084067800a1
:1023f000210037003c007800bc007800e4855500df
:102400001b0178009b019000d4b79f00e5b79f00a7
:10241000f6b79f0087bf9f002efb07000001be009c
:102420000800be0067f907000004be005fb2970015
:10243000efb2970061024200e0824a008fbb970032
:102440007fb397001fa89700afa89700800f520096
:10245000818f5a00e7ff340088aebe003fb197007d
:10246000cfb1970061014100e0814900b2b79f0000
:10247000c3b79f000a05e8003fb29700cfb29700ac
:102480003fa89700cfa89700800f5200818f5a0075
:1024900008003c003fa69700c255dd00a1ec2f00cc
:1024a0008f8040008b8540006044b8006022b800f7
:1024b000e4ff37003fa99700cfa99700b2b79f006c
:1024c000c3b79f0096b79f00a7b79f00bfb2970002
:1024d0004228dd00a6e72f000f0343000000430061
:1024e00000bc900090bc90006de72f008f864600e6
:1024f0003fb09700cfb0970061005000e0805800d7
:10250000f0af9f0081b79f00c205dd00a1f62f004c
:102510008f8040008b8540000d0578003fb3970009
:10252000cfb397000d0778001b0037000200200092
:10253000033823000800be00f6b79f0087bf9f0046
:10254000e4fa0700bdf80700f8f807000006be002f
:102550000200200003b82400defa07000001be00dc
:102560000800be000ef90700b4f8070000adbe0079
:102570009b0090001b007800e48555000c01be0014
:1025800010f907000004be007fb397008fbb9700cf
:1025900061035300e0835b00e00f5300e08f5b00ba
:1025a000e2ff3c008e0678001fb697000c01780011
:1025b0000800be005a0307000004be00020020000d
:1025c00003e02300c3fa0700f60207000200200020
:1025d00003102400bffa07000001be000800be007f
:1025e000eff807000005be0094f807000004be00e5
:1025f000cef807000001be000a00be00e8f80700a0
:102600000005be001fb19700afb19700e00f510069
:10261000e08f590023003400ffa997004218dd0025
:10262000a4e72f000f0242000000420010027800d1
:1026300090029000f80016000401be00010378002b
:102640000603e900030033008381d1000281d30037
:10265000fbff370008044100898449008100e9003c
:10266000030033000201410083814900fbff370072
:102670000201520083815a000288be0077001600d2
:102680000202be000000e900030033008582d10091
:102690000482d300fbff3700d4af9f00e5af9f005b
:1026a0001e0037001fb39700afb39700e00f530031
:1026b000e08f5b000c003a00ffab97004238dd0072
:1026c000a1e72f008f804000008040009000900024
:1026d000100078004789de00d2af9f00cf89de006e
:1026e000e3af9f000d0037000200200003f023003d
:1026f00050f807002400200005002000d4af9f0000
:10270000e5af9f000000e00009003d006033b80025
:10271000d6af9f00e7af9f00660037005fa8970025
:10272000efa89700e00f5000e08f580061003400e0
:1027300061044400e0844c006000b8006022b800ee
:1027400014003700e48646001d0178009d019000ca
:10275000e00f5200e08f5a0006003a00e00f5100ef
:10276000e08f59000900320004002000051020000d
:1027700002003700f4ff2f00f50f2000821e5200e8
:1027800083965a00140020000500200061004000dc
:10279000e08048003fb19700cfb19700820f500012
:1027a000838f5800e7ff35001fb39700afb3970042
:1027b000e00f5300e08f5b0025003400e10f530071
:1027c000e08f5b0004003200e20f5300e08f5b00fb
:1027d0001f003a000f003700ffab97004238dd00c2
:1027e000a1e72f008f80400000804000100178009a
:1027f0009001900003037800f607b200a6a79f009f
:102800008203780097a79f001fa19700afa19700b0
:102810000e003700ffa997004218dd00a6e72f0041
:102820000f03430000004300100178009001900066
:1028300083037800f703b20087a79f008200780027
:10284000f19f9f007f9997008fa197000288be009b
:102850005fab9700efab9700e20f5300e08f5b0098
:1028600014003a000a01be000000200001f8230015
:10287000d4b79f00e5b79f0049f807000005be00e8
:102880005fb29700efb29700e00f5200e08f5a005e
:10289000080032000c0178000000200001f823003d
:1028a0009f0207000001be000a00be003cf80700be
:1028b0000005be006011b8000a00be00dbf707008b
:1028c0000000e0008a003a003fb09700cfb09700c8
:1028d000ffab9700423add00a2e72f000f01410055
:1028e000040241006011b800050037009403900015
:1028f00014037800640252000601710087817100a0
:1029000061005000e08058003fab9700cfab9700cc
:10291000860f5000878f5800f4ff3d00e00f5100f4
:10292000e08f590080003a0061005300e0805b00b6
:102930004200dd00a7e72f008f83430000804300a3
:102940001200200003002000f2af9f0083b79f0019
:102950001200200003002000020037006101410046
:10296000e08149009002900010027800640050005d
:10297000e00f5200e08f5a00f8ff3200f2af9f00e4
:1029800083b79f003fb39700cfb397006102430026
:10299000e0824b004226dd00a7f62f008f83430024
:1029a0000c8643005fa19700efa1970061004100f2
:1029b000e08049003fb39700cfb397000000430089
:1029c00081804b00c204dd00e005210080844400ca
:1029d0001fa99700afa9970061004100e08049005e
:1029e0000000430081804b004201dd00a3ec2f007a
:1029f0008f81410082814100c3a79f000004e8004d
:102a000009077800880678000404be002c0037000f
:102a10003e007800be007800c4f707004fa2970080
:102a2000009abe00c4a79f003fa29700c26add00c3
:102a3000a6ec2f000f034300850243006033b8006b
:102a40006055b800d89f9f00e99f9f000404be0016
:102a50001000370038007800b8007800e484540093
:102a60001901780099019000f6b79f0087bf9f0079
:102a700098f907000001be000a00be00d1f7070068
:102a80000005be007fb397008fbb97006103430032
:102a9000e0834b001fa99700afa99700820f530056
:102aa000838f5b00ebff34005f9c9700ef9c9700e7
:102ab0000a9ebe0061044400e0844c008d06e800dc
:102ac0007faa97008fb297003fb39700cfb39700cc
:102ad0000400430085804b00800f5400818f5c0010
:102ae000cbff3400b0b79f00c1b79f0077fe37001f
:102af00098af9f00a9af9f001fb49700afb4970095
:102b00000c01ea000a00be00050207000005be0035
:102b10000200200003b8240046f707000000e00090
:102b200022003d004500370098af9f00a9af9f00ed
:102b30001fb49700afb497003fb09700cfb0970095
:102b400061005000e0805800b0b79f00c1b79f00ff
:102b500078045400e0845c00bfb097004208dd00b8
:102b6000a2e72f000f014100000041003fb1970094
:102b7000cfb197000400370061015100e081590096
:102b800078045400e0845c00900290001002780009
:102b900064005000e00f5200e08f5a00f6ff320050
:102ba000b2b79f00c3b79f002c003700020020007f
:102bb000033823000a00be0046f907001ff707008c
:102bc0005af707000006be00bfb29700422fdd0093
:102bd000a6e72f000f0343000e074300020020006a
:102be00003b824003bf907000001be000a00be0044
:102bf0006bf7070011f70700008fbe003fb097008a
:102c0000cfb0970061004000e0804800b0b79f005f
:102c1000c1b79f0078044400e0844c004205dd0009
:102c2000a1e72f008f8040000a8540000c00be0005
:102c300002f70700008dbe00080037003fb1970083
:102c40004216dd00a3e72f008f8141000c86410072
:102c50000a00be00f9f60700008ebe0008017800e9
:102c60000000200001f82300ad0107000004be00b1
:102c70003fb29700f4af9f008402e80095b79f0031
:102c8000c22ddd00a6e72f000f0343000b05430014
:102c9000a7f62f008f8343008b8543003fb6970034
:102ca000cfb697000f003700640555001a00780072
:102cb0009a0090001df707000001be000800be004a
:102cc00004f9070080a5be0002002000033823009d
:102cd0000800be00fff807000004be0061065600b1
:102ce000e0865e00e00f5600e08f5e00eeff3d00e4
:102cf0006df12f008f8646003fb59700cfb5970046
:102d000020003700640646001c0178009c019000fa
:102d1000640747001e0078009e009000d4b79f0013
:102d2000e5b79f00ebf807000001be000800be00f9
:102d300024f707000004be0061054500e0854d0052
:102d4000efb297005fb297003fa89700cfa8970017
:102d5000800f5500818f5d0007003c003fb1970058
:102d6000cfb197000400510085805900800f5500b5
:102d7000818f5d00e3ff340088aebe006105520024
:102d8000e0855a00e00f5500e08f5d000b00350034
:102d90002e1621000a06e9004266dd00a3f62f0088
:102da0008f8141000c8641006044b8006000b8008b
:102db0000a02be000005be00e3ff37007fa29700b5
:102dc000e20f520005003c00e10f520010003d00f0
:102dd0000400e00017003200ea003700ffa297006d
:102de000e38f5200e7003a003fb397004232dd0024
:102df000a7f12f008f83430004824300040778006b
:102e00003fb39700cfb39700b4af9f007a0037006d
:102e10001fb097004205dd00a1f12f008f80400018
:102e20000a8540003fb49700cfb497006000b80017
:102e3000210037001fb197004214dd00a3f12f00dd
:102e40008f814100088441003fb59700cfb59700be
:102e50006000b800060037006404540018017800d0
:102e600098019000d7f6070061055500e0855d00e8
:102e7000e00f5500e08f5d00f7ff3d005faa97006f
:102e8000efaa9700e00f5200e08f5a0001003200d5
:102e900001f0a2008faa9700808abe00b900370017
:102ea000640555001a0178009a019000c5f60700e4
:102eb00061045400e0845c00e00f5400e08f5c008b
:102ec000f7ff3d000001be005fab9700efab97003e
:102ed000e00f5300e08f5b000100320001f0a20020
:102ee0008fab9700808bbe005f089700ef089700bc
:102ef000abf60700aaf12f000f05450018002000cf
:102f00000900200006003700640545001a0178001a
:102f10009a019000abf6070061044400e0844c0085
:102f20003fb19700cfb19700820f5400838f5c00b0
:102f3000f5ff34008fa99700648141005faa9700d4
:102f4000efaa9700e00f5200e08f5a000100320014
:102f500001f0a2000089be008a003700c0ff2f00e8
:102f6000ffaa970080a8b900000047003fb2970071
:102f7000cfb2970061015200e0815a004211dd009a
:102f800082024000e4824200150678009506900017
:102f90000e02780064024200140578009405900047
:102fa0000a01be000c00be00d4b79f00e5b79f0029
:102fb000f6b79f0087bf9f0082f607000004be009f
:102fc0000001be000c00be0075f607000001be0047
:102fd0000a00be007bf607005fb29700008abe00c1
:102fe000efb29700888abe007fb397008fbb97002f
:102ff00061035300e0835b0064075700e00f530058
:10300000e08f5b00d5ff3c003faa97003fb39700dd
:10301000cfb397000404780027003700c0ff2f00cb
:10302000ffaa970080a8b900000044003fb29700b3
:10303000cfb2970061015200e0815a00c214dd0056
:1030400089044000e4844400190278009902900049
:1030500008077800640747001e0678009e06900067
:103060000c01be000400be00d4b79f00e5b79f006e
:10307000f6b79f0087bf9f0052f607000005be000d
:103080000001be005fb29700efb297000400be00df
:1030900043f607000001be000c00be0049f6070021
:1030a000008fbe008a8cbe007fb397008fbb970055
:1030b00061035300e0835b0064045400e10f53009c
:1030c000e08f5b00d5ff3c009fb29700422cdd00f3
:1030d000a6f12f000f034300080443003fb59700fb
:1030e000cfb597006000b8000600370064045400b4
:1030f000180178009801900032f60700610555002c
:10310000e0855d00e10f5500e08f5d00f7ff3c00ba
:103110005fa99700efa99700e00f5100e08f5900d9
:103120000b003a000fa997005f0a9700ef0a97007b
:103130000499be007f0b97008f1397000689be008d
:103140008fab9700c0039800d10398000d003700a3
:103150005f0a9700ef0a970005f0a2000fa99700f9
:103160000499be007f0a97008f12970005f0a20015
:103170000489be0001f0a2000fa997004001980049
:10318000510198009fa99700678061004f07780060
:103190004f06be004f05be004f04be00af17b10082
:1031a000000006000c00fa00889fbe008a9fbe0047
:1031b0008c1f78000004be006000b8006011b800e9
:1031c000f0b79f0081bf9f0092bf9f00a3bf9f00e9
:1031d000f8b79f0089bf9f007fb297008fba970012
:1031e0001fbb9700afbb9700443ade00f07f200082
:1031f0000006620020432000800f560042003c0081
:103200006011b8000800be0088f507000000e0006b
:103210003d0032007fb097008fb897001fb997002c
:10322000afb99700e00f5000e08f5800e00f590051
:10323000e08f590008003d000200200003b0240088
:103240000800be00d6f507000200200003b02400ed
:10325000dcf50700070037000200200003b024005f
:103260000800be00d7f507000200200003b02400cc
:10327000cbf507000801be00c9f507000005be0038
:10328000e03f2000800f56000f003c00dab79f009f
:10329000ebb79f006044b8007fb097008fb89700ed
:1032a0001fb99700afb99700e00f5000e08f5800aa
:1032b000e00f5900e08f590013003d000800200086
:1032c00009f82b00100037006011b8000a00be009a
:1032d00058f507000000e000070034000a01be00b6
:1032e0000800be00b7f507000200200003f8230025
:1032f000abf50700030037000a01be000800be005e
:10330000b0f507000004be000800be004f067800bc
:103310004f05be004f04be000080fa00000006000a
:10332000889fbe008a9fbe0002047800f93f2000fb
:10333000890f54000d0034000200200003f827001c
:1033400064f70700f83fb100890f540015003400fe
:103350000200200003f827005ef70700f83fb100e5
:10336000890f54000e003c000e00370029c02f00ca
:10337000890f54000b003d006011b80055f707009d
:10338000983cb000890f540006003d006011b80061
:1033900050f70700983cb000890f540001003d0031
:1033a00009047800f83fb000cfc4de00614db900d9
:1033b0006044b8000801be0046f707004f05be0094
:1033c0004f04be0000000600020ab900001bb9004d
:1033d0000200b800810042008100430000000600a6
:020000040000fa
:1033e0000000fa0030d0bf000080fb00cf80de007c
:1033f000f202200003002000820f5000838f58004b
:10340000c5013e00000601002f00370038003700dc
:10341000410037004b0037004f003700590037009c
:103420005d003700670037006b003700750037001c
:103430007900370083003700b7013700b601370045
:10344000b5013700b4013700830037008c00370026
:103450009000370099003700ac003700b500370006
:103460009b003700a4003700b7003700c1003700c9
:10347000c5003700cf003700e3003700ed0037000c
:10348000d1003700db0037003c0137004601370030
:103490004a01370058013700fb00370005013700ab
:1034a000e9003700f3003700240137002e01370010
:1034b00005013700130137005d0137006b0137004c
:1034c00078013700860137002830ef002a30ef00fe
:1034d000120020006000b800eb0607000001eb00be
:1034e0006000b800e806070010c0b30030f0b70075
:1034f0004281800053818000803e20000100200036
:10350000800f5100818f59008601360020c0b30022
:1035100030f0b700ae01370012002000000020009c
:10352000011a2400d80607000001eb00000020006b
:10353000011a2400d406070030c0b30030f0b700f1
:10354000a30137004ad0bf00e14f500077013a0095
:10355000a10107009e01370012002000000020009a
:10356000811c2400c80607000001eb0000002000b9
:1035700001172400c406070050c0b30030f0b700a4
:10358000930137004ad0bf00e14f500069013a0073
:10359000910107008e01370012002000000020007a
:1035a00001172400b80607000001eb00000020000e
:1035b000811c2400b406070070c0b30030f0b700cf
:1035c000830137004ad0bf00e14f50005b013a0051
:1035d000810107007e01370012002000000020005a
:1035e00001172400a80607000001eb0000002000de
:1035f00001172c00a406070090c0b30030f0b700fc
:10360000730137004ad0bf00e14f50004d013a002e
:10361000710107006e013700120020000000200039
:1036200001172c00980607000001eb0000002000a5
:103630000117240094060700b0c0b30030f0b700b3
:10364000630137004ad0bf00e14f50003f013a000c
:10365000610107005e013700120020006000b80021
:10366000890607000001eb000000200001172c0074
:103670008506070010c1b30030f0b70054013700d1
:103680004ad0bf00e14f500032013a00520107001a
:103690004f013700120020000000200001172c000d
:1036a000790607000001eb006000b800760607000d
:1036b00030c1b30030f0b700450137004ad0bf0039
:1036c000e14f500025013a00430107004001370057
:1036d000120020000000200001172c006a060700dd
:1036e0000001eb006000b8006706070030c1b300be
:1036f00030f0b700360137004ad0bf00e14f50002c
:1037000018013a003401070031013700120020008f
:103710006000b8005c0607000001eb00000020001c
:1037200001172c005806070050c1b30030f0b70055
:10373000270137004ad0bf00e14f50000b013a008b
:1037400025010700220137001200200000002000a0
:10375000811c24004c0607000001eb000000200043
:10376000011724004806070090c1b30030f0b700ed
:10377000170137004ad0bf00e14f5000fd003a006a
:103780001501070012013700120020000000200080
:10379000011724003c0607000001eb000000200098
:1037a000811c240038060700b0c1b30030f0b70018
:1037b000070137004ad0bf00e14f5000ef003a0048
:1037c0000501070002013700120020000000200060
:1037d000010a24002c0607000001eb000000200075
:1037e000811c240028060700f0c1b30030f0b700a8
:1037f000f70037004ad0bf00e14f5000e1003a0027
:10380000f5000700f2003700120020000000200041
:10381000811c24001c0607000001eb0000002000b2
:10382000010a240018060700d0c1b30030f0b70029
:10383000e70037004ad0bf00e14f5000d3003a0004
:10384000e5000700e2003700120020000000200021
:10385000811c24000c0607000001eb000000200082
:10386000011a24000806070070c2b30030f0b70048
:10387000d70037004ad0bf00e14f5000c5003a00e2
:10388000d5000700d2003700120020000000200001
:10389000011a2400fc0507000001eb0000002000d5
:1038a000811c2400f805070050c2b30030f0b700b7
:1038b000c70037004ad0bf00e14f5000b7003a00c0
:1038c000c5000700c20037001200200000002000e1
:1038d00001172400ec0507000001eb0000002000a8
:1038e00001172c00e805070040818000518180000d
:1038f0006081880071818800b0c2b30030f0b700e9
:10390000b3003700428180005381800060818000d5
:10391000718180000001510081815900803e2000aa
:1039200001002000800f5100818f59009d0036005a
:1039300020c0b30030f0b700a5003700120020000f
:103940000000200001172400cf0507000001eb0054
:103950000000200001172c00cb05070090c2b30027
:1039600030f0b7009a0037004ad0bf00e14f500056
:103970008e003a00980007009500370012002000e2
:103980000000200001172c00bf0507000001eb001c
:103990000000200001172400bb05070010c2b3007f
:1039a00030f0b7008a0037004ad0bf00e14f500026
:1039b00080003a00880007008500370012002000d0
:1039c0000000200001122400af0507000001eb00f9
:1039d0000000200001122c00ab0507004081800090
:1039e00051818000608188007181880030c2b300fd
:1039f00030f0b700760037004281800053818000ac
:103a00006081800071818000000151008181590036
:103a1000a009210001002000800f5100818f590072
:103a20006600360020c0b30030f0b70068003700f1
:103a3000120020000000200001172c009205070052
:103a40000001eb0000002000011724008e05070094
:103a500040818000518180006081880071818800f0
:103a6000d0c2b30030f0b700590037004281800067
:103a700053818000608180007181800000015100cd
:103a800081815900401f200001002000800f51005b
:103a9000818f59004b00360020c0b30030f0b700d2
:103aa0004b00370012002000000020000117240006
:103ab000750507000001eb000000200001172c0035
:103ac000710507004081800051818000608188007d
:103ad00071818800f0c2b30030f0b7003c003700bd
:103ae000428180005381800060818000718180006c
:103af0000001510081815900401f20000100200079
:103b0000800f5100818f59003000360020c0b30073
:103b100030f0b7002e0037003070ef0000000000da
:103b20002b003700000000002900370000000000d3
:103b300027003700000000002500370000000000cb
:103b400023003700000000002100370000000000c3
:103b50001f003700000000001d00370000000000bb
:103b60001b003700000000001900370000000000b3
:103b700017003700000000001500370000000000ab
:103b800013003700000000001100370000000000a3
:103b90000f003700000000000d003700000000009b
:103ba0000b00370000000000090037000000000093
:103bb000070037000000000005003700000000008b
:103bc0000300370000000000010037000000000083
:103bd0000080fa00000006000a00fa00881f780042
:103be000009980001199800018c0b30002002000e5
:103bf000031224000df307000000e000010035006f
:103c00000044eb000804e00013003200c498800078
:103c1000d5988000e0988000f198800018c0b3002b
:103c20000001be000400be0002f307000000e00037
:103c300001003c000044eb000804e00003003200f7
:103c4000c0c2b30032f0b700fc003700e0c2b300de
:103c500032f0b700f9003700e0988000f19880005a
:103c600018c0b3000200200003102400eff2070088
:103c70000000e000010035000044eb000804e00013
:103c80000300320000c2b30032f0b700eb0037008f
:103c9000c0988000d198800018c0b30002002000b6
:103ca00003102400e1f207000000e00001003500ed
:103cb0000044eb000804e0000300320080c2b300bf
:103cc00032f0b700dd003700409980005199800044
:103cd00018c0b3000200200003102400d3f2070034
:103ce0000000e000010035000044eb000804e000a3
:103cf0000300320000c2b30032f0b700cf0037003b
:103d0000209980003199800018c0b3000200200083
:103d100003102400c5f207000000e0000100350098
:103d20000044eb000804e0000300320080c2b3004e
:103d300032f0b700c1003700f100070031f0b700e2
:103d400031d0bf000080fb00cf80de00f2012000f8
:103d500003002000820f5000838f5800b7003e0000
:103d600000060100b20037001e00370023003700b4
:103d7000280037005c0037002c0037003000370087
:103d8000350037002000370039003700ab0037001e
:103d9000aa0037002d0037004100370068003700c7
:103da00039003700120037007b003700330037003e
:103db0004a003700200037005e0037003b00370024
:103dc0003d00370016003700410037009b003700e8
:103dd00084003700230037003a0037002d003700f9
:103de0006a00370060c2b30032f0b70093003700ba
:103df00040c2b30032f0b7009000370080c1b3007a
:103e000032f0b7008d003700a0c1b30032f0b70028
:103e10008a00370080c1b30032f0b7008700370056
:103e2000a0c1b30032f0b7008400370040c0b30037
:103e300032f0b7008100370060c0b30032f0b70045
:103e400040c0b30032f0b7007c00370060c0b30060
:103e500032f0b7007900370040c0b30032f0b7004d
:103e60007600370060c0b30032f0b700730037004f
:103e7000c0c1b30032f0b70070003700e0c1b3003a
:103e800032f0b7006d003700c0c1b30032f0b700a8
:103e90006a003700e0c1b30032f0b70067003700b6
:103ea000c0c1b30032f0b70064003700e0c1b30016
:103eb00032f0b70061003700a0c0b30032f0b700a5
:103ec0005e00370080c0b30032f0b7005b003700ff
:103ed000a0c0b30032f0b7005800370080c0b30074
:103ee00032f0b70055003700c4988000d5988000a4
:103ef000e0988000f198800018c0b3000001be0077
:103f00000400be004bf207000000e00001003c008e
:103f10000044eb000804e00003003200c0c2b3001c
:103f200032f0b70045003700e0c2b30032f0b7000e
:103f300042003700a0c2b30032f0b7003f003700a4
:103f40002499800035998000409980005199800023
:103f500018c0b3000001be000400be0035f2070027
:103f60000000e00001003c000044eb000804e00019
:103f700003003200c0c2b30032f0b7002f00370098
:103f8000e0c2b30032f0b7002c003700a0c2b3008b
:103f900032f0b7002900370024998000359980005d
:103fa000409980005199800018c0b3000001be0004
:103fb0000400be001ff207000000e00001003c000a
:103fc0000044eb000804e00003003200a0c1b3008d
:103fd00032f0b7001900370080c1b30032f0b700eb
:103fe00016003700249980003599800040998000a0
:103ff0005199800018c0b3000001be000400be004b
:104000000cf207000000e00001003c000044eb005f
:104010000804e00003003200a0c1b30032f0b70092
:104020000600370080c1b30032f0b700030037004c
:1040300020c0b30032f0b7000000000032d0bf0053
:104040008080fb0030d0bf000080fb000000e90052
:10405000808f50002700320032d0bf0030f0b70010
:104060004281800053818000028fbe000103210045
:104070009140780064004700014878001e007800f5
:104080009e0090004808de008040780065004700f0
:10409000014878001e0078009e0090004008de0075
:1040a0008040780066004700014878001e007800d4
:1040b0009e009000c809dd004800de00008071000d
:1040c000c808de008040780067004700014878009b
:1040d0001e007800804078006800470001487800a2
:1040e0006400470000017800510020000005200016
:1040f000860007004f0478000080fa0000000600e8
:104100000000fa00881f78003170ef0040998000ad
:104110005199800018c0b30002002000031224004f
:10412000c2f107000000e000010035000044eb0090
:104130000804e0000300320031d0bf000044a000ba
:1041400031f0b700e0988000f198800018c0b3000b
:104150000200200003172400b4f107000000e00073
:10416000010035000044eb000804e00003003200c9
:1041700031d0bf000034a00031f0b70000998000ba
:104180001199800018c0b30002002000831c240095
:10419000a6f107000000e000010035000044eb003c
:1041a0000804e0000300320031d0bf000024a0006a
:1041b00031f0b700c0988000d198800018c0b300db
:1041c000020020000317240098f107000000e0001f
:1041d000010035000044eb000804e0000300320059
:1041e00031d0bf000014a00031f0b700209980004a
:1041f0003199800018c0b30002002000031224008f
:104200008af107000000e000010035000044eb00e7
:104210000804e0000300320031d0bf000004a00019
:1042200031f0b70031d0bf004f0478000080fa00b1
:10423000000006000a00fa00e40147008009780047
:10424000660047000108780068004700020878000f
:104250000040eb00004f7800e0cfb3001e4f680035
:1042600064004700100078004880de0000407800bd
:104270001e4f68006400470010007800004078007e
:104280001e4f680066004700100078004880de007e
:10429000004078001e4f680066004700100078005c
:1042a000004078001e4f68008000eb000e80e800a0
:1042b000010878000c0037000e80e80090007800bc
:1042c00068004700100078000100400010407800ae
:1042d0001e4f68000e80e800100078008000e800a3
:1042e0000e80e800010878000e80e8009000780059
:1042f0006600470010007800808f5000eeff350008
:104300001e4078000080fa00000006000e00fa004f
:10431000889fbe00e8014700800978006a004700d6
:10432000010878006c004700020878000f0478004c
:104330000f007800800478000000eb00000f780088
:104340006a00470010007800660040000001e900a4
:10435000e4004700820878000000e8000000e80060
:104360000000d100800040000f00780081874700e6
:104370000000e8000000d10000004000e600470017
:104380008008780066004700100078001e0040009a
:10439000e1cfb300014878001e0fe8006800470035
:1043a000100078004880de008040780066004700fa
:1043b000100078001e004000014878001e0fe80041
:1043c00068004700100078008040780066004700d1
:1043d000100078001e004000014878001e0fe80021
:1043e0006a004700100078004880de0080407800b6
:1043f00066004700100078001e0040000148780069
:104400001e0fe8006a004700100078008040780026
:1044100066004700100078001e0040000148780048
:104420001e0fe8008000eb000e80e8000108780015
:104430008000eb000e80e8000108780010003700d3
:104440000e80e800900078006c00470010007800b3
:10445000010040009040780066004700100078009e
:104460001e004000014878001e0fe8000e80e800a2
:10447000100078008000e8000e80e8000108780055
:104480000e80e800900078006a0047001000780075
:10449000808f5000eaff35006c0047001001780063
:1044a0006a0047009000780068004700100078001c
:1044b00060ff0700e6004700910078009e80400002
:1044c000804878001e0fe800660047001000780062
:1044d0009e00780035060700890778008807780075
:1044e0004f04be000080fa00000006000200fa003f
:1044f000004f780060828000e40f500023003200fb
:10450000e40f500007003c00e20f500012003200a0
:10451000e20f500016003c00e10f5000080032008e
:1045200054003700e60f500033003200e60f500011
:104530001c003500e70f50003d0032004d003700f1
:104540001e407800e24f40004e003a00200020005c
:10455000608288004e0037001e80fb004800dd00ae
:10456000a081880030002000608288004800370069
:104570001e80fb00a181800001004000a081880016
:104580004000200060828800410037001e80fb0050
:104590004800dd00b0818800500020006082880063
:1045a0003b0037001e80fb00b1818000010040000d
:1045b000b0818800b08180000000e00003003a0074
:1045c000700020006082880031003700b1818000d7
:1045d000f0072000808f50000300340010002000fe
:1045e000608288002a0037003830ef006000200029
:1045f0006082880026003700c18180006028210089
:10460000010040001e487800c08180000000e800e2
:10461000c0818800c1818000b0818000808f5000ff
:104620001a003500700020006082880018003700f2
:10463000b1818000a081800062282100fdfe07007a
:104640003af0b7003ad0bf009e4f500006003a0043
:10465000b081800080407800a08180000040780018
:10466000622821000c0007001000200060828800f2
:104670000700370010002000608288000000000062
:1046800003003700000000000100370000000000b8
:104690000080fa00000006000400fa00004f7800d5
:1046a0000e00e800014878000e80e800020878005b
:1046b0001e80fb0011052000810f50000400320015
:1046c00021052000810f5000060032000a0037004b
:1046d0000e80e80010007800104078000800070005
:1046e000050037000e80e8001000780010407800c8
:1046f0000a000700000000000080fa000000060029
:104700000200fa00004f78001e41780001032100ea
:10471000824878000080fa00000006000200fa00db
:10472000004f78001e4078000004e00002003a00cc
:104730004a70ef000200370010c0b3004af0b70023
:104740000080fa00000006000000fa00c301a80083
:104750000080eb00e00e88000080eb00f00e880087
:10476000c1e1a8000080fa00000006000000fa0085
:10477000c305a8000080eb00e02e88000080eb005d
:10478000f02e8800c1e5a8000080fa0000000600b5
:104790000800fa00889fbe004080800051808000a1
:1047a0000080880011808800608080007180800017
:1047b0002080880031808800300e80008000eb006f
:1047c000008fbe00500e80008000eb00c000dd00b6
:1047d000000020001e0f40005e974800302e800031
:1047e0008000eb00640147000089be00502e80006d
:1047f0008000eb00c000dd000000200064014700e5
:10480000920190001201780002004000838048006d
:10481000640147000089be001e0078009e009000e1
:1048200042f00700d25d2b0043c8230029f20700a5
:10483000408088005180880064004700900090000c
:104840001000780039f00700d25d2b0043c82b0020
:1048500020f207006080880071808800448080001a
:104860005580800000808000118080000001be0023
:104870000400be004af00700808088009180880014
:1048800064808000758080002080800031808000fe
:104890000001be000400be0041f00700c080880097
:1048a000d18088006499800075998000809980008b
:1048b000919980000001be000400be0041f0070095
:1048c000020020000300240023f107000200200062
:1048d000a337240020f10700a0808800b180880061
:1048e000649980007599800080998000919980007a
:1048f0000001be000400be0029f00700a2992900b3
:10490000c338240014f1070002002000a33724005c
:10491000f0f10700e0808800f1808800808080004e
:104920009180800002002000a3372400e9f10700f5
:104930006099880071998800c0808000d1808000d3
:1049400002002000a3372400e2f1070080998800cc
:104950009199880064998000759980008099800001
:10496000919980000001be000400be0015f0070010
:104970000200200003002400f7f00700a09988003f
:10498000b1998800e0808000f18080000200200062
:10499000a3372400cff10700c0998800d19988007f
:1049a000209a8000319a8000e0998800f19988006f
:1049b000409a8000519a8000009a8800119a8800dd
:1049c000609a8000719a8000809a8800919a88008d
:1049d000289a8000399a8000609a8000719a80003d
:1049e000dcf307000002be00a0808000b1808000e0
:1049f0000001be000400be00b6f107000001be00c9
:104a00000800be00efef0700209a8800319a880066
:104a1000489a8000599a8000609a8000719a8000bc
:104a2000e5f407000002be00a0808000b180800095
:104a30000001be000400be00a6f107000001be0098
:104a40000800be00dfef0700409a8800519a8800f6
:104a5000649a8000759a8000e0808000f180800078
:104a60000001be000400be00d6ef0700609a880077
:104a7000719a8800609a8000719a800018c0b30013
:104a8000b2fd2000930424006aef07000000e0005c
:104a900001003c000044eb000804e0000700320085
:104aa000609a8000719a8000b2fd2000930c24006f
:104ab000bbef0700609a8800719a8800609a8000b6
:104ac000719a800018c0b300b2fd200093042c003e
:104ad00056ef07000000e000010035000044eb0045
:104ae0000804e00007003200609a8000719a80009c
:104af000b2fd2000930c2400b2ef0700609a8800fa
:104b0000719a88004f04be000080fa000000060081
:104b10001800fa0040818000518180000001be0031
:104b20008000eb000e007800d4030700209a80007c
:104b3000319a80000001be00410020000e00780084
:104b4000af030700409a8000519a80000001be0028
:104b5000810020000e007800a9030700609a800001
:104b6000719a80000001be00c10020000e00780094
:104b7000a3030700a0998000b19980000001be0046
:104b8000010120000e0078009d030700c0998000fd
:104b9000d19980000001be00410120000e00780084
:104ba000970307000e017800810120001006200005
:104bb000d6fd07000080fa00000006000000fa00a1
:104bc00013e1a90011e1a9001061a8001021a900ba
:104bd00081088000f0fc2f000080600080088800c1
:104be0000a21ef000621ef0020262000700888002f
:104bf00000a02500600888002142800080ff2f006f
:104c0000008060000000a000204288000108a90088
:104c10002108a80011e1a8000080fa0000000600a9
:104c20000000fa0005e1a9000421a9000068a9001c
:104c30002068a80005e1a80000002000a13724009a
:104c40000d0007000080fa00000006000000fa00d6
:104c50001fe1a9001e21a9000368a9002368a8007c
:104c60001fe1a80000002000a147240076000700f3
:104c70000080fa00000006000400fa00881f780097
:104c8000008fbe0021088000f0fc2f000080600033
:104c9000200888001e0178009e019000006829000d
:104ca00081c124002cf0070018c0b30002f02f00cf
:104cb000f3772400dfee07000000e00001003c0075
:104cc0000044eb000804e00054003200210880009a
:104cd000f0fc2f00008060000040a0002008880049
:104ce0001e0178009e0190000068290081c1240007
:104cf00019f00700020020000310240016f007003e
:104d000018c0b30002f02f00f3772400c9ee0700ab
:104d10000000e00001003c000044eb000804e0005b
:104d20003200320021088000f0fc2f00008060007b
:104d30000050a000200888001e0178009e0190000d
:104d40000068290081c1240003f007000200200050
:104d50000328240000f0070018c0b30002f02f0061
:104d6000f3772400b3ee07000000e00001003c00f0
:104d70000044eb000804e00010003200210880002d
:104d80000003200001007000200888001e01780048
:104d90009e0190000068290081c12400eeef070009
:104da0000200200003382400ebef0700a3ee070009
:104db0000000780010088800200037001e017800ed
:104dc0009e0190000068290081c12400e2ef0700e5
:104dd0000200200003282400dfef070097ee070001
:104de0000000780010088800140037001e017800c9
:104df0009e0190000068290081c12400d6ef0700c1
:104e00000200200003102400d3ef07008bee070000
:104e10000000780010088800080037001e017800a4
:104e20009e0190000068290081c12400caef07009c
:104e300082ee070000007800100888004f04780018
:104e40000080fa00000006000400fa00881f7800c5
:104e5000008fbe00f1088000f0fc2f000080600091
:104e6000f00888001e0178009e019000006829006b
:104e700081c12400b8ef070018c0b30002f02f0072
:104e8000f37724006bee07000000e00001003c0017
:104e90000044eb000804e00054003200f1088000f8
:104ea000f0fc2f00008060000040a000f0088800a7
:104eb0001e0178009e0190000068290081c1240035
:104ec000a5ef07000200200003102400a2ef070056
:104ed00018c0b30002f02f00f377240055ee07004e
:104ee0000000e00001003c000044eb000804e0008a
:104ef00032003200f1088000f0fc2f0000806000da
:104f00000050a000f00888001e0178009e0190006b
:104f10000068290081c124008fef070002002000f3
:104f2000032824008cef070018c0b30002f02f0004
:104f3000f37724003fee07000000e00001003c0092
:104f40000044eb000804e00010003200f10880008b
:104f50000003200001007000f00888001e017800a6
:104f60009e0190000068290081c124007aef0700ab
:104f7000020020000338240077ef07002fee07001f
:104f800000007800d0088800200037001e0178005b
:104f90009e0190000068290081c124006eef070087
:104fa00002002000032824006bef070023ee070017
:104fb00000007800d0088800140037001e01780037
:104fc0009e0190000068290081c1240062ef070063
:104fd00002002000031024005fef070017ee070017
:104fe00000007800d0088800080037001e01780013
:104ff0009e0190000068290081c1240056ef07003f
:105000000eee070000007800d00888004f047800fa
:105010000080fa00000006000000fa001160800025
:1050200080ff2f00008060001060880000fa2000e0
:105030002060880023aca800238ca80011618000a8
:10504000f03f2f000080600000a0a00010618800e9
:105050003000200020618800c3aca800c38ca800e9
:1050600011668000f03f2f000080600000a0a000cb
:1050700010668800300020002066880001eca8003f
:105080000080fa00000006000600fa00008fbe0053
:1050900064004700020878006400470010007800b0
:1050a0000000e00005003a001e0178009e0190001b
:1050b0004298880053988800080037006400470031
:1050c00010007800e10f500004003a001e01780043
:1050d0009e01900082988800939888000080fa00d2
:1050e000000006000000fa00889fbe00a49880001f
:1050f000b5988000809880009198800018c0b30017
:105100000001be000400be00c8ed07000000e00082
:10511000010035000044eb000804e0000d003200ff
:105120008898800099988000a4988000b5988000a5
:1051300010828000218280000001be000400be00b9
:1051400020ee07000801be00bb020700a0988800ff
:10515000b1988800a4988000b5988000809880005d
:105160009198800018c0b3000001be000400be008a
:10517000b0ed07000000e00001003c000044eb003f
:105180000804e0000d0032008898800099988000a3
:10519000a4988000b5988000108280002182800051
:1051a0000001be000400be00fded07000801be00c6
:1051b00087020700a0988800b1988800a098800016
:1051c000b198800018c0b3006011b80099ed0700d5
:1051d0000000e00001003c000044eb000804e00097
:1051e00004003200c3eca90024cea800c3cca80060
:1051f00003003700c3cca90024eea800c3eca8002c
:10520000a0988000b19880005b0207000200200097
:1052100003222400afef0700a9ed0700000078008b
:1052200030668800649880007598800040988000ff
:105230005198800018c0b3000001be000400be00f9
:105240007aed07000000e000010035000044eb00ab
:105250000804e0000d003200489880005998800052
:105260006498800075988000108280002182800000
:105270000001be000400be00d2ed07000801be0020
:105280006d0207006098880071988800649880001b
:1052900075988000409880005198800018c0b30035
:1052a0000001be000400be0062ed07000000e00047
:1052b00001003c000044eb000804e0000d00320057
:1052c0004898800059988000649880007598800004
:1052d00010828000218280000001be000400be0018
:1052e000afed07000801be00390207006098880092
:1052f00071988800609880007198800018c0b30091
:105300006011b8004bed07000000e00001003c0018
:105310000044eb000804e0000400320023cca900a4
:1053200015eea80023eca8000300370023eca90029
:1053300015cea80023cca80060988000719880004a
:105340000d020700020020000322240061ef070085
:105350005bed070000007800306188004f04be005c
:105360000080fa00000006000e00fa00889fbe00d0
:10537000f6030700c20307008703070028fe0700a3
:105380000efe070031fe070023ff0700ef020700b3
:10539000edfc0700f5fc070064cea80064eea80051
:1053a000254ea80001003700000000000000eb00bf
:1053b000000f780007003700410307008e80e800e7
:1053c000804878000e80e8001040780047fc070015
:1053d0001e0fe8005d0307009e0f5000f6ff3c0023
:1053e0001c030700e14f5000efff3a001d030700c8
:1053f000140307008000780064004700010878006b
:105400006400470010007800680040001000780039
:105410008000eb0048ed0700323323003305240001
:105420002cef070002002000035824004aee07007a
:10543000d2cc2c00c304240026ef070066014700ed
:105440000089be00660047001001780090019000be
:1054500000002000812024003fee07000200200011
:10546000030a24004eed0700e0988800f1988800b8
:1054700064004700100078006600400010007800cb
:105480008000eb002ced07003233230033052400ad
:1054900010ef070002002000035824002eee070042
:1054a000d2cc2c00c30424000aef07006601470099
:1054b0000089be006600470010017800900190004e
:1054c000000020008120240023ee070002002000bd
:1054d000030a240032ed07004099880051998800a2
:1054e000640047001000780064004000100078005d
:1054f0008000eb0010ed0700323323003305240059
:10550000f4ee0700020020000358240012ee07000a
:10551000d2cc2c00c3042400eeee07006601470045
:105520000089be00660047001001780090019000dd
:10553000000020008120240007ee07000200200068
:10554000030a240016ed07000099880011998800cd
:1055500064004700100078000080e8001000780028
:105560008000eb00f4ec0700323323003305240005
:10557000d8ee07000200200003582400f6ed0700d3
:10558000d2cc2c00c3042400d2ee070066014700f1
:105590000089be006600470010017800900190006d
:1055a0000000200081202400ebed07000200200015
:1055b000030a2400faec0700c0988800d1988800fc
:1055c0006400470010007800100078008000eb00b5
:1055d000d9ec07003233230033052400bdee070069
:1055e0000200200003582400dbed0700d2cc2c0081
:1055f000c3042400b7ee0700660147000089be001f
:105600006600470010017800900190000000200023
:1056100081202400d0ed070002002000030a2400ae
:10562000dfec07002099880031998800e09880001d
:10563000f1988000a2ec0700804478000099800077
:10564000119980009eec070000447800c09880000b
:10565000d19880009aec0700804078006a004700eb
:10566000094878006b004700084878006c00470044
:10567000014878006a0047000001780031002000ee
:0c5680000003200021fb070048ff37005a
:020000040000fa
:10568c004e100000020000008000000050100000ce
