:020000040000fa
:080000000002040000000000f2
:020000040000fa
:04000800fc030000f5
:020000040000fa
:04000c00fc030000f1
:020000040000fa
:04001000fc030000ed
:020000040000fa
:04001400fc030000e9
:020000040000fa
:04001800fc030000e5
:020000040000fa
:04001c00fc030000e1
:020000040000fa
:04002000fc030000dd
:020000040000fa
:04002400fc030000d9
:020000040000fa
:04002800fc030000d5
:020000040000fa
:04002c00fc030000d1
:020000040000fa
:04003000fc030000cd
:020000040000fa
:0400340002030000c3
:020000040000fa
:04003800fc030000c5
:020000040000fa
:04003c00fc030000c1
:020000040000fa
:04004000fc030000bd
:020000040000fa
:04004400fc030000b9
:020000040000fa
:04004800fa020000b8
:020000040000fa
:04004c00fc030000b1
:020000040000fa
:04005000fc030000ad
:020000040000fa
:04005400b8030000ed
:020000040000fa
:040058008e03000013
:020000040000fa
:04005c006a03000033
:020000040000fa
:04006000fc0300009d
:020000040000fa
:04006400fc03000099
:020000040000fa
:04006800fc03000095
:020000040000fa
:04006c00fc03000091
:020000040000fa
:04007000fc0300008d
:020000040000fa
:04007400fc03000089
:020000040000fa
:04007800fc03000085
:020000040000fa
:04007c00fc03000081
:020000040000fa
:04008000fc0300007d
:020000040000fa
:04008400fc03000079
:020000040000fa
:04008800fc03000075
:020000040000fa
:04008c00fc03000071
:020000040000fa
:04009000fc0300006d
:020000040000fa
:040094004003000025
:020000040000fa
:04009800fc03000065
:020000040000fa
:04009c00fc03000061
:020000040000fa
:0400a000fc0300005d
:020000040000fa
:0400a400fc03000059
:020000040000fa
:0400a800fc03000055
:020000040000fa
:0400ac00fc03000051
:020000040000fa
:0400b000fc0300004d
:020000040000fa
:0400b400fc03000049
:020000040000fa
:0400b800fc03000045
:020000040000fa
:0400bc00fc03000041
:020000040000fa
:0400c000fc0300003d
:020000040000fa
:0400c400fc03000039
:020000040000fa
:0400c800fc03000035
:020000040000fa
:0400cc00fc03000031
:020000040000fa
:0400d000fc0300002d
:020000040000fa
:0400d400fc03000029
:020000040000fa
:0400d800fc03000025
:020000040000fa
:0400dc00fc03000021
:020000040000fa
:0400e000fc0300001d
:020000040000fa
:0400e400fc03000019
:020000040000fa
:0400e800fc03000015
:020000040000fa
:0400ec00fc03000011
:020000040000fa
:0400f000fc0300000d
:020000040000fa
:0400f400fc03000009
:020000040000fa
:0400f800fc03000005
:020000040000fa
:0400fc00fc03000001
:020000040000fa
:04010000fc030000fc
:020000040000fa
:04010400fc030000f8
:020000040000fa
:04010800fc030000f4
:020000040000fa
:04010c00fc030000f0
:020000040000fa
:04011000fc030000ec
:020000040000fa
:04011400fc030000e8
:020000040000fa
:04011800fc030000e4
:020000040000fa
:04011c00fc030000e0
:020000040000fa
:04012000fc030000dc
:020000040000fa
:04012400fc030000d8
:020000040000fa
:04012800fc030000d4
:020000040000fa
:04012c00fc030000d0
:020000040000fa
:04013000fc030000cc
:020000040000fa
:04013400fc030000c8
:020000040000fa
:04013800fc030000c4
:020000040000fa
:04013c00fc030000c0
:020000040000fa
:04014000fc030000bc
:020000040000fa
:04014400fc030000b8
:020000040000fa
:04014800fc030000b4
:020000040000fa
:04014c00fc030000b0
:020000040000fa
:04015000fc030000ac
:020000040000fa
:04015400fc030000a8
:020000040000fa
:04015800fc030000a4
:020000040000fa
:04015c00fc030000a0
:020000040000fa
:04016000fc0300009c
:020000040000fa
:04016400fc03000098
:020000040000fa
:04016800fc03000094
:020000040000fa
:04016c00fc03000090
:020000040000fa
:04017000fc0300008c
:020000040000fa
:04017400fc03000088
:020000040000fa
:04017800fc03000084
:020000040000fa
:04017c00fc03000080
:020000040000fa
:04018000fc0300007c
:020000040000fa
:04018400fc03000078
:020000040000fa
:04018800fc03000074
:020000040000fa
:04018c00fc03000070
:020000040000fa
:04019000fc0300006c
:020000040000fa
:04019400fc03000068
:020000040000fa
:04019800fc03000064
:020000040000fa
:04019c00fc03000060
:020000040000fa
:0401a000fc0300005c
:020000040000fa
:0401a400fc03000058
:020000040000fa
:0401a800fc03000054
:020000040000fa
:0401ac00fc03000050
:020000040000fa
:0401b000fc0300004c
:020000040000fa
:0401b400fc03000048
:020000040000fa
:0401b800fc03000044
:020000040000fa
:0401bc00fc03000040
:020000040000fa
:0401c000fc0300003c
:020000040000fa
:0401c400fc03000038
:020000040000fa
:0401c800fc03000034
:020000040000fa
:0401cc00fc03000030
:020000040000fa
:0401d000fc0300002c
:020000040000fa
:0401d400fc03000028
:020000040000fa
:0401d800fc03000024
:020000040000fa
:0401dc00fc03000020
:020000040000fa
:0401e000fc0300001c
:020000040000fa
:0401e400fc03000018
:020000040000fa
:0401e800fc03000014
:020000040000fa
:0401ec00fc03000010
:020000040000fa
:0401f000fc0300000c
:020000040000fa
:0401f400fc03000008
:020000040000fa
:0401f800fc03000004
:020000040000fa
:0401fc00fc03000000
:020000040000fa
:04020000fc030000fb
:020000040000fa
:04020400fc030000f7
:020000040000fa
:04020800fc030000f3
:020000040000fa
:04020c00fc030000ef
:020000040000fa
:04021000fc030000eb
:020000040000fa
:04021400fc030000e7
:020000040000fa
:04021800fc030000e3
:020000040000fa
:04021c00fc030000df
:020000040000fa
:04022000fc030000db
:020000040000fa
:04022400fc030000d7
:020000040000fa
:04022800fc030000d3
:020000040000fa
:04022c00fc030000cf
:020000040000fa
:04023000fc030000cb
:020000040000fa
:04023400fc030000c7
:020000040000fa
:04023800fc030000c3
:020000040000fa
:04023c00fc030000bf
:020000040000fa
:04024000fc030000bb
:020000040000fa
:04024400fc030000b7
:020000040000fa
:04024800fc030000b3
:020000040000fa
:04024c00fc030000af
:020000040000fa
:04025000fc030000ab
:020000040000fa
:04025400fc030000a7
:020000040000fa
:04025800fc030000a3
:020000040000fa
:04025c00fc0300009f
:020000040000fa
:04026000fc0300009b
:020000040000fa
:04026400fc03000097
:020000040000fa
:04026800fc03000093
:020000040000fa
:04026c00fc0300008f
:020000040000fa
:04027000fc0300008b
:020000040000fa
:04027400fc03000087
:020000040000fa
:04027800fc03000083
:020000040000fa
:04027c00fc0300007f
:020000040000fa
:04028000fc0300007b
:020000040000fa
:10040000cf1d21000eff2c000e018800000000000f
:10041000000020000000e000020032000001200087
:100420002002880014000700f50007000000e0002b
:1004300003003a002095210001002000020037004f
:100440000000200001002000810f70000100320038
:100450000f000700000020000000e0000200320052
:1004600000000200000000008214020000000000f2
:100470000040da000000fe00200020000000e00044
:1004800002003200100020009001880000000600e9
:10049000a1028800800478000000eb001f003700f4
:1004a000e284440054a0b4009905ba00e2844400f8
:1004b00054a0b4009906ba00e284440054a0b400e9
:1004c0000006eb00476fde00fd07b200ae018800ba
:1004d000636ce10003003a000ad801000000eb0061
:1004e0000e003700606ce10008003a00004deb00a0
:1004f0000a05e800020039003420ec000af0a000f0
:100500008b05e900f9ff3e00040037006168e10057
:10051000010032000086eb000b00070019c7ba008b
:100520000e04e0001905ba0003003a000a00e000da
:10053000dbff3a0000000600fe07b200ae028800b2
:100540008a047800f5ff37000cd0a300e20f4d00bd
:100550001c00390089027800354dba000a05e80010
:10056000020039003420ec000af0a0008b05e900fd
:100570000f003200254dba000a05e80002003900dc
:100580003420ec000af0a0008b05e90008003200de
:100590000c00e0000600320015cdba000a05e800a4
:1005a000020039003420ec000af0a0008b05e900bd
:1005b0008984e80054a0b4000b00e000e2ff3a0098
:1005c000000006009902ba00055d78008b05e9007d
:1005d000f7ff3200c82ade00055d78008b05e900d0
:1005e000f3ff32000c00e000f1ff320019ddba0029
:1005f000eeff37000000fa000108a9000080fa00b1
:10060000004006003600f800809fbe00829fbe00ba
:10061000849fbe00869fbe000000fa000068a9000b
:1006200017080700920a07002173800000042000c9
:100630000080600000f0a7000000ea000000e90070
:100640004f00de00004078000080fb006100600089
:100650004600dd00217380000160a10001007000f0
:10066000207388000080fa004f03be004f02be00d6
:100670004f01be004f00be003600f90000400600ea
:100680003600f800809fbe00829fbe00849fbe009f
:10069000869fbe000000fa000368a9000080800069
:1006a0001180800061004000e080480000808800e8
:1006b00011808800060207000080fa004f03be0088
:1006c0004f02be004f01be004f00be003600f900d1
:1006d00000400600801f78000000fa0001a8a90071
:1006e00000188000908e880010188000a08e88006e
:1006f00020188000b08e880030188000c08e8800de
:1007000040188000d08e880010c0b3002bf0b700d6
:100710000080fa004f007800004006003600f80024
:10072000809fbe00829fbe00849fbe00869fbe0049
:100730000000fa000188a900b1808000a08080003c
:10074000808f500002003200e809070001003700e6
:100750001870ef000080fa004f03be004f02be0089
:100760004f01be004f00be003600f90000400600f9
:100770003600f800809fbe00829fbe00849fbe00ae
:10078000869fbe000000fa000168a90010118000d9
:10079000640060000000e000010032002242a90075
:1007a00010118000620060000000e00006003200ce
:1007b0002222a90005003700301180000040780097
:1007c0003b0a070001003700000000001011800004
:1007d000610060000000e000f7ff3a000080fa00ce
:1007e0004f03be004f02be004f01be004f00be00cf
:1007f0003600f900004006000040da000000fe006c
:100800000000050003f0a200889fbe008a9fbe0082
:100810008c1f7800180107001f0133006450e100ad
:100820004f0032006420e1005200320003826c006d
:1008300007003b000905d0000306d000820f5400da
:100840000c065d00020039000200320089017800c8
:10085000030678008582550004003d000003fd007a
:100860008103fd008502ea008b854200840f72003f
:1008700002003b0060001000e08018006011b8002a
:100880000005eb007a28e1000a0039000600780034
:10089000c75ddd00f707b200878075002d003700c7
:1008a000828171000a017800610560008180d100b9
:1008b0000080d3008502e900f9ff3b0006044000f8
:1008c0008784480002003b0060041400e0841c00a0
:1008d0000988a300070032008a81710082817100bb
:1008e000610164008904d1000884d3008b05e8000d
:1008f000170037000978a30013003a000b00e0004e
:10090000130034008b05e9000804440089844c007e
:100910000a4474000978a3000d003a000b00e000bf
:10092000070034008b05e9000804440089844c006a
:1009300001003a000b0020000978a300f7ff320005
:100940000001eb0002003700828171000a0178008b
:100950008e0007000cf0a70001f0a000d7003700c0
:100960006420e10002003a00838f6c00d70033005e
:100970000801be000200be00d0003700889fbe0004
:100980008a9fbe008c1f7800bb000700c2003300a6
:1009900003866c006450e1002e0032006420e10008
:1009a000330032006150e1002f0032006120e1008d
:1009b0003100320085855500eb07b00009002000aa
:1009c00008042000050037000804440089844c0016
:1009d0000a0031000603430087834b0000015300e7
:1009e00081815b00f8ff33000203be000800a00015
:1009f0000804440089844c00f6ff3900c639dd0044
:100a00008301730001003200130020008904d1002b
:100a10000884d3000998a300050032000800a7004d
:100a20000300a0008904d1000884d3008b05e800ee
:100a30008904d1000884d3000001eb000281d200b8
:100a40005200070001f0a1000cf0a70001f0a00087
:100a50009a0037006420e1009c0032000801be00cb
:100a60000200be00f7ff37006120e100970032006e
:100a70006000b800f3ff37000000200001f82700f5
:100a8000f0ff370014002000c7003700f4ff2f00ec
:100a9000c50037000001be00620007000470a70017
:100aa00003f0a1006509b100160032000d00350009
:100ab0006828e10006003500f0ff2f00f1ff270055
:100ac0000300e00013003b000100280000000500c7
:100ad00000004000818048008502e900fcff3a00e8
:100ae00008003700f88f420002003c008000eb0055
:100af000000005008100d1000080d3008502e800dd
:100b0000fcff3a000300e00002003b006000100020
:100b1000e0801800000006000001be004100070050
:100b20000470a70003f0a10003f8a30013003a002b
:100b30006509b10010003200090035006928e100a4
:100b40000200350001002800000005000000400000
:100b5000818048008502e900fcff3a0000000600a1
:100b6000f88f4200050035008100d1000080d300dd
:100b70008502e800fcff3a00000006008000eb0060
:100b8000000005006011b800a200370081002000bd
:100b9000618055000b003d000b00200061fe2f001e
:100ba0000100e1001d0034008281710061016400d8
:100bb0008904d1000884d3000000e800faff3a005d
:100bc00071002000610064000300700002006000fa
:100bd0000900320061044400e0844c000988a5004b
:100be000050032008b05e8006808e10002003a00c9
:100bf0008904d1000884d300f20f20000258e100dc
:100c000005003d00c75ddd00f907b2008980750071
:100c100008007800000006000bf827008b00780021
:100c200000000500c70ade00f107b200f50fb200b0
:100c300008003200e1cf4200020032000170a00043
:100c400024000500810f7000010032000408050037
:100c500044000500810f700002003a0014000500f6
:100c60008502e9000000400081c04800fcff3b0015
:100c70000170a000240005000004be00e9ff070089
:100c80000003be000405be000200be00e5ff070031
:100c9000844f7500000006000200be006450e100b1
:100ca000050036006420e100020036000968a30058
:100cb00001003a000800be000160a0004f06780065
:100cc0004f05be004f04be0000000600f0ff2f00dd
:100cd000f1ff2700f9ff3700889fbe008a9fbe0002
:100ce0008c1f7800e4ff0700ebff330003866c00e5
:100cf0006450e100240032006420e100270032004b
:100d00006150e100220032006120e1002100320048
:100d10008b854200eb07b1000134b800003ab800ff
:100d20000804420089844a00013ab8000030b80043
:100d30008880400009014a000400330000004000a0
:100d400081804800020149008b05e900c909dd00e6
:100d5000830170000100320013002000c814de007f
:100d60004814dd004709de001200b200c808de00aa
:100d70000884700085ff070001f0a1000cf0a700b7
:100d800001f0a000cdff37006120e100cfff32006d
:100d90000801be000200be00f7ff37006150e1000d
:100da000fcff3a00c9ff3700889fbe008a9fbe0043
:100db000841f7800b0ff07004f0078001100330057
:100dc000f0ff2f00838f6c0006003b0004056500d8
:100dd0000a00a7000800370009f0a6001000200054
:100de00008003700820f5400838f5c000300390035
:100df0001000200001003e000000200009f0a700c4
:100e00000000ea004f05be004f04be000000e000f5
:100e100000000600889fbe008a9fbe00008270000e
:100e20000402710004827100260032000004be003a
:100e30000200be006011b8006b092000950220007e
:100e40000182cf000a0039000541b1000082cf00c5
:100e5000070039000541b1000982cf0004003900c4
:100e60000541b1000882cf00010039000541b10001
:100e700005425200120032000a003b0082817100dc
:100e8000610164008100d1000080d3008984d30017
:100e90000884d3008b05e8000442e800f7ff3a001d
:100ea000070037000804440089844c000000480013
:100eb000818048008b05e9000442e900f9ff3a000f
:100ec00032ff07004f05be004f04be0000000600c1
:020000040000fa
:100ed0000000fa0008d0bf000080fb00cf80de00d9
:100ee000f202200003002000820f5000838f580080
:100ef000c5013e00000601002f0037003800370012
:100f0000410037004b0037004f00370059003700d1
:100f10005d003700670037006b0037007500370051
:100f20007900370083003700b7013700b60137007a
:100f3000b5013700b4013700830037008c0037005b
:100f40009000370099003700ac003700b50037003b
:100f50009b003700a4003700b7003700c1003700fe
:100f6000c5003700cf003700e3003700ed00370041
:100f7000d1003700db0037003c0137004601370065
:100f80004a01370058013700fb00370005013700e0
:100f9000e9003700f3003700240137002e01370045
:100fa00005013700130137005d0137006b01370081
:100fb00078013700860137000030ef000230ef0083
:100fc000120020006000b800990507000001eb0046
:100fd0006000b8009605070010c0b30008f0b70025
:100fe0000280800013808000803e200001002000ed
:100ff000800f5100818f59008601360020c0b30058
:1010000008f0b700ae0137001200200000002000f9
:10101000011a2400860507000001eb0000002000f3
:10102000011a24008205070030c0b30008f0b700a1
:10103000a301370022d0bf00e14f500077013a00f2
:10104000a10107009e0137001200200000002000cf
:10105000811c2400760507000001eb000000200041
:10106000011724007205070050c0b30008f0b70054
:101070009301370022d0bf00e14f500069013a00d0
:10108000910107008e0137001200200000002000af
:1010900001172400660507000001eb000000200096
:1010a000811c24006205070070c0b30008f0b7007f
:1010b0008301370022d0bf00e14f50005b013a00ae
:1010c000810107007e01370012002000000020008f
:1010d00001172400560507000001eb000000200066
:1010e00001172c005205070090c0b30008f0b700ac
:1010f0007301370022d0bf00e14f50004d013a008c
:10110000710107006e01370012002000000020006e
:1011100001172c00460507000001eb00000020002d
:101120000117240042050700b0c0b30008f0b70063
:101130006301370022d0bf00e14f50003f013a0069
:10114000610107005e013700120020006000b80056
:10115000370507000001eb000000200001172c00fc
:101160003305070010c1b30008f0b7005401370081
:1011700022d0bf00e14f500032013a005201070077
:101180004f013700120020000000200001172c0042
:10119000270507000001eb006000b80024050700e8
:1011a00030c1b30008f0b7004501370022d0bf00be
:1011b000e14f500025013a0043010700400137008c
:1011c000120020000000200001172c001805070065
:1011d0000001eb006000b8001505070030c1b30046
:1011e00008f0b7003601370022d0bf00e14f5000b1
:1011f00018013a00340107003101370012002000c5
:101200006000b8000a0507000001eb0000002000a4
:1012100001172c000605070050c1b30008f0b70005
:101220002701370022d0bf00e14f50000b013a00e8
:1012300025010700220137001200200000002000d5
:10124000811c2400fa0407000001eb0000002000cc
:1012500001172400f604070090c1b30008f0b7009e
:101260001701370022d0bf00e14f5000fd003a00c7
:1012700015010700120137001200200000002000b5
:1012800001172400ea0407000001eb000000200021
:10129000811c2400e6040700b0c1b30008f0b700c9
:1012a0000701370022d0bf00e14f5000ef003a00a5
:1012b0000501070002013700120020000000200095
:1012c000010a2400da0407000001eb0000002000fe
:1012d000811c2400d6040700f0c1b30008f0b70059
:1012e000f700370022d0bf00e14f5000e1003a0084
:1012f000f5000700f2003700120020000000200077
:10130000811c2400ca0407000001eb00000020003b
:10131000010a2400c6040700d0c1b30008f0b700da
:10132000e700370022d0bf00e14f5000d3003a0061
:10133000e5000700e2003700120020000000200056
:10134000811c2400ba0407000001eb00000020000b
:10135000011a2400b604070070c2b30008f0b700f9
:10136000d700370022d0bf00e14f5000c5003a003f
:10137000d5000700d2003700120020000000200036
:10138000011a2400aa0407000001eb00000020005d
:10139000811c2400a604070050c2b30008f0b70067
:1013a000c700370022d0bf00e14f5000b7003a001d
:1013b000c5000700c2003700120020000000200016
:1013c000011724009a0407000001eb000000200030
:1013d00001172c0096040700008080001180800017
:1013e0002080880031808800b0c2b30008f0b700c8
:1013f000b3003700028080001380800020808000ce
:10140000318080000001510081815900803e200020
:1014100001002000800f5100818f59009d0036008f
:1014200020c0b30008f0b700a5003700120020006c
:1014300000002000011724007d0407000001eb00dc
:101440000000200001172c007904070090c2b300af
:1014500008f0b7009a00370022d0bf00e14f5000db
:101460008e003a0098000700950037001200200017
:101470000000200001172c006d0407000001eb00a4
:1014800000002000011724006904070010c2b30007
:1014900008f0b7008a00370022d0bf00e14f5000ab
:1014a00080003a0088000700850037001200200005
:1014b00000002000011224005d0407000001eb0081
:1014c0000000200001122c00590407000080800059
:1014d00011808000208088003180880030c2b300f5
:1014e00008f0b7007600370002808000138080008b
:1014f00020808000318080000001510081815900ee
:10150000a009210001002000800f5100818f5900a7
:101510006600360020c0b30008f0b700680037004e
:10152000120020000000200001172c0040040700da
:101530000001eb0000002000011724003c0407001c
:101540000080800011808000208088003180880029
:10155000d0c2b30008f0b700590037000280800005
:1015600013808000208080003180800000015100c5
:1015700081815900401f200001002000800f510090
:10158000818f59004b00360020c0b30008f0b7002f
:101590004b0037001200200000002000011724003b
:1015a000230407000001eb000000200001172c00bd
:1015b0001f040700008080001180800020808800c8
:1015c00031808800f0c2b30008f0b7003c0037005b
:1015d00002808000138080002080800031808000a5
:1015e0000001510081815900401f200001002000ae
:1015f000800f5100818f59003000360020c0b300a9
:1016000008f0b7002e0037000870ef00000000005f
:101610002b00370000000000290037000000000008
:101620002700370000000000250037000000000000
:1016300023003700000000002100370000000000f8
:101640001f003700000000001d00370000000000f0
:101650001b003700000000001900370000000000e8
:1016600017003700000000001500370000000000e0
:1016700013003700000000001100370000000000d8
:101680000f003700000000000d00370000000000d0
:101690000b003700000000000900370000000000c8
:1016a00007003700000000000500370000000000c0
:1016b00003003700000000000100370000000000b8
:1016c0000080fa00000006000a00fa00881f780077
:1016d000308e8000418e800018c0b30002002000d0
:1016e00003122400e7fc07000000e00001003500c1
:1016f0000044eb000804e00013003200f48d800089
:10170000058e8000108e8000218e800018c0b300ee
:101710000001be000400be00dcfc07000000e00089
:1017200001003c000044eb000804e000030032002c
:10173000c0c2b3000af0b700fc003700e0c2b3003b
:101740000af0b700f9003700108e8000218e80006b
:1017500018c0b3000200200003102400c9fc0700d9
:101760000000e000010035000044eb000804e00048
:101770000300320000c2b3000af0b700eb003700ec
:10178000f08d8000018e800018c0b30002002000a0
:1017900003102400bbfc07000000e000010035003e
:1017a0000044eb000804e0000300320080c2b300f4
:1017b0000af0b700dd003700708e8000818e800057
:1017c00018c0b3000200200003102400adfc070085
:1017d0000000e000010035000044eb000804e000d8
:1017e0000300320000c2b3000af0b700cf00370098
:1017f000508e8000618e800018c0b300020020006f
:10180000031024009ffc07000000e00001003500e9
:101810000044eb000804e0000300320080c2b30083
:101820000af0b700c1003700eb00070009f0b7006d
:1018300009d0bf000080fb00cf80de00f201200055
:1018400003002000820f5000838f5800b7003e0035
:1018500000060100b20037001e00370023003700e9
:10186000280037005c0037002c00370030003700bc
:10187000350037002000370039003700ab00370053
:10188000aa0037002d0037004100370068003700fc
:1018900039003700120037007b0037003300370073
:1018a0004a003700200037005e0037003b00370059
:1018b0003d00370016003700410037009b0037001d
:1018c00084003700230037003a0037002d0037002e
:1018d0006a00370060c2b3000af0b7009300370017
:1018e00040c2b3000af0b7009000370080c1b300d7
:1018f0000af0b7008d003700a0c1b3000af0b700ae
:101900008a00370080c1b3000af0b70087003700b3
:10191000a0c1b3000af0b7008400370040c0b30094
:101920000af0b7008100370060c0b3000af0b700ca
:1019300040c0b3000af0b7007c00370060c0b300bd
:101940000af0b7007900370040c0b3000af0b700d2
:101950007600370060c0b3000af0b70073003700ac
:10196000c0c1b3000af0b70070003700e0c1b30097
:101970000af0b7006d003700c0c1b3000af0b7002d
:101980006a003700e0c1b3000af0b7006700370013
:10199000c0c1b3000af0b70064003700e0c1b30073
:1019a0000af0b70061003700a0c0b3000af0b7002a
:1019b0005e00370080c0b3000af0b7005b0037005c
:1019c000a0c0b3000af0b7005800370080c0b300d1
:1019d0000af0b70055003700f48d8000058e8000b6
:1019e000108e8000218e800018c0b3000001be0060
:1019f0000400be0025fc07000000e00001003c00e0
:101a00000044eb000804e00003003200c0c2b30051
:101a10000af0b70045003700e0c2b3000af0b70093
:101a200042003700a0c2b3000af0b7003f00370001
:101a3000548e8000658e8000708e8000818e8000c4
:101a400018c0b3000001be000400be000ffc070078
:101a50000000e00001003c000044eb000804e0004e
:101a600003003200c0c2b3000af0b7002f003700f5
:101a7000e0c2b3000af0b7002c003700a0c2b300e8
:101a80000af0b70029003700548e8000658e800070
:101a9000708e8000818e800018c0b3000001be00ef
:101aa0000400be00f9fb07000000e00001003c005c
:101ab0000044eb000804e00003003200a0c1b300c2
:101ac0000af0b7001900370080c1b3000af0b70070
:101ad00016003700548e8000658e8000708e800066
:101ae000818e800018c0b3000001be000400be005b
:101af000e6fb07000000e00001003c000044eb00b2
:101b00000804e00003003200a0c1b3000af0b700ef
:101b10000600370080c1b3000af0b70003003700a9
:101b200020c0b3000af0b700000000000ad0bf00d8
:101b30008080fb0008d0bf000080fb000000e900af
:101b4000808f5000210032000ad0bf0008f0b7009b
:101b50000280800013808000028fbe0008d0bf008a
:101b6000404798001e0078009e0090004808de0064
:101b700000407800504798001e0078009e009000ba
:101b80004008de0000407800604798001e007800a2
:101b90009e009000c809dd004800de000080710052
:101ba000c808de0000407800704798001e007800ea
:101bb00000407800004f9800640047000001780062
:101bc00051002000000520008f0107004f0478001d
:101bd0000080fa00000006000000fa00881f78006c
:101be0000970ef00708e8000818e800018c0b300f5
:101bf0000200200003122400a2fb07000000e00006
:101c0000010035000044eb000804e000030032004e
:101c100009d0bf000044a00009f0b700108e80007a
:101c2000218e800018c0b30002002000031724009a
:101c300094fb07000000e000010035000044eb00c9
:101c40000804e0000300320009d0bf000034a00007
:101c500009f0b700308e8000418e800018c0b300bc
:101c600002002000831c240086fb07000000e00027
:101c7000010035000044eb000804e00003003200de
:101c800009d0bf000024a00009f0b700f08d80004b
:101c9000018e800018c0b30002002000031724004a
:101ca00078fb07000000e000010035000044eb0075
:101cb0000804e0000300320009d0bf000014a000b7
:101cc00009f0b700508e8000618e800018c0b3000c
:101cd00002002000031224006afb07000000e0005d
:101ce000010035000044eb000804e000030032006e
:101cf00009d0bf000004a00009f0b70009d0bf0060
:101d00004f0478000080fa00000006000000fa008e
:101d100013e1a90011e1a9001061a8001021a90098
:101d200081088000f0fc2f0000806000800888009f
:101d30000a21ef000621ef0020262000700888000d
:101d400000a02500600888002142800080ff2f004d
:101d5000008060000000a000204288000108a90067
:101d60002108a80011e1a8000080fa000000060088
:101d70000000fa0005e1a9000421a9000068a900fb
:101d80002068a80005e1a80000002000a137240079
:101d90000d0007000080fa00000006000000fa00b5
:101da0001fe1a9001e21a9000368a9002368a8005b
:101db0001fe1a80000002000a147240076000700d2
:101dc0000080fa00000006000400fa00881f780076
:101dd000008fbe0021088000f0fc2f000080600012
:101de000200888001e0178009e01900000682900ec
:101df00081c12400e1fa070018c0b30002f02f00ef
:101e0000f377240021fb07000000e00001003c0004
:101e10000044eb000804e000540032002108800078
:101e2000f0fc2f00008060000040a0002008880027
:101e30001e0178009e0190000068290081c12400e5
:101e4000cefa07000200200003102400cbfa07009e
:101e500018c0b30002f02f00f37724000bfb07003b
:101e60000000e00001003c000044eb000804e0003a
:101e70003200320021088000f0fc2f00008060005a
:101e80000050a000200888001e0178009e019000ec
:101e90000068290081c12400b8fa07000200200070
:101ea00003282400b5fa070018c0b30002f02f0081
:101eb000f3772400f5fa07000000e00001003c0081
:101ec0000044eb000804e00010003200210880000c
:101ed0000003200001007000200888001e01780027
:101ee0009e0190000068290081c12400a3fa070028
:101ef0000200200003382400a0fa0700e5fa0700da
:101f00000000780010088800200037001e017800cb
:101f10009e0190000068290081c1240097fa070003
:101f2000020020000328240094fa0700d9fa0700d1
:101f30000000780010088800140037001e017800a7
:101f40009e0190000068290081c124008bfa0700df
:101f5000020020000310240088fa0700cdfa0700d1
:101f60000000780010088800080037001e01780083
:101f70009e0190000068290081c124007ffa0700bb
:101f8000c4fa070000007800100888004f047800a9
:101f90000080fa00000006000400fa00881f7800a4
:101fa000008fbe00f1088000f0fc2f000080600070
:101fb000f00888001e0178009e019000006829004a
:101fc00081c124006dfa070018c0b30002f02f0091
:101fd000f3772400adfa07000000e00001003c00a8
:101fe0000044eb000804e00054003200f1088000d7
:101ff000f0fc2f00008060000040a000f008880086
:102000001e0178009e0190000068290081c1240013
:102010005afa0700020020000310240057fa0700b4
:1020200018c0b30002f02f00f377240097fa0700de
:102030000000e00001003c000044eb000804e00068
:1020400032003200f1088000f0fc2f0000806000b8
:102050000050a000f00888001e0178009e0190004a
:102060000068290081c1240044fa07000200200012
:102070000328240041fa070018c0b30002f02f0023
:10208000f377240081fa07000000e00001003c0023
:102090000044eb000804e00010003200f10880006a
:1020a0000003200001007000f00888001e01780085
:1020b0009e0190000068290081c124002ffa0700ca
:1020c00002002000033824002cfa070071fa0700f0
:1020d00000007800d0088800200037001e0178003a
:1020e0009e0190000068290081c1240023fa0700a6
:1020f000020020000328240020fa070065fa0700e8
:1021000000007800d0088800140037001e01780015
:102110009e0190000068290081c1240017fa070081
:10212000020020000310240014fa070059fa0700e7
:1021300000007800d0088800080037001e017800f1
:102140009e0190000068290081c124000bfa07005d
:1021500050fa070000007800d00888004f0478008b
:102160000080fa00000006000a00fa00200798002c
:1021700031079800420798000040eb00004f7800bc
:10218000e0cfb3001e4f68002e0090004880de00b4
:10219000004078001e4f68002e009000004078003c
:1021a0001e4f68003e0090004880de00004078002e
:1021b0001e4f68003e009000004078001e4f6800ef
:1021c0000000eb0010079800080037001e00900088
:1021d000ce00900000804000104078001e4f680044
:1021e0001e0090000000e800100798009e0090007c
:1021f0003e009000808f5000f4ff35001e407800b4
:102200000080fa00000006000e00fa00889fbe0061
:102210004007980051079800620798000f04780063
:102220000f007800800478000000eb00000f7800b9
:102230005e009000660040008000e90021079800e1
:102240000000e8000000e8000000d100800040002d
:102250000f007800818747000000e8000000d100ef
:1022600000004000300798003e0090001e00400033
:10227000e1cfb300014878001e0fe8004e00900047
:102280004880de00804078003e0090001e00400044
:10229000014878001e0fe8004e0090008040780052
:1022a0003e0090001e004000014878001e0fe8002c
:1022b0005e0090004880de00804078003e00900084
:1022c0001e004000014878001e0fe8005e009000ec
:1022d000804078003e0090001e00400001487800d9
:1022e0001e0fe8000000eb00100798000000eb0054
:1022f000100798000b0037001e009000ee009000c1
:1023000000804000904078003e0090001e00400099
:10231000014878001e0fe8001e0090000000e80051
:10232000100798009e0090005e009000808f500083
:10233000f1ff35006e019000de0090004e0090002d
:1023400089ff0700be0090009e8040008048780012
:102350001e0fe8003e0090009e007800a7020700d4
:1023600089077800880778004f04be000080fa00d3
:10237000000006000200fa00004f78002081800073
:10238000e40f500023003200e40f500007003c002f
:10239000e20f500012003200e20f500016003c0025
:1023a000e10f50000800320054003700e60f5000e3
:1023b00033003200e60f50001c003500e70f5000dc
:1023c0003d0032004d0037001e407800e24f4000d3
:1023d0004e003a0020002000208188004e00370087
:1023e0001e80fb004800dd00608088003000200077
:1023f00020818800480037009e80fb0060808000bc
:10240000008040006080880040002000208188001b
:10241000410037001e80fb004800dd00708088000e
:1024200050002000208188003b0037009e80fb0088
:102430007080800000804000708088007080800084
:102440000000e00003003a007000200020818800b6
:102450003100370071808000f0072000808f50002d
:102460000300340010002000208188002a0037007b
:102470001030ef0060002000208188002600370027
:1024800080808000c1122100008040001e4878003a
:10249000808080000000e8008080880081808000cb
:1024a00070808000808f50001a003500700020007e
:1024b00020818800180037007180800060808000d3
:1024c000c212210028ff070012f0b70012d0bf008f
:1024d0009e4f500006003a007080800080407800d7
:1024e0006080800000407800c21221000c000700cc
:1024f0001000200020818800070037001000200015
:102500002081880000000000030037000000000068
:1025100001003700000000000080fa000000060003
:102520000400fa00004f7800114798001207980045
:102530001e80fb0011052000810f500004003200b6
:1025400021052000810f50000500320008003700ef
:102550001e009000104078000700070004003700bc
:102560001e009000104078000a00070000000000e4
:102570000080fa00000006000200fa00004f780018
:102580001e41780081002100824878000080fa0016
:10259000000006000200fa00004f78001e4078009c
:1025a0000004e00002003a002270ef000200370051
:1025b00010c0b30022f0b7000080fa00000006004f
:1025c0000000fa001160800080ff2f000080600092
:1025d0001060880000fa20002060880023aca8006a
:1025e000238ca80011618000f03f2f000080600064
:1025f00000a0a00010618800300020002061880049
:10260000c3aca800c38ca80011668000f03f2f0067
:102610000080600000a0a00010668800300020004c
:102620002066880001eca8000080fa000000060087
:102630000600fa00008fbe00220798002e009000ce
:102640000000e00005003a001e0178009e019000a5
:10265000728d8800838d8800070037002e0090005f
:10266000e10f500004003a001e0178009e01900026
:10267000b28d8800c38d88000080fa00000006003b
:102680000000fa00889fbe00d48d8000e58d800098
:10269000b08d8000c18d800018c0b3000001be0065
:1026a0000400be00f7f807000000e000010035005c
:1026b0000044eb000804e0000d003200b88d8000fb
:1026c000c98d8000d48d8000e58d8000d080800091
:1026d000e18080000001be000400be004af807004f
:1026e0000801be006c010700d08d8800e18d8800d4
:1026f000d48d8000e58d8000b08d8000c18d80007c
:1027000018c0b3000001be000400be00dff80700df
:102710000000e00001003c000044eb000804e00081
:102720000d003200b88d8000c98d8000d48d8000ee
:10273000e58d8000d0808000e18080000001be0037
:102740000400be002ff807000801be003a01070090
:10275000d08d8800e18d8800d08d8000e18d8000d3
:1027600018c0b3006011b800c8f807000000e0000e
:1027700001003c000044eb000804e00004003200cb
:10278000c3eca90024cea800c3cca80003003700e6
:10279000c3cca90024eea800c3eca800d08d800013
:1027a000e18d80000e0107000200200003222400ba
:1027b00049f90700d8f80700000078003066880063
:1027c000948d8000a58d8000708d8000818d8000ab
:1027d00018c0b3000001be000400be00a9f8070045
:1027e0000000e000010035000044eb000804e000b8
:1027f0000d003200788d8000898d8000948d8000de
:10280000a58d8000d0808000e18080000001be00a6
:102810000400be00fcf707000801be001e0107000f
:10282000908d8800a18d8800948d8000a58d8000fa
:10283000708d8000818d800018c0b3000001be0043
:102840000400be0091f807000000e00001003c0019
:102850000044eb000804e0000d003200788d800099
:10286000898d8000948d8000a58d8000d0808000af
:10287000e18080000001be000400be00e1f7070017
:102880000801be00ec000700908d8800a18d880033
:10289000908d8000a18d800018c0b3006011b80039
:1028a0007af807000000e00001003c000044eb0063
:1028b0000804e0000400320023cca90015eea800b3
:1028c00023eca8000300370023eca90015cea800d4
:1028d00023cca800908d8000a18d8000c00007004f
:1028e0000200200003222400fbf807008af80700fa
:1028f00000007800306188004f04be000080fa00bc
:10290000000006000e00fa00889fbe009402070037
:10291000be0207002f02070015fd0700fbfc0700a1
:102920001efd070026ff07009701070064cea800e0
:1029300064eea800254ea80001003700000000004a
:102940000000eb00000f780005003700eb010700e6
:10295000204798002e40900086fe07001e0fe800da
:10296000090207009e0f5000f8ff3c00c801070055
:10297000e14f5000f1ff3a00c9010700c001070014
:10298000200798002e00900068004000100078009a
:102990008000eb007bf8070032332300330524006e
:1029a000cdf807000200200003582400f3f70700c9
:1029b000d2cc2c00c3042400c7f8070030079800cd
:1029c000410798003e019000ce01900000002000d9
:1029d00081202400e9f7070002002000030a2400f8
:1029e00088f70700108e8800218e88002e00900046
:1029f00066004000100078008000eb0061f80700de
:102a00003233230033052400b3f80700020020000e
:102a100003582400d9f70700d2cc2c00c3042400ab
:102a2000adf8070030079800410798003e0190007c
:102a3000ce0190000000200081202400cff7070085
:102a400002002000030a24006ef70700708e880041
:102a5000818e88002e0090006400400010007800f5
:102a60008000eb0047f807003233230033052400d1
:102a700099f807000200200003582400bff7070060
:102a8000d2cc2c00c304240093f807003007980030
:102a9000410798003e019000ce0190000000200008
:102aa00081202400b5f7070002002000030a24005b
:102ab00054f70700308e8800418e88002e00900069
:102ac0000080e800100078008000eb002df807007f
:102ad00032332300330524007ff807000200200072
:102ae00003582400a5f70700d2cc2c00c30424000f
:102af00079f8070030079800410798003e019000e0
:102b0000ce01900000002000812024009bf70700e8
:102b100002002000030a24003af70700f08d880025
:102b2000018e88002e009000100078008000eb00dd
:102b300014f80700323323003305240066f8070039
:102b400002002000035824008cf70700d2cc2c0090
:102b5000c304240060f8070030079800410798007c
:102b60003e019000ce019000000020008120240052
:102b700082f7070002002000030a240021f7070063
:102b8000508e8800618e8800108e8000218e80001b
:102b9000e1f7070080447800308e8000418e80008d
:102ba000ddf7070000447800f08d8000018e800082
:102bb000d9f7070000407800294f9800384f980057
:102bc000404f98006a004700000178003100200063
:102bd000000320008cfd0700bdf8070058ff3700f8
:102be0000400fa00881f7800008fbe0018c0b300f0
:102bf0006011b8001e0078009e009000a3f7070047
:102c00000000e00001003d000044eb000804e0008b
:102c1000030032001e0078009e0090000300370081
:102c20001e0078009e00900001f0a2004f04780082
:102c30000080fa00000006000800fa00881f7800f3
:102c4000008fbe00220798003307980018c0b30019
:102c50002e019000be0190001e0078009e009000a2
:102c60008af707000000e00001003c000044eb0090
:102c70000804e000030032001e0078009e0090006f
:102c8000020037002e009000be0090004f04780034
:102c90000080fa00000006000800fa00881f780093
:102ca000008fbe00220798003307980018c0b300b9
:102cb0002e019000be0190001e0078009e00900042
:102cc00070f707000000e000010035000044eb0051
:102cd0000804e000030032001e0078009e0090000f
:102ce000020037002e009000be0090004f047800d4
:102cf0000080fa00000006000c00fa00881f78002f
:102d0000008fbe0022079800330798004407980000
:102d10005507980018c0b3004e019000de019000e6
:102d20001e0078009e00900058f707000000e000a9
:102d300001003c000044eb000804e0000400320005
:102d40004e019000de019000028fbe000e003700a1
:102d500018c0b3002e019000be0190001e00780044
:102d60009e00900047f707000000e00001003500da
:102d70000044eb000804e000030032002e01900044
:102d8000be019000028fbe001e0078009e009000e1
:102d90004f0478000080fa00000006000400fa00ea
:102da000008fbe00b2fd2000930424001e007800b6
:102db0009e009000f1f6070002002000433324003b
:102dc000c5f707000080fa00000006000400fa00c2
:102dd000008fbe00b2fd2000930424001e00780086
:102de0009e009000bcf7070002002000433324003f
:102df000e2f607000080fa00000006000600fa0074
:102e000010079800210798000040eb00004f780061
:102e100054000700ae009000810f500011003400f4
:102e20000040eb00004f7800060037001e80fb00da
:102e30009e00900000804000104078000b000700ca
:102e40001e4fe8009e80fb002e009000808f5000f7
:102e5000f6ff35002e0007000004e00001003a00f4
:102e6000220007000080fa00000006000200fa00bd
:102e7000004f7800a0808000c10221000080400047
:102e80001e487800a08080000000e800a080880034
:102e9000a1808000f0072000808f500001003400e6
:102ea0001430ef000080fa00000006000200fa0073
:102eb000b0808000c102210000804000104f7800e7
:102ec000b08080000000e800b0808800b180800001
:102ed000f0072000808f5000010034001630ef0012
:102ee0001e4078000080fa00000006000200fa0090
:102ef00010c0b30018f0b700ecff0700004f7800d7
:102f00001e80fb00201188000080fa0000000600ef
:102f10000000fa0018d0bf000080fa000000060090
:102f20000200fa00a1808000b0808000808f5000f5
:102f300004003500a1808000b0808000008f500028
:102f400005003700a1808000b08080000080500024
:102f500001082000010f40001e0078000080fa00e8
:102f6000000006000200fa000000eb00000f7800ed
:102f7000ebff070001082000008f50001e007800c2
:102f80000080fa00000006000000fa0021e3a9001a
:102f90002143a80001198000f0cf2f0000806000bd
:102fa000001988002043a90001198000000e2000ac
:102fb000010070000019880011198000f0ff210045
:102fc00000806000101988002343a80011198000b8
:102fd000f0cf2f00008060001019880011198000c8
:102fe00030f82f00008060000040a0001019880019
:102ff0002203a9002223a90025e3a900f0c0b30001
:1030000024e3b70021198000f00f2e0080806000bb
:1030100000f0200001007000201988003303a9008f
:103020002e0ea8002f6ea8006f2ea8001e2ea8003e
:103030004feea8003063a80030c3a8003163a80099
:1030400031e3a8002e03a8004119800000fc2f00e6
:10305000008060004019880028e3a90001a8a900a9
:1030600021a8a80021e3a8000080fa0000000600c3
:103070000000fa002023a8000080fa0000000600eb
:103080000000fa00201d21000080fa000000060068
:103090000000fa002bd0bf000080fa0000000600fc
:1030a0000000fa002b70ef000080fa00000006001c
:1030b0000200fa00004f78002a0007000000e0003c
:1030c0000c003400f0808000c10a21000080400024
:1030d0001e487800f08080000000e800f080880042
:1030e000f180800000082000808f50000100340033
:1030f0001e30ef000080fa00000006000200fa0017
:1031000000818000c10a210000804000104f78003b
:10311000008180000000e8000081880001818000bb
:1031200000082000808f5000010034002030ef00a4
:103130001e4078000080fa00000006000000fa003f
:10314000f180800000818000808f500002003200fa
:1031500010c0b300010037000040eb000080fa000f
:10316000000006000200fa000000eb00000f7800eb
:103170000500070001082000008f50001e007800a5
:103180000080fa00000006000200fa000000eb00d8
:10319000000f7800f180800000818000808f500057
:1031a00004003500f180800000818000008f500015
:1031b00005003700f1808000008180000080500011
:1031c00001082000010f40001e0078000080fa0076
:1031d000000006000000fa002002a9000111800092
:1031e00090ff2f00008060000011880020a2a9003d
:1031f0002062a800500520004011880023a2a900e9
:1032000023e2a9000188a9002188a80011118000eb
:10321000f0f32f0000806000101188000168a90001
:103220002168a80021e2a8002342a8000080fa003b
:10323000000006000600fa00100798002107980019
:103240000040eb00004f78000040eb00004f78009a
:103250000e00370000000000111180000020200047
:10326000008060000000e000fbff3a001e009000bc
:10327000104078000080fb00201188001e009000a4
:103280000000e800100798001e4fe8009e80fb0039
:103290002e009000808f5000eeff35000080fa0075
:0432a0000000060024
:020000040000fa
:1032a400261000000200000080000000281000002a
:1032b40002000000800000001a100000040000005a
:1032c400820000000000480042000000ac11000031
:1032d4002600000080000000d21100000a00000057
:1032e400800000002a10000002000000800000009e
:1032f400001000000c000000800000002c100000f2
:10330400800000008000000014100000060000008f
:1033140080000000ac10000080000000800000006d
:103324001e10000004000000800000002c110000aa
:103334008000000080000000221000000400000053
:103344008200000001000100000000000c100000d9
:0c335400080000008000000000000000e5
:020000040000fa
:103360000000fa00f0032000303a8800213a800083
:10337000f0f32f0000806000203a8800213a80009e
:1033800000fe2f00008060000000a000203a8800ae
:103390001200200080072000a109200033742000c3
:1033a000804978008149780082497800103a80008d
:1033b000000178000200a0006004200071052000d8
:1033c0002374200080497800814978008249780080
:1033d00000000000113a800000002700808060009b
:1033e00000002100808f5000faff3a00000000002a
:1033f000113a800000022000008060000000e00020
:10340000fbff32000080fa00000006000000fa0016
:103410000e2eef001e2eef002e2eef003e2eef00a0
:103420004e2eef005e2eef006e2eef00214ea90013
:1034300060cea90060eea90011cea90011eea9008e
:1034400020cea90020eea9002136800000f82f0030
:10345000008060008001b3002036880011348000b5
:1034600000fc2f00008060000000a00010348800e5
:083470000080fa0000000600d4
:020000040000fa
:02000004000af0
:04afe000cfff00009f
:020000040000fa
:02000004000af0
:04afe400ffff00006b
:020000040000fa
:02000004000af0
:04afe8007fff0000e7
:020000040000fa
:02000004000af0
:04afec005fff000003
:020000040000fa
:02000004000af0
:04aff00038ff000026
:020000040000fa
:02000004000af0
:04aff400ffff00005b
:00000001FF
