:020000040000fa
:080000000002040000000000f2
:020000040000fa
:040008009a03000057
:020000040000fa
:04000c009a03000053
:020000040000fa
:040010009a0300004f
:020000040000fa
:040014009a0300004b
:020000040000fa
:040018009a03000047
:020000040000fa
:04001c009a03000043
:020000040000fa
:040020009a0300003f
:020000040000fa
:040024009a0300003b
:020000040000fa
:040028009a03000037
:020000040000fa
:04002c009a03000033
:020000040000fa
:040030009a0300002f
:020000040000fa
:0400340002030000c3
:020000040000fa
:040038009a03000027
:020000040000fa
:04003c009a03000023
:020000040000fa
:040040009a0300001f
:020000040000fa
:040044009a0300001b
:020000040000fa
:04004800fa020000b8
:020000040000fa
:04004c009a03000013
:020000040000fa
:040050009a0300000f
:020000040000fa
:040054009a0300000b
:020000040000fa
:040058009a03000007
:020000040000fa
:04005c006c03000031
:020000040000fa
:040060009a030000ff
:020000040000fa
:040064009a030000fb
:020000040000fa
:040068009a030000f7
:020000040000fa
:04006c009a030000f3
:020000040000fa
:040070009a030000ef
:020000040000fa
:040074009a030000eb
:020000040000fa
:040078009a030000e7
:020000040000fa
:04007c009a030000e3
:020000040000fa
:040080009a030000df
:020000040000fa
:040084009a030000db
:020000040000fa
:040088009a030000d7
:020000040000fa
:04008c009a030000d3
:020000040000fa
:040090009a030000cf
:020000040000fa
:040094002203000043
:020000040000fa
:040098009a030000c7
:020000040000fa
:04009c009a030000c3
:020000040000fa
:0400a0009a030000bf
:020000040000fa
:0400a4009a030000bb
:020000040000fa
:0400a8009a030000b7
:020000040000fa
:0400ac009a030000b3
:020000040000fa
:0400b0009a030000af
:020000040000fa
:0400b4009a030000ab
:020000040000fa
:0400b8009a030000a7
:020000040000fa
:0400bc009a030000a3
:020000040000fa
:0400c0009a0300009f
:020000040000fa
:0400c4009a0300009b
:020000040000fa
:0400c8009a03000097
:020000040000fa
:0400cc009a03000093
:020000040000fa
:0400d0009a0300008f
:020000040000fa
:0400d4009a0300008b
:020000040000fa
:0400d8009a03000087
:020000040000fa
:0400dc009a03000083
:020000040000fa
:0400e0009a0300007f
:020000040000fa
:0400e4009a0300007b
:020000040000fa
:0400e8009a03000077
:020000040000fa
:0400ec009a03000073
:020000040000fa
:0400f0009a0300006f
:020000040000fa
:0400f4009a0300006b
:020000040000fa
:0400f8009a03000067
:020000040000fa
:0400fc009a03000063
:020000040000fa
:040100009a0300005e
:020000040000fa
:040104009a0300005a
:020000040000fa
:040108009a03000056
:020000040000fa
:04010c009a03000052
:020000040000fa
:040110009a0300004e
:020000040000fa
:040114009a0300004a
:020000040000fa
:040118009a03000046
:020000040000fa
:04011c009a03000042
:020000040000fa
:040120009a0300003e
:020000040000fa
:040124009a0300003a
:020000040000fa
:040128009a03000036
:020000040000fa
:04012c009a03000032
:020000040000fa
:040130009a0300002e
:020000040000fa
:040134009a0300002a
:020000040000fa
:040138009a03000026
:020000040000fa
:04013c009a03000022
:020000040000fa
:040140009a0300001e
:020000040000fa
:040144009a0300001a
:020000040000fa
:040148009a03000016
:020000040000fa
:04014c009a03000012
:020000040000fa
:040150009a0300000e
:020000040000fa
:040154009a0300000a
:020000040000fa
:040158009a03000006
:020000040000fa
:04015c009a03000002
:020000040000fa
:040160009a030000fe
:020000040000fa
:040164009a030000fa
:020000040000fa
:040168009a030000f6
:020000040000fa
:04016c009a030000f2
:020000040000fa
:040170009a030000ee
:020000040000fa
:040174009a030000ea
:020000040000fa
:040178009a030000e6
:020000040000fa
:04017c009a030000e2
:020000040000fa
:040180009a030000de
:020000040000fa
:040184009a030000da
:020000040000fa
:040188009a030000d6
:020000040000fa
:04018c009a030000d2
:020000040000fa
:040190009a030000ce
:020000040000fa
:040194009a030000ca
:020000040000fa
:040198009a030000c6
:020000040000fa
:04019c009a030000c2
:020000040000fa
:0401a0009a030000be
:020000040000fa
:0401a4009a030000ba
:020000040000fa
:0401a8009a030000b6
:020000040000fa
:0401ac009a030000b2
:020000040000fa
:0401b0009a030000ae
:020000040000fa
:0401b4009a030000aa
:020000040000fa
:0401b8009a030000a6
:020000040000fa
:0401bc009a030000a2
:020000040000fa
:0401c0009a0300009e
:020000040000fa
:0401c4009a0300009a
:020000040000fa
:0401c8009a03000096
:020000040000fa
:0401cc009a03000092
:020000040000fa
:0401d0009a0300008e
:020000040000fa
:0401d4009a0300008a
:020000040000fa
:0401d8009a03000086
:020000040000fa
:0401dc009a03000082
:020000040000fa
:0401e0009a0300007e
:020000040000fa
:0401e4009a0300007a
:020000040000fa
:0401e8009a03000076
:020000040000fa
:0401ec009a03000072
:020000040000fa
:0401f0009a0300006e
:020000040000fa
:0401f4009a0300006a
:020000040000fa
:0401f8009a03000066
:020000040000fa
:0401fc009a03000062
:020000040000fa
:040200009a0300005d
:020000040000fa
:040204009a03000059
:020000040000fa
:040208009a03000055
:020000040000fa
:04020c009a03000051
:020000040000fa
:040210009a0300004d
:020000040000fa
:040214009a03000049
:020000040000fa
:040218009a03000045
:020000040000fa
:04021c009a03000041
:020000040000fa
:040220009a0300003d
:020000040000fa
:040224009a03000039
:020000040000fa
:040228009a03000035
:020000040000fa
:04022c009a03000031
:020000040000fa
:040230009a0300002d
:020000040000fa
:040234009a03000029
:020000040000fa
:040238009a03000025
:020000040000fa
:04023c009a03000021
:020000040000fa
:040240009a0300001d
:020000040000fa
:040244009a03000019
:020000040000fa
:040248009a03000015
:020000040000fa
:04024c009a03000011
:020000040000fa
:040250009a0300000d
:020000040000fa
:040254009a03000009
:020000040000fa
:040258009a03000005
:020000040000fa
:04025c009a03000001
:020000040000fa
:040260009a030000fd
:020000040000fa
:040264009a030000f9
:020000040000fa
:040268009a030000f5
:020000040000fa
:04026c009a030000f1
:020000040000fa
:040270009a030000ed
:020000040000fa
:040274009a030000e9
:020000040000fa
:040278009a030000e5
:020000040000fa
:04027c009a030000e1
:020000040000fa
:040280009a030000dd
:020000040000fa
:100400000f0421000eff2c000e01880000000000e8
:10041000000020000000e000020032000001200087
:100420002002880014000700c40007000000e0005c
:1004300003003a00202421000100200002003700c0
:100440000000200001002000810f70000100320038
:100450000f000700000020000000e0000200320052
:100460000000020000000000fc0c02000000000080
:100470000040da000000fe00200020000000e00044
:1004800002003200100020009001880000000600e9
:10049000a1028800800478000000eb001f003700f4
:1004a000e284440054a0b4009905ba00e2844400f8
:1004b00054a0b4009906ba00e284440054a0b400e9
:1004c0000006eb00476fde00fd07b200ae018800ba
:1004d000636ce10003003a000ad801000000eb0061
:1004e0000e003700606ce10008003a00004deb00a0
:1004f0000a05e800020039003420ec000af0a000f0
:100500008b05e900f9ff3e00040037006168e10057
:10051000010032000086eb000b00070019c7ba008b
:100520000e04e0001905ba0003003a000a00e000da
:10053000dbff3a0000000600fe07b200ae028800b2
:100540008a047800f5ff37000cd0a300e20f4d00bd
:100550001c00390089027800354dba000a05e80010
:10056000020039003420ec000af0a0008b05e900fd
:100570000f003200254dba000a05e80002003900dc
:100580003420ec000af0a0008b05e90008003200de
:100590000c00e0000600320015cdba000a05e800a4
:1005a000020039003420ec000af0a0008b05e900bd
:1005b0008984e80054a0b4000b00e000e2ff3a0098
:1005c000000006009902ba00055d78008b05e9007d
:1005d000f7ff3200c82ade00055d78008b05e900d0
:1005e000f3ff32000c00e000f1ff320019ddba0029
:1005f000eeff37000000fa000108a9000080fa00b1
:10060000004006003600f800809fbe00829fbe00ba
:10061000849fbe00869fbe000000fa000068a9000b
:10062000fb0507005c0707000080fa004f03be00cf
:100630004f02be004f01be004f00be003600f90061
:10064000004006003600f800809fbe00829fbe007a
:10065000849fbe00869fbe000000fa000368a900c8
:1006600021738000000820000080600000f0a700d7
:100670000000ea000000e9004f00de0000407800c2
:100680000080fb00610060004700dd0021738000f6
:100690000170a1000100700020738800608080005c
:1006a0007180800061004000e08048006080880028
:1006b00071808800d5010700210207000080fa0040
:1006c0004f03be004f02be004f01be004f00be00f0
:1006d0003600f90000400600809fbe000000fa00ce
:1006e00001a8a9000118800020002100010878005d
:1006f00011188000200021001100980021188000ae
:1007000020002100210098003118800020002100e5
:10071000310098004118800020002100410098001d
:1007200010c0b3000af0b7000080fa004f00be000e
:10073000004006000040da000000fe000000050056
:1007400003f0a200889fbe008a9fbe008c1f780025
:10075000180107001f0133006450e1004f00320010
:100760006420e1005200320003826c0007003b006d
:100770000905d0000306d000820f54000c065d006e
:100780000200390002003200890178000306780077
:100790008582550004003d000003fd008103fd003b
:1007a0008502ea008b854200840f720002003b0044
:1007b00060001000e08018006011b8000005eb0038
:1007c0007a28e1000a00390006007800c75ddd00e4
:1007d000f707b200878075002d0037008281710015
:1007e0000a017800610560008180d1000080d3009b
:1007f0008502e900f9ff3b000604400087844800b9
:1008000002003b0060041400e0841c000988a3007f
:10081000070032008a8171008281710061016400e9
:100820008904d1000884d3008b05e8001700370045
:100830000978a30013003a000b00e0001300340015
:100840008b05e9000804440089844c000a447400c4
:100850000978a3000d003a000b00e0000700340007
:100860008b05e9000804440089844c0001003a002b
:100870000b0020000978a300f7ff32000001eb0015
:1008800002003700828171000a0178008e000700a3
:100890000cf0a70001f0a000d70037006420e100b1
:1008a00002003a00838f6c00d70033000801be00bd
:1008b0000200be00d0003700889fbe008a9fbe00a5
:1008c0008c1f7800bb000700c200330003866c0059
:1008d0006450e1002e0032006420e1003300320059
:1008e0006150e1002f0032006120e1003100320050
:1008f00085855500eb07b0000900200008042000a2
:10090000050037000804440089844c000a003100c7
:100910000603430087834b000001530081815b0085
:10092000f8ff33000203be000800a00008044400e2
:1009300089844c00f6ff3900c639dd00830173005d
:1009400001003200130020008904d1000884d30084
:100950000998a300050032000800a7000300a000ca
:100960008904d1000884d3008b05e8008904d100f4
:100970000884d3000001eb000281d200520007007e
:1009800001f0a1000cf0a70001f0a0009a003700d0
:100990006420e1009c0032000801be000200be009d
:1009a000f7ff37006120e100970032006000b800d7
:1009b000f3ff37000000200001f82700f0ff3700a8
:1009c00014002000c7003700f4ff2f00c5003700d7
:1009d0000001be00620007000470a70003f0a10040
:1009e0006509b100160032000d0035006828e100ed
:1009f00006003500f0ff2f00f1ff27000300e000a4
:100a000013003b000100280000000500000040002a
:100a1000818048008502e900fcff3a0008003700a9
:100a2000f88f420002003c008000eb00000005004f
:100a30008100d1000080d3008502e800fcff3a006d
:100a40000300e00002003b0060001000e08018009e
:100a5000000006000001be00410007000470a7006e
:100a600003f0a10003f8a30013003a006509b100e8
:100a700010003200090035006928e100020035004d
:100a800001002800000005000000400081804800af
:100a90008502e900fcff3a0000000600f88f4200e2
:100aa000050035008100d1000080d3008502e800f8
:100ab000fcff3a00000006008000eb00000005008b
:100ac0006011b800a200370081002000618055004d
:100ad0000b003d000b00200061fe2f000100e10033
:100ae0001d00340082817100610164008904d1001d
:100af0000884d3000000e800faff3a0071002000eb
:100b00006100640003007000020060000900320010
:100b100061044400e0844c000988a500050032000f
:100b20008b05e8006808e10002003a008904d10062
:100b30000884d300f20f20000258e10005003d00b8
:100b4000c75ddd00f907b2008980750008007800f4
:100b5000000006000bf827008b007800000005005d
:100b6000c70ade00f107b200f50fb200080032003c
:100b7000e1cf4200020032000170a0002400050015
:100b8000810f7000010032000408050044000500d8
:100b9000810f700002003a00140005008502e90090
:100ba0000000400081c04800fcff3b000170a00035
:100bb000240005000004be00e9ff07000003be009a
:100bc0000405be000200be00e5ff0700844f75006b
:100bd000000006000200be006450e100050036007f
:100be0006420e100020036000968a30001003a0019
:100bf0000800be000160a0004f0678004f05be004f
:100c00004f04be0000000600f0ff2f00f1ff270098
:100c1000f9ff3700889fbe008a9fbe008c1f7800b6
:100c2000e4ff0700ebff330003866c006450e10033
:100c3000240032006420e100270032006150e1000e
:100c4000220032006120e100210032008b85420049
:100c5000eb07b1000134b800003ab80008044200c4
:100c600089844a00013ab8000030b800888040000a
:100c700009014a0004003300000040008180480060
:100c8000020149008b05e900c909dd0083017000fc
:100c90000100320013002000c814de004814dd00fb
:100ca0004709de001200b200c808de0008847000a8
:100cb00085ff070001f0a1000cf0a70001f0a000e3
:100cc000cdff37006120e100cfff32000801be00f8
:100cd0000200be00f7ff37006150e100fcff3a0060
:100ce000c9ff3700889fbe008a9fbe00841f78001e
:100cf000b0ff07004f00780011003300f0ff2f0015
:100d0000838f6c0006003b00040565000a00a70005
:100d10000800370009f0a600100020000800370086
:100d2000820f5400838f5c00030039001000200004
:100d300001003e000000200009f0a7000000ea00ca
:100d40004f05be004f04be000000e000000006009a
:100d5000889fbe008a9fbe0000827000040271005e
:100d600004827100260032000004be000200be00b2
:100d70006011b8006b092000950220000182cf00ad
:100d80000a0039000541b1000082cf000700390098
:100d90000541b1000982cf00040039000541b100ce
:100da0000882cf00010039000541b1000542520020
:100db000120032000a003b00828171006101640070
:100dc0008100d1000080d3008984d3000884d3003f
:100dd0008b05e8000442e800f7ff3a0007003700ff
:100de0000804440089844c000000480081804800c9
:100df0008b05e9000442e900f9ff3a0032ff0700e1
:0c0e00004f05be004f04be0000000600bd
:020000040000fa
:100e0c000000fa00881f78001170ef00e08180006c
:100e1c00f181800018c0b30002002000031f2400e1
:100e2c00e4fe07000000e000010035000044eb0088
:100e3c000804e0000300320011d0bf000044a00001
:100e4c0011f0b700808180009181800018c0b30040
:100e5c000200200003222400d6fe07000000e00060
:100e6c00010035000044eb000804e00003003200f0
:100e7c0011d0bf000034a00011f0b700a081800099
:100e8c00b181800018c0b30002002000c3202400f0
:100e9c00c8fe07000000e000010035000044eb0034
:100eac000804e0000300320011d0bf000024a000b1
:100ebc0011f0b700608180007181800018c0b30010
:100ecc000200200003222400bafe07000000e0000c
:100edc00010035000044eb000804e0000300320080
:100eec0011d0bf000014a00011f0b700c081800029
:100efc00d181800018c0b30002002000031f240021
:100f0c00acfe07000000e000010035000044eb00df
:100f1c000804e0000300320011d0bf000004a00060
:100f2c0011f0b70011d0bf004f0478000080fa0018
:100f3c00000006000000fa00881f780011d0bf00e6
:100f4c000080fb00cf80de00f201200003002000b7
:100f5c00820f5000838f58008a013e00000601006a
:100f6c007f0137001e0037002f003700400037008c
:100f7c0084013700500037006000370071003700e3
:100f8c0032003700810037007e0137007d013700c9
:100f9c0063003700a1003700f50037008d003700e3
:100fac00180037003001370081003700c8003700c7
:100fbc004a003700cf003700a1003700a9003700e6
:100fcc0034003700b90037006e0137004501370097
:100fdc0065003700ac00370087003700030137008d
:100fec001200200000002000011f240071030700e4
:100ffc000001eb0000002000011a24006d03070023
:10100c00600137001200200000002000011a2400ab
:10101c00680307000001eb0000002000011f240002
:10102c006403070057013700120020000000200065
:10103c00011f24005f0307000001eb0000002000eb
:10104c00011724005b0307004e013700120020003b
:10105c000000200001172400560307000001eb00dc
:10106c0000002000011f2400520307004501370037
:10107c001200200000002000011f24004d03070077
:10108c000001eb0000002000011a240049030700b6
:10109c003c0137001200200000002000011a24003f
:1010ac00440307000001eb0000002000011f240096
:1010bc00400307003301370012002000000020001d
:1010cc00011224003b0307000001eb00000020008c
:1010dc0001122c00370307002a01370012002000f0
:1010ec000000200001122c00320307000001eb006d
:1010fc0000002000011224002e0307001200200023
:10110c0000002000011f24002a0307000001eb004f
:10111c0000002000010a24002603070019013700f3
:10112c001200200000002000010a24002103070007
:10113c000001eb0000002000011f24001d0307002c
:10114c0010013700120020000000200001122400c2
:10115c00180307000001eb000000200001122c0016
:10116c0014030700070137001200200000002000c4
:10117c0001122c000f0307000001eb0000002000ff
:10118c00011224000b030700fe00370012002000a0
:10119c0000002000811c2400060307000001eb0066
:1011ac0000002000011f240002030700f500370097
:1011bc001200200000002000011f2400fd02070087
:1011cc000001eb0000002000811c2400f902070044
:1011dc00ec0037001200200000002000011a2c0047
:1011ec00f40207000001eb0000002000011a2400ab
:1011fc00f0020700e300370012002000000020007e
:10120c00011a2400eb0207000001eb000000200093
:10121c00011a2c00e7020700da0037001200200048
:10122c000000200001122400e20207000001eb0084
:10123c000000200001122c00de020700d100370054
:10124c00120020000000200001122c00d90207001f
:10125c000001eb000000200001122400d502070061
:10126c00c8003700120020000000200001172400e5
:10127c00d00207000001eb000000200001172c0039
:10128c00cc020700bf003700120020000000200035
:10129c0001172c00c70207000001eb000000200022
:1012ac0001172400c3020700b6003700120020000b
:1012bc0000002000811c2400be0207000001eb008e
:1012cc0000002000011f2400ba020700ad00370007
:1012dc001200200000002000011f2400b5020700ae
:1012ec000001eb0000002000811c2400b10207006b
:1012fc00a4003700c4818000d5818000e08180008b
:10130c00f181800018c0b3000001be000400be00d3
:10131c00aafd07000000e00001003c000044eb00c7
:10132c000804e00009003200120020000000200038
:10133c0001122c009f0207000001eb0000002000ae
:10134c00011224009b0207008e00370012002000bf
:10135c000000200001122400960207000001eb009f
:10136c000000200001122c009202070085003700bb
:10137c00c4818000d5818000e0818000f1818000f3
:10138c0018c0b3000001be000400be008bfd0700b6
:10139c000000e00001003c000044eb000804e00009
:1013ac0009003200120020000000200001122c0065
:1013bc00800207000001eb00000020000112240055
:1013cc007c0207006f003700120020000000200094
:1013dc0001122c00770207000001eb000000200036
:1013ec0001122c0073020700660037006481800034
:1013fc0075818000808180009181800018c0b300cd
:10140c000001be000400be006cfd07000000e000ff
:10141c0001003c000044eb000804e000090032002d
:10142c0012002000000020000112240061020700bd
:10143c000001eb0000002000011a24005d020700ef
:10144c00500037001200200000002000011a240078
:10145c00580207000001eb000000200001122400dc
:10146c005402070047003700c4818000d5818000fa
:10147c00e0818000f181800018c0b3000001be0043
:10148c000400be004dfd07000000e00001003c0020
:10149c000044eb000804e0000900320012002000b8
:1014ac000000200001192400420207000001eb009b
:1014bc0000002000011a24003e0207003100370012
:1014cc001200200000002000011a2400390207003d
:1014dc000001eb0000002000011924003502070078
:1014ec002800370064818000758180008081800035
:1014fc009181800018c0b3000001be000400be0042
:10150c002efd07000000e00001003c000044eb0051
:10151c000804e00009003200120020000000200046
:10152c0001192400230207000001eb000000200039
:10153c00011a24001f0207001200370012002000bd
:10154c0000002000011a24001a0207000001eb0021
:10155c0000002000011924001602070009003700c2
:10156c001200200000002000811c24001102070042
:10157c000001eb0000002000811c24000d0207007c
:10158c00000000004f0478000080fa000000060004
:10159c000000fa0013e1a90011e1a9001061a800f4
:1015ac001021a90081088000f0fc2f000080600051
:1015bc00800888000a21ef000621ef002026200079
:1015cc007008880000a02500600888002142800077
:1015dc0080ff2f00008060000000a00020428800e7
:1015ec000108a9002108a80011e1a8000080fa0058
:1015fc00000006000000fa0005e1a9000421a90082
:10160c000068a9002068a80005e1a80000002000df
:10161c00a13724000d0007000080fa00000006002e
:10162c000000fa001fe1a9001e21a9000368a9000f
:10163c002368a8001fe1a80000002000a147240097
:10164c00760007000080fa00000006000400fa0093
:10165c00881f7800008fbe0021088000f0fc2f004e
:10166c0000806000200888001e0178009e01900018
:10167c000068290081c124008cfc070018c0b3004d
:10168c0002f02f00f3772400ccfc07000000e000f0
:10169c0001003c000044eb000804e0005400320060
:1016ac0021088000f0fc2f00008060000040a000aa
:1016bc00200888001e0178009e0190000068290017
:1016cc0081c1240079fc07000200200003102400d3
:1016dc0076fc070018c0b30002f02f00f37724004b
:1016ec00b6fc07000000e00001003c000044eb00e9
:1016fc000804e0003200320021088000f0fc2f00ca
:10170c00008060000050a000200888001e017800b6
:10171c009e0190000068290081c1240063fc070031
:10172c00020020000328240060fc070018c0b3004e
:10173c0002f02f00f3772400a0fc07000000e0006b
:10174c0001003c000044eb000804e00010003200f3
:10175c002108800000032000010070002008880090
:10176c001e0178009e0190000068290081c12400b0
:10177c004efc070002002000033824004bfc07003d
:10178c0090fc07000000780010088800200037004b
:10179c001e0178009e0190000068290081c1240080
:1017ac0042fc070002002000032824003ffc070035
:1017bc0084fc070000007800100888001400370033
:1017cc001e0178009e0190000068290081c1240050
:1017dc0036fc0700020020000310240033fc070035
:1017ec0078fc07000000780010088800080037001b
:1017fc001e0178009e0190000068290081c1240020
:10180c002afc07006ffc0700000078001008880015
:10181c004f0478000080fa00000006000400fa0073
:10182c00881f7800008fbe00f1088000f0fc2f00ac
:10183c0000806000f00888001e0178009e01900076
:10184c000068290081c1240018fc070018c0b300ef
:10185c0002f02f00f377240058fc07000000e00092
:10186c0001003c000044eb000804e000540032008e
:10187c00f1088000f0fc2f00008060000040a00008
:10188c00f00888001e0178009e0190000068290075
:10189c0081c1240005fc0700020020000310240075
:1018ac0002fc070018c0b30002f02f00f3772400ed
:1018bc0042fc07000000e00001003c000044eb008b
:1018cc000804e00032003200f1088000f0fc2f0028
:1018dc00008060000050a000f00888001e01780015
:1018ec009e0190000068290081c12400effb0700d5
:1018fc000200200003282400ecfb070018c0b300f2
:10190c0002f02f00f37724002cfc07000000e0000d
:10191c0001003c000044eb000804e0001000320021
:10192c00f10880000003200001007000f00888001e
:10193c001e0178009e0190000068290081c12400de
:10194c00dafb07000200200003382400d7fb070055
:10195c001cfc070000007800d0088800200037002d
:10196c001e0178009e0190000068290081c12400ae
:10197c00cefb07000200200003282400cbfb07004d
:10198c0010fc070000007800d00888001400370015
:10199c001e0178009e0190000068290081c124007e
:1019ac00c2fb07000200200003102400bffb07004d
:1019bc0004fc070000007800d008880008003700fd
:1019cc001e0178009e0190000068290081c124004e
:1019dc00b6fb0700fbfb070000007800d00888006e
:1019ec004f0478000080fa00000006000600fa00a0
:1019fc00881f780075020700b4020700fdfe07007f
:101a0c00e3fe070006ff0700ce00070025020700d3
:101a1c0064cea80064eea800254ea800f8fc0700d0
:101a2c00010037000000000060020700e14f500089
:101a3c00fcff3a006102070058020700000f780013
:101a4c009e00780068804000100078008000eb0059
:101a5c0018fc070032332300330524006afc07000e
:101a6c00020020000358240090fb0700d2cc2c006d
:101a7c00c304240064fc0700100798002107980099
:101a8c001e019000ae019000000020008120240077
:101a9c0086fb070002002000030a240025fb070038
:101aac0080818800918188009e00780066804000cb
:101abc00100078008000eb00fefb0700323323009f
:101acc003305240050fc07000200200003582400ba
:101adc0076fb0700d2cc2c00c30424004afc070080
:101aec0010079800210798001e019000ae0190008d
:101afc0000002000812024006cfb07000200200065
:101b0c00030a24000bfb0700e0818800f1818800a8
:101b1c009e00780064804000100078008000eb008c
:101b2c00e4fb0700323323003305240036fc0700a6
:101b3c0002002000035824005cfb0700d2cc2c00d0
:101b4c00c304240030fc07001007980021079800fc
:101b5c001e019000ae0190000000200081202400a6
:101b6c0052fb070002002000030a2400f1fa0700d0
:101b7c00a0818800b18188001e80e80010007800e8
:101b8c008000eb00cbfb070032332300330524002d
:101b9c001dfc0700020020000358240043fb070033
:101bac00d2cc2c00c304240017fc070010079800ab
:101bbc00210798001e019000ae019000000020004b
:101bcc008120240039fb070002002000030a2400b6
:101bdc00d8fa070060818800718188001e007800a7
:101bec00100078008000eb00b2fb070032332300ba
:101bfc003305240004fc07000200200003582400d5
:101c0c002afb0700d2cc2c00c3042400fefb0700e7
:101c1c0010079800210798001e019000ae0190005b
:101c2c00000020008120240020fb0700020020007f
:101c3c00030a2400bffa0700c0818800d181880004
:101c4c00c0818000d181800018c0b3000200200048
:101c5c00031f240057fb07000000e00001003500c3
:101c6c000044eb000804e0000b003a0060818000a7
:101c7c007181800018c0b30002002000031f2400f3
:101c8c004cfb07000000e000010035000044eb00b5
:101c9c000804e00002003200254ea80001003700c5
:101cac00254ea900a0818000b181800018c0b3002e
:101cbc0002002000031f24003efb07000000e00090
:101ccc00010035000044eb000804e0000200320083
:101cdc0064eea8000100370064eea900e0818000ea
:101cec00f181800018c0b30002002000031f240003
:101cfc0030fb07000000e000010035000044eb0061
:101d0c000804e0000b003a00808180009181800083
:101d1c0018c0b30002002000031f240025fb07009d
:101d2c000000e000010035000044eb000804e00076
:101d3c000200320064cea8003bff370064cea9003d
:101d4c0039ff37000000fa001160800080ff2f007f
:101d5c00008060001060880000fa2000206088007d
:101d6c0023aca800238ca80011618000f03f2f0049
:101d7c000080600000a0a0001061880030002000ee
:101d8c0020618800c3aca800c38ca8001166800039
:101d9c00f03f2f000080600000a0a00010668800bb
:101dac00300020002066880001eca8000080fa00ba
:101dbc00000006000600fa00008fbe002207980003
:101dcc002e0090000000e00005003a001e01780093
:101ddc009e019000e2808800f380880007003700a5
:101dec002e009000e10f500004003a001e01780014
:101dfc009e01900022818800338188000080fa00c7
:101e0c00000006000000fa00889fbe00448180009c
:101e1c0055818000208180003181800018c0b30082
:101e2c000001be000400be00e2fa07000000e00062
:101e3c00010035000044eb000804e0000d00320006
:101e4c002881800039818000448180005581800088
:101e5c0090808000a18080000001be000400be00c4
:101e6c0035fa07000801be00b50007004081880064
:101e7c005181880044818000558180002081800040
:101e8c003181800018c0b3000001be000400be0008
:101e9c00cafa07000000e00001003c000044eb001f
:101eac000804e0000d003200288180003981800098
:101ebc00448180005581800090808000a18080004a
:101ecc000001be000400be001afa07000801be00a3
:101edc008300070040818800518188004081800088
:101eec005181800018c0b3006011b800b3fa07002c
:101efc000000e00001003c000044eb000804e0009e
:101f0c0004003200c3eca90024cea800c3cca80066
:101f1c0003003700c3cca90024eea800c3eca80032
:101f2c004081800051818000570007000200200092
:101f3c000322240034fb0700c3fa070000007800da
:101f4c00306688000481800015818000e08080006c
:101f5c00f180800018c0b3000001be000400be0078
:101f6c0094fa07000000e000010035000044eb008b
:101f7c000804e0000d003200e8808000f980800049
:101f8c00048180001581800090808000a1808000f9
:101f9c000001be000400be00e7f907000801be0006
:101fac00670007000081880011818800048180008f
:101fbc0015818000e0808000f180800018c0b300a3
:101fcc000001be000400be007cfa07000000e00027
:101fdc0001003c000044eb000804e0000d0032005e
:101fec00e8808000f98080000481800015818000e9
:101ffc0090808000a18080000001be000400be0023
:10200c00ccf907000801be003500070000818800ec
:10201c0011818800008180001181800018c0b300fc
:10202c006011b80065fa07000000e00001003c00f8
:10203c000044eb000804e0000400320023cca900ab
:10204c0015eea80023eca8000300370023eca90030
:10205c0015cea80023cca80000818000118180003f
:10206c00090007000200200003222400e6fa070002
:10207c0075fa070000007800306188004f04be003c
:10208c000080fa00000006000400fa00881f7800a7
:10209c00008fbe0018c0b3006011b8001e0078009d
:1020ac009e00900045fa07000000e00001003d0092
:1020bc000044eb000804e000030032001e0078002e
:1020cc009e009000030037001e0078009e009000d8
:1020dc0001f0a2004f0478000080fa000000060016
:1020ec000800fa00881f7800008fbe0022079800b5
:1020fc003307980018c0b3002e019000be01900069
:10210c001e0078009e0090002cfa07000000e000f2
:10211c0001003c000044eb000804e0000300320026
:10212c001e0078009e009000020037002e009000e8
:10213c00be0090004f0478000080fa0000000600fa
:10214c000800fa00881f7800008fbe002207980054
:10215c003307980018c0b3002e019000be01900008
:10216c001e0078009e00900012fa07000000e000ac
:10217c00010035000044eb000804e00003003200cd
:10218c001e0078009e009000020037002e00900088
:10219c00be0090004f0478000080fa00000006009a
:1021ac000c00fa00881f7800008fbe0022079800f0
:1021bc0033079800440798005507980018c0b300df
:1021cc004e019000de0190001e0078009e009000f1
:1021dc00faf907000000e00001003c000044eb00ad
:1021ec000804e000040032004e019000de01900073
:1021fc00028fbe000e00370018c0b3002e019000f5
:10220c00be0190001e0078009e009000e9f90700c6
:10221c000000e000010035000044eb000804e00081
:10222c00030032002e019000be019000028fbe0010
:10223c001e0078009e0090004f0478000080fa0089
:10224c00000006000400fa00008fbe00b2fd200062
:10225c00930424001e0078009e00900093f9070060
:10226c00020020004333240067fa07000080fa00c4
:10227c00000006000400fa00008fbe00b2fd200032
:10228c00930424001e0078009e0090005efa070064
:10229c00020020004333240084f907000080fa0078
:1022ac00000006000000fa0021e3a9002143a80069
:1022bc0001198000f0cf2f00008060000019880009
:1022cc002043a90001198000000e200001007000bd
:1022dc000019880011198000f0ff210000806000b7
:1022ec00101988002343a80011198000f0cf2f008b
:1022fc0000806000101988001119800030f82f0040
:10230c00008060000040a000101988002203a90082
:10231c002223a90025e3a900f0c0b30024e3b700f1
:10232c0021198000f00f2e008080600000f020004a
:10233c0001007000201988003303a9002e0ea8009c
:10234c002f6ea8006f2ea8001e2ea8004feea8001e
:10235c003063a80030c3a8003163a80031e3a800a3
:10236c002e03a8004119800000fc2f0000806000a3
:10237c004019880028e3a90001a8a90021a8a800f9
:10238c0021e3a8000080fa00000006000000fa001b
:10239c002023a8000080fa00000006000000fa00cc
:1023ac00200021000080fa00000006000000fa0066
:1023bc000ad0bf000080fa00000006000000fa00fe
:1023cc000a70ef000080fa00000006000000fa001e
:1023dc00f0032000303a8800213a8000f0f32f00ff
:1023ec0000806000203a8800213a800000fe2f0017
:1023fc00008060000000a000203a8800120020003d
:10240c0080072000a1092000337420008049780047
:10241c008149780082497800103a800000017800e8
:10242c000200a0006004200071052000237420002d
:10243c0080497800814978008249780000000000ca
:10244c00113a80000000270080806000000021000d
:10245c00808f5000faff3a0000000000113a800013
:10246c0000022000008060000000e000fbff320052
:08247c000080fa0000000600d8
:020000040000fa
:102484001610000002000000800000001810000078
:102494000200000080000000121000000400000090
:1024a400820000000000a000400000001a1000009c
:1024b4002600000080000000001000000c00000056
:1024c400800000000c1000000600000080000000e6
:0424d4000000000004
:020000040000fa
:1024d8000000fa000e2eef001e2eef002e2eef0049
:1024e8003e2eef004e2eef005e2eef006e2eef0018
:1024f800214ea90060cea90060eea90011cea90066
:1025080011eea90020cea90020eea9000080fa0053
:0425180000000600b9
:020000040000fa
:02000004000af0
:04afe000cfff00009f
:020000040000fa
:02000004000af0
:04afe400ffff00006b
:020000040000fa
:02000004000af0
:04afe8007fff0000e7
:020000040000fa
:02000004000af0
:04afec005fff000003
:020000040000fa
:02000004000af0
:04aff00038ff000026
:020000040000fa
:02000004000af0
:04aff400ffff00005b
:00000001FF
