:020000040000fa
:080000000002040000000000f2
:020000040000fa
:040008009803000059
:020000040000fa
:04000c009803000055
:020000040000fa
:040010009803000051
:020000040000fa
:04001400980300004d
:020000040000fa
:040018009803000049
:020000040000fa
:04001c009803000045
:020000040000fa
:040020009803000041
:020000040000fa
:04002400980300003d
:020000040000fa
:040028009803000039
:020000040000fa
:04002c009803000035
:020000040000fa
:040030009803000031
:020000040000fa
:0400340002030000c3
:020000040000fa
:040038009803000029
:020000040000fa
:04003c009803000025
:020000040000fa
:040040009803000021
:020000040000fa
:04004400980300001d
:020000040000fa
:04004800fa020000b8
:020000040000fa
:04004c009803000015
:020000040000fa
:040050009803000011
:020000040000fa
:04005400980300000d
:020000040000fa
:040058009803000009
:020000040000fa
:04005c006a03000033
:020000040000fa
:040060009803000001
:020000040000fa
:0400640098030000fd
:020000040000fa
:0400680098030000f9
:020000040000fa
:04006c0098030000f5
:020000040000fa
:0400700098030000f1
:020000040000fa
:0400740098030000ed
:020000040000fa
:0400780098030000e9
:020000040000fa
:04007c0098030000e5
:020000040000fa
:0400800098030000e1
:020000040000fa
:0400840098030000dd
:020000040000fa
:0400880098030000d9
:020000040000fa
:04008c0098030000d5
:020000040000fa
:0400900098030000d1
:020000040000fa
:040094002203000043
:020000040000fa
:0400980098030000c9
:020000040000fa
:04009c0098030000c5
:020000040000fa
:0400a00098030000c1
:020000040000fa
:0400a40098030000bd
:020000040000fa
:0400a80098030000b9
:020000040000fa
:0400ac0098030000b5
:020000040000fa
:0400b00098030000b1
:020000040000fa
:0400b40098030000ad
:020000040000fa
:0400b80098030000a9
:020000040000fa
:0400bc0098030000a5
:020000040000fa
:0400c00098030000a1
:020000040000fa
:0400c400980300009d
:020000040000fa
:0400c8009803000099
:020000040000fa
:0400cc009803000095
:020000040000fa
:0400d0009803000091
:020000040000fa
:0400d400980300008d
:020000040000fa
:0400d8009803000089
:020000040000fa
:0400dc009803000085
:020000040000fa
:0400e0009803000081
:020000040000fa
:0400e400980300007d
:020000040000fa
:0400e8009803000079
:020000040000fa
:0400ec009803000075
:020000040000fa
:0400f0009803000071
:020000040000fa
:0400f400980300006d
:020000040000fa
:0400f8009803000069
:020000040000fa
:0400fc009803000065
:020000040000fa
:040100009803000060
:020000040000fa
:04010400980300005c
:020000040000fa
:040108009803000058
:020000040000fa
:04010c009803000054
:020000040000fa
:040110009803000050
:020000040000fa
:04011400980300004c
:020000040000fa
:040118009803000048
:020000040000fa
:04011c009803000044
:020000040000fa
:040120009803000040
:020000040000fa
:04012400980300003c
:020000040000fa
:040128009803000038
:020000040000fa
:04012c009803000034
:020000040000fa
:040130009803000030
:020000040000fa
:04013400980300002c
:020000040000fa
:040138009803000028
:020000040000fa
:04013c009803000024
:020000040000fa
:040140009803000020
:020000040000fa
:04014400980300001c
:020000040000fa
:040148009803000018
:020000040000fa
:04014c009803000014
:020000040000fa
:040150009803000010
:020000040000fa
:04015400980300000c
:020000040000fa
:040158009803000008
:020000040000fa
:04015c009803000004
:020000040000fa
:040160009803000000
:020000040000fa
:0401640098030000fc
:020000040000fa
:0401680098030000f8
:020000040000fa
:04016c0098030000f4
:020000040000fa
:0401700098030000f0
:020000040000fa
:0401740098030000ec
:020000040000fa
:0401780098030000e8
:020000040000fa
:04017c0098030000e4
:020000040000fa
:0401800098030000e0
:020000040000fa
:0401840098030000dc
:020000040000fa
:0401880098030000d8
:020000040000fa
:04018c0098030000d4
:020000040000fa
:0401900098030000d0
:020000040000fa
:0401940098030000cc
:020000040000fa
:0401980098030000c8
:020000040000fa
:04019c0098030000c4
:020000040000fa
:0401a00098030000c0
:020000040000fa
:0401a40098030000bc
:020000040000fa
:0401a80098030000b8
:020000040000fa
:0401ac0098030000b4
:020000040000fa
:0401b00098030000b0
:020000040000fa
:0401b40098030000ac
:020000040000fa
:0401b80098030000a8
:020000040000fa
:0401bc0098030000a4
:020000040000fa
:0401c00098030000a0
:020000040000fa
:0401c400980300009c
:020000040000fa
:0401c8009803000098
:020000040000fa
:0401cc009803000094
:020000040000fa
:0401d0009803000090
:020000040000fa
:0401d400980300008c
:020000040000fa
:0401d8009803000088
:020000040000fa
:0401dc009803000084
:020000040000fa
:0401e0009803000080
:020000040000fa
:0401e400980300007c
:020000040000fa
:0401e8009803000078
:020000040000fa
:0401ec009803000074
:020000040000fa
:0401f0009803000070
:020000040000fa
:0401f400980300006c
:020000040000fa
:0401f8009803000068
:020000040000fa
:0401fc009803000064
:020000040000fa
:04020000980300005f
:020000040000fa
:04020400980300005b
:020000040000fa
:040208009803000057
:020000040000fa
:04020c009803000053
:020000040000fa
:04021000980300004f
:020000040000fa
:04021400980300004b
:020000040000fa
:040218009803000047
:020000040000fa
:04021c009803000043
:020000040000fa
:04022000980300003f
:020000040000fa
:04022400980300003b
:020000040000fa
:040228009803000037
:020000040000fa
:04022c009803000033
:020000040000fa
:04023000980300002f
:020000040000fa
:04023400980300002b
:020000040000fa
:040238009803000027
:020000040000fa
:04023c009803000023
:020000040000fa
:04024000980300001f
:020000040000fa
:04024400980300001b
:020000040000fa
:040248009803000017
:020000040000fa
:04024c009803000013
:020000040000fa
:04025000980300000f
:020000040000fa
:04025400980300000b
:020000040000fa
:040258009803000007
:020000040000fa
:04025c009803000003
:020000040000fa
:0402600098030000ff
:020000040000fa
:0402640098030000fb
:020000040000fa
:0402680098030000f7
:020000040000fa
:04026c0098030000f3
:020000040000fa
:0402700098030000ef
:020000040000fa
:0402740098030000eb
:020000040000fa
:0402780098030000e7
:020000040000fa
:04027c0098030000e3
:020000040000fa
:0402800098030000df
:020000040000fa
:100400000f0421000eff2c000e01880000000000e8
:10041000000020000000e000020032000001200087
:100420002002880014000700c30007000000e0005d
:1004300003003a00002b21000100200002003700d9
:100440000000200001002000810f70000100320038
:100450000f000700000020000000e0000200320052
:1004600000000200000000006a0d02000000000011
:100470000040da000000fe00200020000000e00044
:1004800002003200100020009001880000000600e9
:10049000a1028800800478000000eb001f003700f4
:1004a000e284440054a0b4009905ba00e2844400f8
:1004b00054a0b4009906ba00e284440054a0b400e9
:1004c0000006eb00476fde00fd07b200ae018800ba
:1004d000636ce10003003a000ad801000000eb0061
:1004e0000e003700606ce10008003a00004deb00a0
:1004f0000a05e800020039003420ec000af0a000f0
:100500008b05e900f9ff3e00040037006168e10057
:10051000010032000086eb000b00070019c7ba008b
:100520000e04e0001905ba0003003a000a00e000da
:10053000dbff3a0000000600fe07b200ae028800b2
:100540008a047800f5ff37000cd0a300e20f4d00bd
:100550001c00390089027800354dba000a05e80010
:10056000020039003420ec000af0a0008b05e900fd
:100570000f003200254dba000a05e80002003900dc
:100580003420ec000af0a0008b05e90008003200de
:100590000c00e0000600320015cdba000a05e800a4
:1005a000020039003420ec000af0a0008b05e900bd
:1005b0008984e80054a0b4000b00e000e2ff3a0098
:1005c000000006009902ba00055d78008b05e9007d
:1005d000f7ff3200c82ade00055d78008b05e900d0
:1005e000f3ff32000c00e000f1ff320019ddba0029
:1005f000eeff37000000fa000108a9000080fa00b1
:10060000004006003600f800809fbe00829fbe00ba
:10061000849fbe00869fbe000000fa000068a9000b
:1006200032060700930707000080fa004f03be0060
:100630004f02be004f01be004f00be003600f90061
:10064000004006003600f800809fbe00829fbe007a
:10065000849fbe00869fbe000000fa000368a900c8
:1006600021738000000820000080600000f0a700d7
:100670000000ea000000e9004f00de0000407800c2
:100680000080fb00610060004700dd0021738000f6
:100690000170a1000100700020738800608080005c
:1006a0007180800061004000e08048006080880028
:1006b00071808800210207000080fa004f03be000d
:1006c0004f02be004f01be004f00be003600f900d1
:1006d00000400600809fbe000000fa0001a8a900ab
:1006e0000118800020002100010878001118800006
:1006f0002000210011009800211880002000210016
:10070000210098003118800020002100310098005d
:1007100041188000200021004100980010c0b30063
:100720000af0b7000080fa004f00be00004006004b
:100730000040da000000fe000000050003f0a20007
:10074000889fbe008a9fbe008c1f7800180107009a
:100750001f0133006450e1004f0032006420e100cb
:100760005200320003826c0007003b000905d000f4
:100770000306d000820f54000c065d000200390011
:100780000200320089017800030678008582550056
:1007900004003d000003fd008103fd008502ea0026
:1007a0008b854200840f720002003b006000100045
:1007b000e08018006011b8000005eb007a28e10025
:1007c0000a00390006007800c75ddd00f707b200b7
:1007d000878075002d003700828171000a01780042
:1007e000610560008180d1000080d3008502e900ae
:1007f000f9ff3b00060440008784480002003b00ec
:1008000060041400e0841c000988a3000700320083
:100810008a81710082817100610164008904d100c4
:100820000884d3008b05e800170037000978a3007f
:1008300013003a000b00e000130034008b05e900c0
:100840000804440089844c000a4474000978a30019
:100850000d003a000b00e000070034008b05e900b2
:100860000804440089844c0001003a000b00200079
:100870000978a300f7ff32000001eb000200370007
:10088000828171000a0178008e0007000cf0a70039
:1008900001f0a000d70037006420e10002003a0018
:1008a000838f6c00d70033000801be000200be0039
:1008b000d0003700889fbe008a9fbe008c1f780042
:1008c000bb000700c200330003866c006450e100e7
:1008d0002e0032006420e100330032006150e1005c
:1008e0002f0032006120e100310032008585550083
:1008f000eb07b000090020000804200005003700c5
:100900000804440089844c000a00310006034300b7
:1009100087834b000001530081815b00f8ff3300a7
:100920000203be000800a0000804440089844c00b3
:10093000f6ff3900c639dd00830173000100320083
:10094000130020008904d1000884d3000998a30073
:10095000050032000800a7000300a0008904d100b0
:100960000884d3008b05e8008904d1000884d300f3
:100970000001eb000281d2005200070001f0a1004b
:100980000cf0a70001f0a0009a0037006420e100fd
:100990009c0032000801be000200be00f7ff3700d5
:1009a0006120e100970032006000b800f3ff3700db
:1009b0000000200001f82700f0ff3700140020009d
:1009c000c7003700f4ff2f00c50037000001be004c
:1009d000620007000470a70003f0a1006509b100e0
:1009e000160032000d0035006828e10006003500d1
:1009f000f0ff2f00f1ff27000300e00013003b0091
:100a0000010028000000050000004000818048002f
:100a10008502e900fcff3a0008003700f88f420029
:100a200002003c008000eb00000005008100d100c6
:100a30000080d3008502e800fcff3a000300e000dc
:100a400002003b0060001000e0801800000006007b
:100a50000001be00410007000470a70003f0a100e0
:100a600003f8a30013003a006509b100100032003a
:100a7000090035006928e100020035000100280066
:100a80000000050000004000818048008502e90068
:100a9000fcff3a0000000600f88f42000500350018
:100aa0008100d1000080d3008502e800fcff3a00fd
:100ab000000006008000eb00000005006011b80097
:100ac000a200370081002000618055000b003d002e
:100ad0000b00200061fe2f000100e1001d0034002a
:100ae00082817100610164008904d1000884d3000f
:100af0000000e800faff3a00710020006100640085
:100b0000030070000200600009003200610444002c
:100b1000e0844c000988a500050032008b05e80040
:100b20006808e10002003a008904d1000884d3007b
:100b3000f20f20000258e10005003d00c75ddd0016
:100b4000f907b200898075000800780000000600ef
:100b50000bf827008b00780000000500c70ade00b4
:100b6000f107b200f50fb20008003200e1cf4200f9
:100b7000020032000170a00024000500810f700007
:100b8000010032000408050044000500810f7000d8
:100b900002003a00140005008502e9000000400050
:100ba00081c04800fcff3b000170a000240005004c
:100bb0000004be00e9ff07000003be000405be00fc
:100bc0000200be00e5ff0700844f7500000006002c
:100bd0000200be006450e100050036006420e10020
:100be000020036000968a30001003a000800be00b8
:100bf0000160a0004f0678004f05be004f04be0004
:100c000000000600f0ff2f00f1ff2700f9ff37007a
:100c1000889fbe008a9fbe008c1f7800e4ff0700fb
:100c2000ebff330003866c006450e10024003200c7
:100c30006420e100270032006150e1002200320010
:100c40006120e100210032008b854200eb07b100fa
:100c50000134b800003ab8000804420089844a0010
:100c6000013ab8000030b8008880400009014a000d
:100c70000400330000004000818048000201490068
:100c80008b05e900c909dd00830170000100320015
:100c900013002000c814de004814dd004709de0000
:100ca0001200b200c808de000884700085ff07004b
:100cb00001f0a1000cf0a70001f0a000cdff37006b
:100cc0006120e100cfff32000801be000200be003b
:100cd000f7ff37006150e100fcff3a00c9ff370021
:100ce000889fbe008a9fbe00841f7800b0ff070067
:100cf0004f00780011003300f0ff2f00838f6c004d
:100d000006003b00040565000a00a7000800370044
:100d100009f0a6001000200008003700820f5400e0
:100d2000838f5c00030039001000200001003e00aa
:100d30000000200009f0a7000000ea004f05be00f7
:100d40004f04be000000e00000000600889fbe00c7
:100d50008a9fbe000082700004027100048271004c
:100d6000260032000004be000200be006011b80080
:100d70006b092000950220000182cf000a00390093
:100d80000541b1000082cf00070039000541b100e4
:100d90000982cf00040039000541b1000882cf006c
:100da000010039000541b100054252001200320035
:100db0000a003b0082817100610164008100d10062
:100dc0000080d3008984d3000884d3008b05e80019
:100dd0000442e800f7ff3a00070037000804440027
:100de00089844c0000004800818048008b05e900a0
:100df0000442e900f9ff3a0032ff07004f05be0048
:080e00004f04be0000000600d3
:020000040000fa
:100e08000000fa00881f78001170ef00e081800070
:100e1800f181800018c0b30002002000031f2400e5
:100e2800e4fe07000000e000010035000044eb008c
:100e38000804e0000300320011d0bf000044a00005
:100e480011f0b700808180009181800018c0b30044
:100e58000200200003222400d6fe07000000e00064
:100e6800010035000044eb000804e00003003200f4
:100e780011d0bf000034a00011f0b700a08180009d
:100e8800b181800018c0b30002002000c3202400f4
:100e9800c8fe07000000e000010035000044eb0038
:100ea8000804e0000300320011d0bf000024a000b5
:100eb80011f0b700608180007181800018c0b30014
:100ec8000200200003222400bafe07000000e00010
:100ed800010035000044eb000804e0000300320084
:100ee80011d0bf000014a00011f0b700c08180002d
:100ef800d181800018c0b30002002000031f240025
:100f0800acfe07000000e000010035000044eb00e3
:100f18000804e0000300320011d0bf000004a00064
:100f280011f0b70011d0bf004f0478000080fa001c
:100f3800000006000000fa00881f780011d0bf00ea
:100f48000080fb00cf80de00f201200003002000bb
:100f5800820f5000838f5800c2013e000006010036
:100f6800b50137001e00370033003700480037004e
:100f7800bc0137005c00370070003700850037007f
:100f88003800370099003700b6013700b50137003f
:100f980075003700c100370023013700a90037006a
:100fa8001a003700620137009b003700f200370053
:100fb80058003700fb003700c3003700cd0037006a
:100fc8003e003700e1003700a601370079013700fd
:100fd8007b003700d2003700a50037003301370007
:100fe8001200200000002000011f2400a9030700b0
:100ff8000001eb0000002000011a2400a5030700ef
:101008007fff070011f0b70096013700120020009b
:1010180000002000011a24009e0307000001eb00d5
:1010280000002000011f24009a03070074ff070036
:1010380011f0b7008b0137001200200000002000db
:10104800011f2400930307000001eb0000002000ab
:10105800011724008f03070069ff070011f0b7008c
:101068008001370012002000000020000117240032
:10107800880307000001eb0000002000011f240086
:10108800840307005eff070011f0b7007501370001
:101098001200200000002000011f24007d0307002b
:1010a8000001eb0000002000011a2400790307006a
:1010b80053ff070011f0b7006a0137001200200043
:1010c80000002000011a2400720307000001eb0051
:1010d80000002000011f24006e03070048ff0700de
:1010e80011f0b7005f013700120020000000200057
:1010f80001122400670307000001eb000000200034
:1011080001122c00630307003dff070011f0b70030
:1011180054013700120020000000200001122c00aa
:101128005c0307000001eb0000002000011224000e
:101138005803070032ff070011f0b7001200200023
:1011480000002000011f2400520307000001eb00eb
:1011580000002000010a24004e03070028ff0700b2
:1011680011f0b7003f0137001200200000002000f6
:10117800010a2400470307000001eb0000002000db
:10118800011f2400430307001dff070011f0b700eb
:101198003401370012002000000020000112240052
:1011a8003c0307000001eb000000200001122c00a6
:1011b8003803070012ff070011f0b70029013700b4
:1011c800120020000000200001122c00310307004b
:1011d8000001eb0000002000011224002d0307008d
:1011e80007ff070011f0b7001e01370012002000aa
:1011f80000002000811c2400260307000001eb00ea
:1012080000002000011f240022030700fcfe070045
:1012180011f0b70013013700120020000000200071
:10122800011f24001b0307000001eb000000200041
:10123800811c240017030700f1fe070011f0b70016
:10124800080137001200200000002000011a2c00bd
:10125800100307000001eb0000002000011a240021
:101268000c030700e6fe070011f0b700fd00370089
:101278001200200000002000011a240005030700c6
:101288000001eb0000002000011a2c0001030700f8
:10129800dbfe070011f0b700f20037001200200053
:1012a8000000200001122400fa0207000001eb00f0
:1012b8000000200001122c00f6020700d0fe0700f3
:1012c80011f0b700e70037001200200000002000ee
:1012d80001122c00ef0207000001eb0000002000c3
:1012e80001122400eb020700c5fe070011f0b70049
:1012f800dc00370012002000000020000117240045
:10130800e40207000001eb000000200001172c0098
:10131800e0020700bafe070011f0b700d10037005d
:10132800120020000000200001172c00d90207003d
:101338000001eb000000200001172400d50207007f
:10134800affe070011f0b700c600370012002000fa
:1013580000002000811c2400ce0207000001eb00e1
:1013680000002000011f2400ca020700a4fe070095
:1013780011f0b700bb003700120020000000200069
:10138800011f2400c30207000001eb000000200039
:10139800811c2400bf02070099fe070011f0b70066
:1013a800b0003700c4818000d5818000e0818000d2
:1013b800f181800018c0b3000001be000400be0027
:1013c8007efd07000000e00001003c000044eb0047
:1013d8000804e0000900320012002000000020008c
:1013e80001122c00ab0207000001eb0000002000f6
:1013f80001122400a702070008003700120020008d
:101408000000200001122400a20207000001eb00e6
:101418000000200001122c009e02070078fe070041
:1014280011f0b7008f003700c4818000d58180009b
:10143800e0818000f181800018c0b3000001be0087
:101448000400be005dfd07000000e00001003c0054
:101458000044eb000804e0000900320012002000fc
:101468000000200001122c008a0207000001eb0096
:10147800000020000112240086020700080037003f
:10148800120020000000200001122c008102070039
:101498000001eb000000200001122c007d02070073
:1014a80057fe070011f0b7006e0037006481800016
:1014b80075818000808180009181800018c0b30010
:1014c8000001be000400be003cfd07000000e00073
:1014d80001003c000044eb000804e0000900320071
:1014e80012002000000020000112240069020700f9
:1014f8000001eb0000002000011a2400650207002b
:10150800080037001200200000002000011a240003
:10151800600207000001eb00000020000112240017
:101528005c02070036fe070011f0b7004d003700d7
:10153800c4818000d5818000e0818000f181800035
:1015480018c0b3000001be000400be001bfd070068
:101558000000e00001003c000044eb000804e0004b
:1015680009003200120020000000200001192400a8
:10157800480207000001eb0000002000011a2400c7
:101588004402070008003700120020000000200075
:10159800011a24003f0207000001eb0000002000b0
:1015a800011924003b02070015fe070011f0b700df
:1015b8002c00370064818000758180008081800064
:1015c8009181800018c0b3000001be000400be0075
:1015d800fafc07000000e00001003c000044eb00ba
:1015e8000804e0000900320012002000000020007a
:1015f80001192400270207000001eb000000200069
:10160800011a2400230207000800370012002000f6
:1016180000002000011a24001e0207000001eb0050
:1016280000002000011924001a020700f4fd070039
:1016380011f0b7000b003700120020000000200056
:10164800811c2400130207000001eb0000002000a9
:10165800811c24000f020700e9fd070011f0b70004
:10166800000000004f0478000080fa000000060027
:101678000000fa0013e1a90011e1a9001061a80017
:101688001021a90081088000f0fc2f000080600074
:10169800800888000a21ef000621ef00202620009c
:1016a8007008880000a0250060088800214280009a
:1016b80080ff2f00008060000000a000204288000a
:1016c8000108a9002108a80011e1a8000080fa007b
:1016d800000006000000fa0005e1a9000421a900a5
:1016e8000068a9002068a80005e1a8000000200003
:1016f800812424000d0007000080fa000000060085
:101708000000fa001fe1a9001e21a9000368a90032
:101718002368a8001fe1a80000002000a1472400ba
:10172800760007000080fa00000006000400fa00b6
:10173800881f7800008fbe0021088000f0fc2f0071
:1017480000806000200888001e0178009e0190003b
:101758000068290081c1240054fc070018c0b300a8
:1017680002f02f00f377240094fc07000000e0004b
:1017780001003c000044eb000804e0005400320083
:1017880021088000f0fc2f00008060000040a000cd
:10179800200888001e0178009e019000006829003a
:1017a80081c1240041fc070002002000031024002e
:1017b8003efc070018c0b30002f02f00f3772400a6
:1017c8007efc07000000e00001003c000044eb0044
:1017d8000804e0003200320021088000f0fc2f00ed
:1017e800008060000050a000200888001e017800da
:1017f8009e0190000068290081c124002bfc07008d
:10180800020020000328240028fc070018c0b300a9
:1018180002f02f00f377240068fc07000000e000c6
:1018280001003c000044eb000804e0001000320016
:1018380021088000000320000100700020088800b3
:101848001e0178009e0190000068290081c12400d3
:1018580016fc0700020020000338240013fc0700d0
:1018680058fc0700000078001008880020003700a6
:101878001e0178009e0190000068290081c12400a3
:101888000afc0700020020000328240007fc0700c8
:101898004cfc07000000780010088800140037008e
:1018a8001e0178009e0190000068290081c1240073
:1018b800fefb07000200200003102400fbfb0700ca
:1018c80040fc070000007800100888000800370076
:1018d8001e0178009e0190000068290081c1240043
:1018e800f2fb070037fc07000000780010088800aa
:1018f8004f0478000080fa00000006000400fa0097
:10190800881f7800008fbe00f1088000f0fc2f00cf
:1019180000806000f00888001e0178009e01900099
:101928000068290081c12400e0fb070018c0b3004b
:1019380002f02f00f377240020fc07000000e000ed
:1019480001003c000044eb000804e00054003200b1
:10195800f1088000f0fc2f00008060000040a0002b
:10196800f00888001e0178009e0190000068290098
:1019780081c12400cdfb07000200200003102400d1
:10198800cafb070018c0b30002f02f00f377240049
:101998000afc07000000e00001003c000044eb00e6
:1019a8000804e00032003200f1088000f0fc2f004b
:1019b800008060000050a000f00888001e01780038
:1019c8009e0190000068290081c12400b7fb070030
:1019d8000200200003282400b4fb070018c0b3004d
:1019e80002f02f00f3772400f4fb07000000e0006a
:1019f80001003c000044eb000804e0001000320045
:101a0800f10880000003200001007000f008880041
:101a18001e0178009e0190000068290081c1240001
:101a2800a2fb070002002000033824009ffb0700e8
:101a3800e4fb070000007800d00888002000370089
:101a48001e0178009e0190000068290081c12400d1
:101a580096fb0700020020000328240093fb0700e0
:101a6800d8fb070000007800d00888001400370071
:101a78001e0178009e0190000068290081c12400a1
:101a88008afb0700020020000310240087fb0700e0
:101a9800ccfb070000007800d00888000800370059
:101aa8001e0178009e0190000068290081c1240071
:101ab8007efb0700c3fb070000007800d008880001
:101ac8004f0478000080fa00000006000600fa00c3
:101ad800881f780075020700b4020700fdfe0700a2
:101ae800e3fe070006ff0700ce00070025020700f7
:101af80064cea80064eea800254ea800c0fc07002c
:101b0800010037000000000060020700e14f5000ac
:101b1800fcff3a006102070058020700000f780036
:101b28009e00780068804000100078008000eb007c
:101b3800e0fb0700323323003305240032fc0700a2
:101b4800020020000358240058fb0700d2cc2c00c8
:101b5800c30424002cfc07001007980021079800f4
:101b68001e019000ae01900000002000812024009a
:101b78004efb070002002000030a2400edfa0700cc
:101b880080818800918188009e00780066804000ee
:101b9800100078008000eb00c6fb070032332300fa
:101ba8003305240018fc0700020020000358240015
:101bb8003efb0700d2cc2c00c304240012fc070013
:101bc80010079800210798001e019000ae019000b0
:101bd800000020008120240034fb070002002000c0
:101be800030a2400d3fa0700e0818800f181880005
:101bf8009e00780064804000100078008000eb00b0
:101c0800acfb07003233230033052400fefb07003a
:101c1800020020000358240024fb0700d2cc2c002b
:101c2800c3042400f8fb0700100798002107980058
:101c38001e019000ae0190000000200081202400c9
:101c48001afb070002002000030a2400b9fa070063
:101c5800a0818800b18188001e80e800100078000b
:101c68008000eb0093fb0700323323003305240088
:101c7800e5fb070002002000035824000bfb0700c7
:101c8800d2cc2c00c3042400dffb07001007980007
:101c9800210798001e019000ae019000000020006e
:101ca8008120240001fb070002002000030a240011
:101cb800a0fa070060818800718188001e00780002
:101cc800100078008000eb007afb07003233230015
:101cd80033052400ccfb0700020020000358240031
:101ce800f2fa0700d2cc2c00c3042400c6fb07007c
:101cf80010079800210798001e019000ae0190007f
:101d08000000200081202400e8fa070002002000db
:101d1800030a240087fa0700c0818800d18188005f
:101d2800c0818000d181800018c0b300020020006b
:101d3800031f24001ffb07000000e000010035001e
:101d48000044eb000804e0000b003a0060818000ca
:101d58007181800018c0b30002002000031f240016
:101d680014fb07000000e000010035000044eb0010
:101d78000804e00002003200254ea80001003700e8
:101d8800254ea900a0818000b181800018c0b30051
:101d980002002000031f240006fb07000000e000eb
:101da800010035000044eb000804e00002003200a6
:101db80064eea8000100370064eea900e08180000d
:101dc800f181800018c0b30002002000031f240026
:101dd800f8fa07000000e000010035000044eb00bd
:101de8000804e0000b003a008081800091818000a7
:101df80018c0b30002002000031f2400edfa0700fa
:101e08000000e000010035000044eb000804e00099
:101e18000200320064cea8003bff370064cea90060
:101e280039ff37000000fa001160800080ff2f00a2
:101e3800008060001060880000fa200020608800a0
:101e480023aca800238ca80011618000f03f2f006c
:101e58000080600000a0a000106188003000200011
:101e680020618800c3aca800c38ca800116680005c
:101e7800f03f2f000080600000a0a00010668800de
:101e8800300020002066880001eca8000080fa00dd
:101e9800000006000600fa00008fbe002207980026
:101ea8002e0090000000e00005003a001e017800b6
:101eb8009e019000e2808800f380880007003700c8
:101ec8002e009000e10f500004003a001e01780037
:101ed8009e01900022818800338188000080fa00ea
:101ee800000006000000fa00889fbe0044818000c0
:101ef80055818000208180003181800018c0b300a6
:101f08000001be000400be00aafa07000000e000bd
:101f1800010035000044eb000804e0000d00320029
:101f280028818000398180004481800055818000ab
:101f380090808000a18080000001be000400be00e7
:101f4800fdf907000801be00b500070040818800c0
:101f58005181880044818000558180002081800063
:101f68003181800018c0b3000001be000400be002b
:101f780092fa07000000e00001003c000044eb007a
:101f88000804e0000d0032002881800039818000bb
:101f9800448180005581800090808000a18080006d
:101fa8000001be000400be00e2f907000801be00ff
:101fb80083000700408188005181880040818000ab
:101fc8005181800018c0b3006011b8007bfa070087
:101fd8000000e00001003c000044eb000804e000c1
:101fe80004003200c3eca90024cea800c3cca8008a
:101ff80003003700c3cca90024eea800c3eca80056
:1020080040818000518180005700070002002000b5
:1020180003222400fcfa07008bfa0700000078006e
:10202800306688000481800015818000e08080008f
:10203800f180800018c0b3000001be000400be009b
:102048005cfa07000000e000010035000044eb00e6
:102058000804e0000d003200e8808000f98080006c
:10206800048180001581800090808000a18080001c
:102078000001be000400be00aff907000801be0061
:1020880067000700008188001181880004818000b2
:1020980015818000e0808000f180800018c0b300c6
:1020a8000001be000400be0044fa07000000e00082
:1020b80001003c000044eb000804e0000d00320081
:1020c800e8808000f980800004818000158180000c
:1020d80090808000a18080000001be000400be0046
:1020e80094f907000801be00350007000081880048
:1020f80011818800008180001181800018c0b30020
:102108006011b8002dfa07000000e00001003c0053
:102118000044eb000804e0000400320023cca900ce
:1021280015eea80023eca8000300370023eca90053
:1021380015cea80023cca800008180001181800062
:10214800090007000200200003222400aefa07005d
:102158003dfa070000007800306188004f04be0097
:102168000080fa00000006000400fa00881f7800ca
:10217800008fbe0018c0b3006011b8001e007800c0
:102188009e0090000dfa07000000e00001003d00ed
:102198000044eb000804e000030032001e00780051
:1021a8009e009000030037001e0078009e009000fb
:1021b80001f0a2004f0478000080fa000000060039
:1021c8000800fa00881f7800008fbe0022079800d8
:1021d8003307980018c0b3002e019000be0190008c
:1021e8001e0078009e009000f4f907000000e0004f
:1021f80001003c000044eb000804e000030032004a
:102208001e0078009e009000020037002e0090000b
:10221800be0090004f0478000080fa00000006001d
:102228000800fa00881f7800008fbe002207980077
:102238003307980018c0b3002e019000be0190002b
:102248001e0078009e009000daf907000000e00008
:10225800010035000044eb000804e00003003200f0
:102268001e0078009e009000020037002e009000ab
:10227800be0090004f0478000080fa0000000600bd
:102288000c00fa00881f7800008fbe002207980013
:1022980033079800440798005507980018c0b30002
:1022a8004e019000de0190001e0078009e00900014
:1022b800c2f907000000e00001003c000044eb0008
:1022c8000804e000040032004e019000de01900096
:1022d800028fbe000e00370018c0b3002e01900018
:1022e800be0190001e0078009e009000b1f9070022
:1022f8000000e000010035000044eb000804e000a5
:10230800030032002e019000be019000028fbe0033
:102318001e0078009e0090004f0478000080fa00ac
:10232800000006000400fa00008fbe00b2fd200085
:10233800930424001e0078009e0090005bf90700bb
:1023480002002000433324002ffa07000080fa001f
:10235800000006000400fa00008fbe00b2fd200055
:10236800930424001e0078009e00900026fa0700bf
:1023780002002000433324004cf907000080fa00d3
:10238800000006000000fa0021e3a9002143a8008c
:1023980001198000f0cf2f0000806000001988002c
:1023a8002043a90001198000000e200001007000e0
:1023b8000019880011198000f0ff210000806000da
:1023c800101988002343a80011198000f0cf2f00ae
:1023d80000806000101988001119800030f82f0063
:1023e800008060000040a000101988002203a900a6
:1023f8002223a90025e3a900f0c0b30024e3b70015
:1024080021198000f00f2e008080600000f020006d
:1024180001007000201988003303a9002e0ea800bf
:102428002f6ea8006f2ea8001e2ea8004feea80041
:102438003063a80030c3a8003163a80031e3a800c6
:102448002e03a8004119800000fc2f0000806000c6
:102458004019880028e3a90001a8a90021a8a8001c
:1024680021e3a8000080fa00000006000000fa003e
:102478002023a8000080fa00000006000000fa00ef
:10248800200021000080fa00000006000000fa0089
:102498000ad0bf000080fa00000006000000fa0021
:1024a8000a70ef000080fa00000006000000fa0041
:1024b800f0032000303a8800213a8000f0f32f0022
:1024c80000806000203a8800213a800000fe2f003a
:1024d800008060000000a000203a88001200200060
:1024e80080072000a109200033742000804978006b
:1024f8008149780082497800103a8000000178000c
:102508000200a00060042000710520002374200050
:1025180080497800814978008249780000000000ed
:10252800113a800000002700808060000000210030
:10253800808f5000faff3a0000000000113a800036
:1025480000022000008060000000e000fbff320075
:082558000080fa0000000600fb
:020000040000fa
:10256000161000000200000080000000181000009b
:1025700002000000800000001210000004000000b3
:10258000820000000000a000400000001a100000bf
:102590002600000080000000001000000c00000079
:1025a000800000000c100000060000008000000009
:0425b0000000000027
:020000040000fa
:1025b4000000fa000e2eef001e2eef002e2eef006c
:1025c4003e2eef004e2eef005e2eef006e2eef003b
:1025d400214ea90060cea90060eea90011cea90089
:1025e40011eea90020cea90020eea9000080fa0077
:0425f40000000600dd
:020000040000fa
:02000004000af0
:04afe000cfff00009f
:020000040000fa
:02000004000af0
:04afe400ffff00006b
:020000040000fa
:02000004000af0
:04afe8007fff0000e7
:020000040000fa
:02000004000af0
:04afec005fff000003
:020000040000fa
:02000004000af0
:04aff00038ff000026
:020000040000fa
:02000004000af0
:04aff400ffff00005b
:00000001FF
