:020000040000fa
:080000000002040000000000f2
:020000040000fa
:04000800fc030000f5
:020000040000fa
:04000c00fc030000f1
:020000040000fa
:04001000fc030000ed
:020000040000fa
:04001400fc030000e9
:020000040000fa
:04001800fc030000e5
:020000040000fa
:04001c00fc030000e1
:020000040000fa
:04002000fc030000dd
:020000040000fa
:04002400fc030000d9
:020000040000fa
:04002800fc030000d5
:020000040000fa
:04002c00fc030000d1
:020000040000fa
:04003000fc030000cd
:020000040000fa
:0400340002030000c3
:020000040000fa
:04003800fc030000c5
:020000040000fa
:04003c00fc030000c1
:020000040000fa
:04004000fc030000bd
:020000040000fa
:04004400fc030000b9
:020000040000fa
:04004800fa020000b8
:020000040000fa
:04004c00fc030000b1
:020000040000fa
:04005000fc030000ad
:020000040000fa
:04005400b8030000ed
:020000040000fa
:040058008e03000013
:020000040000fa
:04005c006a03000033
:020000040000fa
:04006000fc0300009d
:020000040000fa
:04006400fc03000099
:020000040000fa
:04006800fc03000095
:020000040000fa
:04006c00fc03000091
:020000040000fa
:04007000fc0300008d
:020000040000fa
:04007400fc03000089
:020000040000fa
:04007800fc03000085
:020000040000fa
:04007c00fc03000081
:020000040000fa
:04008000fc0300007d
:020000040000fa
:04008400fc03000079
:020000040000fa
:04008800fc03000075
:020000040000fa
:04008c00fc03000071
:020000040000fa
:04009000fc0300006d
:020000040000fa
:040094004003000025
:020000040000fa
:04009800fc03000065
:020000040000fa
:04009c00fc03000061
:020000040000fa
:0400a000fc0300005d
:020000040000fa
:0400a400fc03000059
:020000040000fa
:0400a800fc03000055
:020000040000fa
:0400ac00fc03000051
:020000040000fa
:0400b000fc0300004d
:020000040000fa
:0400b400fc03000049
:020000040000fa
:0400b800fc03000045
:020000040000fa
:0400bc00fc03000041
:020000040000fa
:0400c000fc0300003d
:020000040000fa
:0400c400fc03000039
:020000040000fa
:0400c800fc03000035
:020000040000fa
:0400cc00fc03000031
:020000040000fa
:0400d000fc0300002d
:020000040000fa
:0400d400fc03000029
:020000040000fa
:0400d800fc03000025
:020000040000fa
:0400dc00fc03000021
:020000040000fa
:0400e000fc0300001d
:020000040000fa
:0400e400fc03000019
:020000040000fa
:0400e800fc03000015
:020000040000fa
:0400ec00fc03000011
:020000040000fa
:0400f000fc0300000d
:020000040000fa
:0400f400fc03000009
:020000040000fa
:0400f800fc03000005
:020000040000fa
:0400fc00fc03000001
:020000040000fa
:04010000fc030000fc
:020000040000fa
:04010400fc030000f8
:020000040000fa
:04010800fc030000f4
:020000040000fa
:04010c00fc030000f0
:020000040000fa
:04011000fc030000ec
:020000040000fa
:04011400fc030000e8
:020000040000fa
:04011800fc030000e4
:020000040000fa
:04011c00fc030000e0
:020000040000fa
:04012000fc030000dc
:020000040000fa
:04012400fc030000d8
:020000040000fa
:04012800fc030000d4
:020000040000fa
:04012c00fc030000d0
:020000040000fa
:04013000fc030000cc
:020000040000fa
:04013400fc030000c8
:020000040000fa
:04013800fc030000c4
:020000040000fa
:04013c00fc030000c0
:020000040000fa
:04014000fc030000bc
:020000040000fa
:04014400fc030000b8
:020000040000fa
:04014800fc030000b4
:020000040000fa
:04014c00fc030000b0
:020000040000fa
:04015000fc030000ac
:020000040000fa
:04015400fc030000a8
:020000040000fa
:04015800fc030000a4
:020000040000fa
:04015c00fc030000a0
:020000040000fa
:04016000fc0300009c
:020000040000fa
:04016400fc03000098
:020000040000fa
:04016800fc03000094
:020000040000fa
:04016c00fc03000090
:020000040000fa
:04017000fc0300008c
:020000040000fa
:04017400fc03000088
:020000040000fa
:04017800fc03000084
:020000040000fa
:04017c00fc03000080
:020000040000fa
:04018000fc0300007c
:020000040000fa
:04018400fc03000078
:020000040000fa
:04018800fc03000074
:020000040000fa
:04018c00fc03000070
:020000040000fa
:04019000fc0300006c
:020000040000fa
:04019400fc03000068
:020000040000fa
:04019800fc03000064
:020000040000fa
:04019c00fc03000060
:020000040000fa
:0401a000fc0300005c
:020000040000fa
:0401a400fc03000058
:020000040000fa
:0401a800fc03000054
:020000040000fa
:0401ac00fc03000050
:020000040000fa
:0401b000fc0300004c
:020000040000fa
:0401b400fc03000048
:020000040000fa
:0401b800fc03000044
:020000040000fa
:0401bc00fc03000040
:020000040000fa
:0401c000fc0300003c
:020000040000fa
:0401c400fc03000038
:020000040000fa
:0401c800fc03000034
:020000040000fa
:0401cc00fc03000030
:020000040000fa
:0401d000fc0300002c
:020000040000fa
:0401d400fc03000028
:020000040000fa
:0401d800fc03000024
:020000040000fa
:0401dc00fc03000020
:020000040000fa
:0401e000fc0300001c
:020000040000fa
:0401e400fc03000018
:020000040000fa
:0401e800fc03000014
:020000040000fa
:0401ec00fc03000010
:020000040000fa
:0401f000fc0300000c
:020000040000fa
:0401f400fc03000008
:020000040000fa
:0401f800fc03000004
:020000040000fa
:0401fc00fc03000000
:020000040000fa
:04020000fc030000fb
:020000040000fa
:04020400fc030000f7
:020000040000fa
:04020800fc030000f3
:020000040000fa
:04020c00fc030000ef
:020000040000fa
:04021000fc030000eb
:020000040000fa
:04021400fc030000e7
:020000040000fa
:04021800fc030000e3
:020000040000fa
:04021c00fc030000df
:020000040000fa
:04022000fc030000db
:020000040000fa
:04022400fc030000d7
:020000040000fa
:04022800fc030000d3
:020000040000fa
:04022c00fc030000cf
:020000040000fa
:04023000fc030000cb
:020000040000fa
:04023400fc030000c7
:020000040000fa
:04023800fc030000c3
:020000040000fa
:04023c00fc030000bf
:020000040000fa
:04024000fc030000bb
:020000040000fa
:04024400fc030000b7
:020000040000fa
:04024800fc030000b3
:020000040000fa
:04024c00fc030000af
:020000040000fa
:04025000fc030000ab
:020000040000fa
:04025400fc030000a7
:020000040000fa
:04025800fc030000a3
:020000040000fa
:04025c00fc0300009f
:020000040000fa
:04026000fc0300009b
:020000040000fa
:04026400fc03000097
:020000040000fa
:04026800fc03000093
:020000040000fa
:04026c00fc0300008f
:020000040000fa
:04027000fc0300008b
:020000040000fa
:04027400fc03000087
:020000040000fa
:04027800fc03000083
:020000040000fa
:04027c00fc0300007f
:020000040000fa
:04028000fc0300007b
:020000040000fa
:10040000af1d21000eff2c000e018800000000002f
:10041000000020000000e000020032000001200087
:100420002002880014000700f50007000000e0002b
:1004300003003a00e08f2100010020000200370095
:100440000000200001002000810f70000100320038
:100450000f000700000020000000e0000200320052
:100460000000020000000000d6130200000000009f
:100470000040da000000fe00200020000000e00044
:1004800002003200100020009001880000000600e9
:10049000a1028800800478000000eb001f003700f4
:1004a000e284440054a0b4009905ba00e2844400f8
:1004b00054a0b4009906ba00e284440054a0b400e9
:1004c0000006eb00476fde00fd07b200ae018800ba
:1004d000636ce10003003a000ad801000000eb0061
:1004e0000e003700606ce10008003a00004deb00a0
:1004f0000a05e800020039003420ec000af0a000f0
:100500008b05e900f9ff3e00040037006168e10057
:10051000010032000086eb000b00070019c7ba008b
:100520000e04e0001905ba0003003a000a00e000da
:10053000dbff3a0000000600fe07b200ae028800b2
:100540008a047800f5ff37000cd0a300e20f4d00bd
:100550001c00390089027800354dba000a05e80010
:10056000020039003420ec000af0a0008b05e900fd
:100570000f003200254dba000a05e80002003900dc
:100580003420ec000af0a0008b05e90008003200de
:100590000c00e0000600320015cdba000a05e800a4
:1005a000020039003420ec000af0a0008b05e900bd
:1005b0008984e80054a0b4000b00e000e2ff3a0098
:1005c000000006009902ba00055d78008b05e9007d
:1005d000f7ff3200c82ade00055d78008b05e900d0
:1005e000f3ff32000c00e000f1ff320019ddba0029
:1005f000eeff37000000fa000108a9000080fa00b1
:10060000004006003600f800809fbe00829fbe00ba
:10061000849fbe00869fbe000000fa000068a9000b
:10062000c10707003d0a0700217380000004200075
:100630000080600000f0a7000000ea000000e90070
:100640004f00de00004078000080fb006100600089
:100650004600dd00217380000160a10001007000f0
:10066000207388000080fa004f03be004f02be00d6
:100670004f01be004f00be003600f90000400600ea
:100680003600f800809fbe00829fbe00849fbe009f
:10069000869fbe000000fa000368a9000080800069
:1006a0001180800061004000e080480000808800e8
:1006b00011808800060207000080fa004f03be0088
:1006c0004f02be004f01be004f00be003600f900d1
:1006d00000400600801f78000000fa0001a8a90071
:1006e00000188000808e880010188000908e88008e
:1006f00020188000a08e880030188000b08e8800fe
:1007000040188000c08e880010c0b30029f0b700e8
:100710000080fa004f007800004006003600f80024
:10072000809fbe00829fbe00849fbe00869fbe0049
:100730000000fa000188a900c1808000b08080001c
:10074000808f50000200320093090700010037003b
:100750001a70ef000080fa004f03be004f02be0087
:100760004f01be004f00be003600f90000400600f9
:100770003600f800809fbe00829fbe00849fbe00ae
:10078000869fbe000000fa000168a90010118000d9
:10079000640060000000e000010032002242a90075
:1007a00010118000620060000000e00006003200ce
:1007b0002222a90005003700301180000040780097
:1007c000e60907000100370000000000101180005a
:1007d000610060000000e000f7ff3a000080fa00ce
:1007e0004f03be004f02be004f01be004f00be00cf
:1007f0003600f900004006000040da000000fe006c
:100800000000050003f0a200889fbe008a9fbe0082
:100810008c1f7800180107001f0133006450e100ad
:100820004f0032006420e1005200320003826c006d
:1008300007003b000905d0000306d000820f5400da
:100840000c065d00020039000200320089017800c8
:10085000030678008582550004003d000003fd007a
:100860008103fd008502ea008b854200840f72003f
:1008700002003b0060001000e08018006011b8002a
:100880000005eb007a28e1000a0039000600780034
:10089000c75ddd00f707b200878075002d003700c7
:1008a000828171000a017800610560008180d100b9
:1008b0000080d3008502e900f9ff3b0006044000f8
:1008c0008784480002003b0060041400e0841c00a0
:1008d0000988a300070032008a81710082817100bb
:1008e000610164008904d1000884d3008b05e8000d
:1008f000170037000978a30013003a000b00e0004e
:10090000130034008b05e9000804440089844c007e
:100910000a4474000978a3000d003a000b00e000bf
:10092000070034008b05e9000804440089844c006a
:1009300001003a000b0020000978a300f7ff320005
:100940000001eb0002003700828171000a0178008b
:100950008e0007000cf0a70001f0a000d7003700c0
:100960006420e10002003a00838f6c00d70033005e
:100970000801be000200be00d0003700889fbe0004
:100980008a9fbe008c1f7800bb000700c2003300a6
:1009900003866c006450e1002e0032006420e10008
:1009a000330032006150e1002f0032006120e1008d
:1009b0003100320085855500eb07b00009002000aa
:1009c00008042000050037000804440089844c0016
:1009d0000a0031000603430087834b0000015300e7
:1009e00081815b00f8ff33000203be000800a00015
:1009f0000804440089844c00f6ff3900c639dd0044
:100a00008301730001003200130020008904d1002b
:100a10000884d3000998a300050032000800a7004d
:100a20000300a0008904d1000884d3008b05e800ee
:100a30008904d1000884d3000001eb000281d200b8
:100a40005200070001f0a1000cf0a70001f0a00087
:100a50009a0037006420e1009c0032000801be00cb
:100a60000200be00f7ff37006120e100970032006e
:100a70006000b800f3ff37000000200001f82700f5
:100a8000f0ff370014002000c7003700f4ff2f00ec
:100a9000c50037000001be00620007000470a70017
:100aa00003f0a1006509b100160032000d00350009
:100ab0006828e10006003500f0ff2f00f1ff270055
:100ac0000300e00013003b000100280000000500c7
:100ad00000004000818048008502e900fcff3a00e8
:100ae00008003700f88f420002003c008000eb0055
:100af000000005008100d1000080d3008502e800dd
:100b0000fcff3a000300e00002003b006000100020
:100b1000e0801800000006000001be004100070050
:100b20000470a70003f0a10003f8a30013003a002b
:100b30006509b10010003200090035006928e100a4
:100b40000200350001002800000005000000400000
:100b5000818048008502e900fcff3a0000000600a1
:100b6000f88f4200050035008100d1000080d300dd
:100b70008502e800fcff3a00000006008000eb0060
:100b8000000005006011b800a200370081002000bd
:100b9000618055000b003d000b00200061fe2f001e
:100ba0000100e1001d0034008281710061016400d8
:100bb0008904d1000884d3000000e800faff3a005d
:100bc00071002000610064000300700002006000fa
:100bd0000900320061044400e0844c000988a5004b
:100be000050032008b05e8006808e10002003a00c9
:100bf0008904d1000884d300f20f20000258e100dc
:100c000005003d00c75ddd00f907b2008980750071
:100c100008007800000006000bf827008b00780021
:100c200000000500c70ade00f107b200f50fb200b0
:100c300008003200e1cf4200020032000170a00043
:100c400024000500810f7000010032000408050037
:100c500044000500810f700002003a0014000500f6
:100c60008502e9000000400081c04800fcff3b0015
:100c70000170a000240005000004be00e9ff070089
:100c80000003be000405be000200be00e5ff070031
:100c9000844f7500000006000200be006450e100b1
:100ca000050036006420e100020036000968a30058
:100cb00001003a000800be000160a0004f06780065
:100cc0004f05be004f04be0000000600f0ff2f00dd
:100cd000f1ff2700f9ff3700889fbe008a9fbe0002
:100ce0008c1f7800e4ff0700ebff330003866c00e5
:100cf0006450e100240032006420e100270032004b
:100d00006150e100220032006120e1002100320048
:100d10008b854200eb07b1000134b800003ab800ff
:100d20000804420089844a00013ab8000030b80043
:100d30008880400009014a000400330000004000a0
:100d400081804800020149008b05e900c909dd00e6
:100d5000830170000100320013002000c814de007f
:100d60004814dd004709de001200b200c808de00aa
:100d70000884700085ff070001f0a1000cf0a700b7
:100d800001f0a000cdff37006120e100cfff32006d
:100d90000801be000200be00f7ff37006150e1000d
:100da000fcff3a00c9ff3700889fbe008a9fbe0043
:100db000841f7800b0ff07004f0078001100330057
:100dc000f0ff2f00838f6c0006003b0004056500d8
:100dd0000a00a7000800370009f0a6001000200054
:100de00008003700820f5400838f5c000300390035
:100df0001000200001003e000000200009f0a700c4
:100e00000000ea004f05be004f04be000000e000f5
:100e100000000600889fbe008a9fbe00008270000e
:100e20000402710004827100260032000004be003a
:100e30000200be006011b8006b092000950220007e
:100e40000182cf000a0039000541b1000082cf00c5
:100e5000070039000541b1000982cf0004003900c4
:100e60000541b1000882cf00010039000541b10001
:100e700005425200120032000a003b0082817100dc
:100e8000610164008100d1000080d3008984d30017
:100e90000884d3008b05e8000442e800f7ff3a001d
:100ea000070037000804440089844c000000480013
:100eb000818048008b05e9000442e900f9ff3a000f
:100ec00032ff07004f05be004f04be0000000600c1
:020000040000fa
:100ed0000000fa0008d0bf000080fb00cf80de00d9
:100ee000f202200003002000820f5000838f580080
:100ef00092013e00000601002f0037003800370045
:100f0000410037004b0037004c00370056003700d7
:100f10005700370061003700620037006c0037006f
:100f20006d003700770037008401370083013700f8
:100f30008201370081013700740037007d003700df
:100f40007e00370087003700940037009d0037008f
:100f5000860037008f0037009c003700a60037005e
:100f6000a7003700b1003700bf003700c9003700c5
:100f7000b0003700ba0037000c0137001601370007
:100f80001701370025013700d1003700db0037009b
:100f9000c2003700cc003700f700370001013700ee
:100fa000d8003700e60037002a0137003801370043
:100fb00045013700530137000030ef000230ef00e9
:100fc000120020006000b800430507000001eb009c
:100fd0006000b8004005070010c0b30008f0b7007b
:100fe0000280800013808000803e200001002000ed
:100ff000800f5100818f59005301360020c0b3008b
:1010000008f0b7005901370012002000000020004e
:10101000011a2400300507000001eb000000200049
:10102000011a24002c05070030c0b30008f0b700f7
:101030004e0137004f0107004c013700120020001d
:1010400000002000811c2400230507000001eb00a4
:1010500000002000011724001f05070050c0b30046
:1010600008f0b70041013700420107003f01370097
:1010700012002000000020000117240016050700c0
:101080000001eb0000002000811c24001205070075
:1010900070c0b30008f0b700340137003501070015
:1010a0003201370012002000000020000117240048
:1010b000090507000001eb000000200001172c00cb
:1010c0000505070090c0b30008f0b70027013700fe
:1010d0002801070025013700120020000000200031
:1010e00001172c00fc0407000001eb0000002000a9
:1010f00001172400f8040700b0c0b30008f0b700df
:101100001a0137001b0107001801370012002000e8
:101110006000b800f00407000001eb0000002000b0
:1011200001172c00ec04070010c1b30008f0b70051
:101130000e0137000f0107000c01370012002000dc
:101140000000200001172c00e30407000001eb0061
:101150006000b800e004070030c1b30008f0b70039
:1011600002013700030107000001370012002000d0
:101170000000200001172c00d70407000001eb003d
:101180006000b800d404070030c1b30008f0b70015
:10119000f6003700f7000700f400370012002000c7
:1011a0006000b800cc0407000001eb000000200044
:1011b00001172c00c804070050c1b30008f0b700a5
:1011c000ea003700eb000700e800370012002000bb
:1011d00000002000811c2400bf0407000001eb0078
:1011e0000000200001172400bb04070090c1b300d9
:1011f00008f0b700dd003700de000700db00370035
:10120000120020000000200001172400b204070093
:101210000001eb0000002000811c2400ae04070048
:10122000b0c1b30008f0b700d0003700d10007000c
:10123000ce0037001200200000002000010a240028
:10124000a50407000001eb0000002000811c240021
:10125000a1040700f0c1b30008f0b700c3003700d5
:10126000c4000700c1003700120020000000200069
:10127000811c2400980407000001eb0000002000fe
:10128000010a240094040700d0c1b30008f0b7009d
:10129000b6003700b7000700b40037001200200086
:1012a00000002000811c24008b0407000001eb00db
:1012b00000002000011a24008704070070c2b30058
:1012c00008f0b700a9003700aa000700a700370000
:1012d0001200200000002000011a24007e040700f4
:1012e0000001eb0000002000811c24007a040700ac
:1012f00050c2b30008f0b7009c0037009d00070003
:101300009a0037001200200000002000011724007e
:10131000710407000001eb000000200001172c0001
:101320006d0407000080800011808000208088000c
:1013300031808800b0c2b30008f0b7008b003700de
:101340000280800013808000208080003180800037
:101350000001510081815900803e200001002000e1
:10136000800f5100818f59007900360020c0b300f2
:1013700008f0b7007d0037001200200000002000b8
:1013800001172400540407000001eb0000002000b6
:1013900001172c005004070090c2b30008f0b700fa
:1013a0007200370073000700700037001200200041
:1013b0000000200001172c00470407000001eb008b
:1013c00000002000011724004304070010c2b300ee
:1013d00008f0b700650037006600070063003700bb
:1013e0001200200000002000011224003a0407002f
:1013f0000001eb000000200001122c003604070061
:10140000008080001180800020808800318088006a
:1014100030c2b30008f0b7005400370002808000eb
:101420001380800020808000318080000001510006
:1014300081815900a009210001002000800f510086
:10144000818f59004400360020c0b30008f0b70077
:1014500046003700120020000000200001172c0079
:101460001d0407000001eb0000002000011724000c
:10147000190407000080800011808000208088000f
:1014800031808800d0c2b30008f0b70037003700c1
:1014900002808000138080002080800031808000e6
:1014a0000001510081815900401f200001002000ef
:1014b000800f5100818f59002900360020c0b300f1
:1014c00008f0b700290037001200200000002000bb
:1014d00001172400000407000001eb0000002000b9
:1014e00001172c00fc0307000080800011808000a1
:1014f0002080880031808800f0c2b30008f0b70077
:101500001a00370002808000138080002080800055
:10151000318080000001510081815900401f20006e
:1015200001002000800f5100818f59000e0036000d
:1015300020c0b30008f0b7000c0037000870ef00bf
:10154000000000000900370000000000070037001d
:101550000000000005003700000000000300370015
:101560000000000001003700000000000080fa00c9
:10157000000006000a00fa00881f7800208e800014
:10158000318e800018c0b300020020000312240036
:101590003cfd07000000e000010035000044eb00c6
:1015a0000804e00013003200e48d8000f58d800017
:1015b000008e8000118e800018c0b3000001be00b4
:1015c0000400be0031fd07000000e00001003c0007
:1015d0000044eb000804e00003003200c0c2b30086
:1015e0000af0b700fc003700e0c2b3000af0b70011
:1015f000f9003700008e8000118e800018c0b30003
:1016000002002000031024001efd07000000e0007f
:10161000010035000044eb000804e0000300320044
:1016200000c2b3000af0b700eb003700e08d800085
:10163000f18d800018c0b3000200200003102400c8
:1016400010fd07000000e000010035000044eb0041
:101650000804e0000300320080c2b3000af0b700c3
:10166000dd003700608e8000718e800018c0b300ee
:10167000020020000310240002fd07000000e0002b
:10168000010035000044eb000804e00003003200d4
:1016900000c2b3000af0b700cf003700408e8000d0
:1016a000518e800018c0b3000200200003102400f7
:1016b000f4fc07000000e000010035000044eb00ee
:1016c0000804e0000300320080c2b3000af0b70053
:1016d000c1003700eb00070009f0b70009d0bf00d8
:1016e0000080fb00cf80de00f2012000030020001c
:1016f000820f5000838f5800b7003e0000060100a3
:10170000b20037001e0037002300370028003700e2
:101710005c0037002c003700300037003500370000
:101720002000370039003700ab003700aa0037002f
:101730002d003700410037006800370039003700be
:10174000120037007b003700330037004a003700b3
:10175000200037005e0037003b0037003d003700b7
:1017600016003700410037009b0037008400370027
:10177000230037003a0037002d0037006a00370099
:1017800060c2b3000af0b7009300370040c2b30054
:101790000af0b7009000370080c1b3000af0b7002c
:1017a0008d003700a0c1b3000af0b7008a003700ef
:1017b00080c1b3000af0b70087003700a0c1b300b2
:1017c0000af0b7008400370040c0b3000af0b70049
:1017d0008100370060c0b3000af0b70040c0b3001a
:1017e0000af0b7007c00370060c0b3000af0b70011
:1017f0007900370040c0b3000af0b7007600370028
:1018000060c0b3000af0b70073003700c0c1b30076
:101810000af0b70070003700e0c1b3000af0b7006b
:101820006d003700c0c1b3000af0b7006a0037008e
:10183000e0c1b3000af0b70067003700c0c1b300d1
:101840000af0b70064003700e0c1b3000af0b70047
:1018500061003700a0c0b3000af0b7005e00370097
:1018600080c0b3000af0b7005b003700a0c0b3002f
:101870000af0b7005800370080c0b3000af0b70084
:1018800055003700e48d8000f58d8000008e8000cb
:10189000118e800018c0b3000001be000400be001d
:1018a0007afc07000000e00001003c000044eb006f
:1018b0000804e00003003200c0c2b3000af0b70021
:1018c00045003700e0c2b3000af0b700420037001d
:1018d000a0c2b3000af0b7003f003700448e80007a
:1018e000558e8000608e8000718e800018c0b3001d
:1018f0000001be000400be0064fc07000000e00020
:1019000001003c000044eb000804e000030032004a
:10191000c0c2b3000af0b7002f003700e0c2b30026
:101920000af0b7002c003700a0c2b3000af0b700dd
:1019300029003700448e8000558e8000608e800024
:10194000718e800018c0b3000001be000400be000c
:101950004efc07000000e00001003c000044eb00ea
:101960000804e00003003200a0c1b3000af0b70091
:101970001900370080c1b3000af0b7001600370025
:10198000448e8000558e8000608e8000718e8000b5
:1019900018c0b3000001be000400be003bfc0700fd
:1019a0000000e00001003c000044eb000804e000ff
:1019b00003003200a0c1b3000af0b70006003700f0
:1019c00080c1b3000af0b7000300370020c0b300a5
:1019d0000af0b700000000000ad0bf008080fb00c2
:1019e00008d0bf000080fb000000e900808f50009d
:1019f000210032000ad0bf0008f0b700028080004a
:101a000013808000028fbe0008d0bf0040479800be
:101a10001e0078009e0090004808de00004078001c
:101a2000504798001e0078009e0090004008de009d
:101a300000407800604798001e0078009e009000eb
:101a4000c809dd004800de0000807100c808de0023
:101a500000407800704798001e0078000040780031
:101a6000004f9800640047000001780051002000fa
:101a7000000520008f0107004f0478000080fa0065
:101a8000000006000000fa00881f78000970ef00cf
:101a9000608e8000718e800018c0b30002002000ac
:101aa00003122400f7fb07000000e00001003500ee
:101ab0000044eb000804e0000300320009d0bf003e
:101ac0000044a00009f0b700008e8000118e800055
:101ad00018c0b3000200200003172400e9fb070030
:101ae0000000e000010035000044eb000804e000c5
:101af0000300320009d0bf000034a00009f0b70095
:101b0000208e8000318e800018c0b30002002000bb
:101b1000831c2400dbfb07000000e000010035000f
:101b20000044eb000804e0000300320009d0bf00cd
:101b30000024a00009f0b700e08d8000f18d800046
:101b400018c0b3000200200003172400cdfb0700db
:101b50000000e000010035000044eb000804e00054
:101b60000300320009d0bf000014a00009f0b70044
:101b7000408e8000518e800018c0b300020020000b
:101b800003122400bffb07000000e0000100350045
:101b90000044eb000804e0000300320009d0bf005d
:101ba0000004a00009f0b70009d0bf004f0478007e
:101bb0000080fa00000006000000fa0013e1a9000e
:101bc00011e1a9001061a8001021a900810880007e
:101bd000f0fc2f0000806000800888000a21ef00e0
:101be0000621ef00202620007008880000a02500b4
:101bf000600888002142800080ff2f000080600084
:101c00000000a000204288000108a9002108a800c7
:101c100011e1a8000080fa00000006000000fa00b0
:101c200005e1a9000421a9000068a9002068a80016
:101c300005e1a80000002000a13724000d000700e6
:101c40000080fa00000006000000fa001fe1a90071
:101c50001e21a9000368a9002368a8001fe1a800ad
:101c600000002000a1472400760007000080fa0051
:101c7000000006000400fa00881f7800008fbe00f4
:101c800021088000f0fc2f00008060002008880000
:101c90001e0178009e0190000068290081c1240087
:101ca00036fb070018c0b30002f02f00f3772400c2
:101cb00076fb07000000e00001003c000044eb0060
:101cc0000804e0005400320021088000f0fc2f00de
:101cd000008060000040a000200888001e017800fd
:101ce0009e0190000068290081c1240023fb0700a9
:101cf000020020000310240020fb070018c0b300de
:101d000002f02f00f377240060fb07000000e000e2
:101d100001003c000044eb000804e0003200320007
:101d200021088000f0fc2f00008060000050a0001f
:101d3000200888001e0178009e019000006829009c
:101d400081c124000dfb07000200200003282400ad
:101d50000afb070018c0b30002f02f00f37724003d
:101d60004afb07000000e00001003c000044eb00db
:101d70000804e00010003200210880000003200069
:101d800001007000200888001e0178009e0190006c
:101d90000068290081c12400f8fa07000200200031
:101da00003382400f5fa07003afb0700000078002a
:101db00010088800200037001e0178009e01900066
:101dc0000068290081c12400ecfa0700020020000d
:101dd00003282400e9fa07002efb07000000780022
:101de00010088800140037001e0178009e01900042
:101df0000068290081c12400e0fa070002002000e9
:101e000003102400ddfa070022fb07000000780021
:101e100010088800080037001e0178009e0190001d
:101e20000068290081c12400d4fa070019fb0700cb
:101e300000007800100888004f0478000080fa0045
:101e4000000006000400fa00881f7800008fbe0022
:101e5000f1088000f0fc2f0000806000f00888008e
:101e60001e0178009e0190000068290081c12400b5
:101e7000c2fa070018c0b30002f02f00f377240065
:101e800002fb07000000e00001003c000044eb0002
:101e90000804e00054003200f1088000f0fc2f003c
:101ea000008060000040a000f00888001e0178005b
:101eb0009e0190000068290081c12400affa07004c
:101ec0000200200003102400acfa070018c0b30081
:101ed00002f02f00f3772400ecfa07000000e00086
:101ee00001003c000044eb000804e0003200320036
:101ef000f1088000f0fc2f00008060000050a0007e
:101f0000f00888001e0178009e01900000682900fa
:101f100081c1240099fa0700020020000328240050
:101f200096fa070018c0b30002f02f00f3772400e0
:101f3000d6fa07000000e00001003c000044eb007e
:101f40000804e00010003200f108800000032000c7
:101f500001007000f00888001e0178009e019000ca
:101f60000068290081c1240084fa070002002000d3
:101f70000338240081fa0700c6fa07000000780041
:101f8000d0088800200037001e0178009e019000d4
:101f90000068290081c1240078fa070002002000af
:101fa0000328240075fa0700bafa07000000780039
:101fb000d0088800140037001e0178009e019000b0
:101fc0000068290081c124006cfa0700020020008b
:101fd0000310240069fa0700aefa07000000780039
:101fe000d0088800080037001e0178009e0190008c
:101ff0000068290081c1240060fa0700a5fa0700e3
:1020000000007800d00888004f0478000080fa00b3
:10201000000006000a00fa00200798003107980027
:10202000420798000040eb00004f7800e0cfb3007b
:102030001e4f68002e0090004880de0000407800af
:102040001e4f68002e009000004078001e4f680070
:102050003e0090004880de00004078001e4f68007f
:102060003e009000004078001e4f68000000eb002a
:1020700010079800080037001e009000ce00900066
:1020800000804000104078001e4f68001e00900045
:102090000000e800100798009e0090003e009000ad
:1020a000808f5000f4ff35001e4078000080fa0059
:1020b000000006000e00fa00889fbe00400798004e
:1020c00051079800620798000f0478000f0078000d
:1020d000800478000000eb00000f78005e009000a4
:1020e000660040008000e900210798000000e80039
:1020f0000000e8000000d100800040000f007800e0
:10210000818747000000e8000000d1000000400087
:10211000300798003e0090001e004000e1cfb30061
:10212000014878001e0fe8004e0090004880de0055
:10213000804078003e0090001e004000014878007a
:102140001e0fe8004e009000804078003e00900096
:102150001e004000014878001e0fe8005e0090005d
:102160004880de00804078003e0090001e00400065
:10217000014878001e0fe8005e0090008040780063
:102180003e0090001e004000014878001e0fe8004d
:102190000000eb00100798000000eb00100798000b
:1021a0000b0037001e009000ee0090000080400001
:1021b000904078003e0090001e00400001487800ea
:1021c0001e0fe8001e0090000000e80010079800b5
:1021d0009e0090005e009000808f5000f1ff35005f
:1021e0006e019000de0090004e00900089ff070015
:1021f000be0090009e804000804878001e0fe800de
:102200003e0090009e007800a70207008907780032
:10221000880778004f04be000080fa000000060026
:102220000600fa00881f7800404798000f047800e5
:1022300060808000e30f500025003200e30f500063
:1022400007003c00e10f500012003200e10f500087
:1022500017003c000000e000080032006700370073
:10226000e50f500046003200e50f50001f0035001a
:10227000e60f500051003200600037004e409000e1
:10228000e24f400060003a001000200060808800ab
:10229000600037004e4090000080fb004800dd00e9
:1022a000708088002000200060808800590037007e
:1022b0004e4090008080fb007080800000804000d5
:1022c0007080880030002000608088005100370056
:1022d0004e4090000080fb004800dd0080808800b8
:1022e00040002000608088004a0037004e40900087
:1022f0008080fb008080800000804000808088001b
:10230000808080000000e00003003a0060002000b0
:10231000608088003f00370081808000f007200047
:10232000808f5000020034000c30ef00390037007d
:102330000f00780080007800808080000001e900b4
:10234000020f78000000e8000000e8000000d10063
:10235000000140000f007800828747000000e8007d
:102360000000d10000004000100798001230ef007c
:102370005000200060808800810778002500370029
:1023800090808000a112210000804000ce4090008b
:1023900001487800908080000000e800908088006c
:1023a0009180800080808000808f50001800350070
:1023b0006000200060808800160037008180800067
:1023c00070808000a212210012ff070014f0b700f5
:1023d00041012100914078004e40900080cf500094
:1023e00004003a008180800070808000a2122100e9
:1023f0000c0007000c30ef00060037000c30ef0037
:10240000000000000300370000000000010037005a
:1024100000000000880778004f0478000080fa0070
:10242000000006000600fa00000f7800110798006f
:10243000220798001e00780001032000810f500041
:102440000400320001032000810f5000030034001b
:10245000030037000000000001003700000000000a
:102460000080fa00000006000000fa001160800001
:1024700080ff2f00008060001060880000fa2000bc
:102480002060880023aca800238ca8001161800084
:10249000f03f2f000080600000a0a00010618800c5
:1024a0003000200020618800c3aca800c38ca800c5
:1024b00011668000f03f2f000080600000a0a000a7
:1024c00010668800300020002066880001eca8001b
:1024d0000080fa00000006000600fa00008fbe002f
:1024e000220798002e0090000000e00005003a004e
:1024f0001e0178009e019000628d8800738d880017
:10250000070037002e009000e10f500004003a0051
:102510001e0178009e019000a28d8800b38d880076
:102520000080fa00000006000000fa00889fbe004c
:10253000c48d8000d58d8000a08d8000b18d80007d
:1025400018c0b3000001be000400be004df9070032
:102550000000e000010035000044eb000804e0004a
:102560000d003200a88d8000b98d8000c48d8000e0
:10257000d58d8000e0808000f18080000001be00e9
:102580000400be00a0f807000801be006d010700ae
:10259000c08d8800d18d8800c48d8000d58d8000cd
:1025a000a08d8000b18d800018c0b3000001be0076
:1025b0000400be0035f907000000e00001003c0007
:1025c0000044eb000804e0000d003200a88d8000fc
:1025d000b98d8000c48d8000d58d8000e0808000a2
:1025e000f18080000001be000400be0085f80700f5
:1025f0000801be003b010700c08d8800d18d880016
:10260000c08d8000d18d800018c0b3006011b8006b
:102610001ef907000000e00001003c000044eb0050
:102620000804e00004003200c3eca90024cea80096
:10263000c3cca80003003700c3cca90024eea80037
:10264000c3eca800c08d8000d18d80000f01070071
:1026500002002000032224009ff907002ef9070042
:102660000000780030668800848d8000958d8000a1
:10267000608d8000718d800018c0b3000001be0025
:102680000400be00fff807000000e0000100350074
:102690000044eb000804e0000d003200688d80006b
:1026a000798d8000848d8000958d8000e080800091
:1026b000f18080000001be000400be0052f8070057
:1026c0000801be001f010700808d8800918d8800e1
:1026d000848d8000958d8000608d8000718d8000dc
:1026e00018c0b3000001be000400be00e7f80700f8
:1026f0000000e00001003c000044eb000804e000a2
:102700000d003200688d8000798d8000848d8000fe
:10271000958d8000e0808000f18080000001be0087
:102720000400be0037f807000801be00ed000700f6
:10273000808d8800918d8800808d8000918d800033
:1027400018c0b3006011b800d0f807000000e00026
:1027500001003c000044eb000804e00004003200eb
:1027600023cca90015eea80023eca8000300370035
:1027700023eca90015cea80023cca800808d8000f2
:10278000918d8000c1000700020020000322240078
:1027900051f90700e0f80700000078003061880078
:1027a0004f04be000080fa00000006000c00fa0092
:1027b000889fbe0066020700ba02070030020700c9
:1027c00016fd0700fcfc07001ffd070026ff0700a1
:1027d0009801070064cea80064eea800254ea8006a
:1027e00001003700000000000000eb00000f78003f
:1027f00006003700ec010700004f98006800470012
:1028000011002000280107001e0fe8000902070040
:102810000000e000f7ff3a00c8010700e14f500058
:10282000f0ff3a00c9010700c00107001007980037
:102830001e00900068004000100078008000eb004f
:10284000d0f80700323323003305240022f90700b3
:10285000020020000358240048f80700d2cc2c00c6
:10286000c30424001cf907002007980031079800d2
:102870002e019000be019000000020008120240065
:102880003ef8070002002000030a2400ddf70700dd
:10289000008e8800118e88001e00900066004000a7
:1028a000100078008000eb00b6f8070032332300f8
:1028b0003305240008f90700020020000358240013
:1028c0002ef80700d2cc2c00c304240002f9070024
:1028d00020079800310798002e019000be0190005b
:1028e000000020008120240024f8070002002000be
:1028f000030a2400c3f70700608e8800718e8800e9
:102900001e00900064004000100078008000eb0082
:102910009cf807003233230033052400eef807004b
:10292000020020000358240014f80700d2cc2c0029
:10293000c3042400e8f80700200798003107980036
:102940002e019000be019000000020008120240094
:102950000af8070002002000030a2400a9f7070074
:10296000208e8800318e88001e0090000080e800d4
:10297000100078008000eb0082f80700323323005b
:1029800033052400d4f80700020020000358240077
:10299000faf70700d2cc2c00c3042400cef80700bd
:1029a00020079800310798002e019000be0190008a
:1029b0000000200081202400f0f707000200200022
:1029c000030a24008ff70700e08d8800f18d88004e
:1029d0001e009000100078008000eb0069f80700ee
:1029e0003233230033052400bbf807000200200027
:1029f00003582400e1f70700d2cc2c00c3042400c4
:102a0000b5f8070020079800310798002e019000c4
:102a1000be0190000000200081202400d7f70700ad
:102a200002002000030a240076f70700408e880089
:102a3000518e8800008e8000118e800036f80700cd
:102a400080447800208e8000318e800032f80700ac
:102a500000447800e08d8000f18d80002ef80700a2
:102a600000407800194f9800284f9800304f980088
:102a700069004700000178003100200000032000b9
:102a80008cfd070012f9070057ff37000400fa0019
:102a9000881f7800008fbe0018c0b3006011b80016
:102aa0001e0078009e009000f8f707000000e0008c
:102ab00001003d000044eb000804e0000300320088
:102ac0001e0078009e009000030037001e00780072
:102ad0009e00900001f0a2004f0478000080fa00f0
:102ae000000006000800fa00881f7800008fbe0072
:102af000220798003307980018c0b3002e019000f9
:102b0000be0190001e0078009e009000dff70700d5
:102b10000000e00001003c000044eb000804e0007d
:102b2000030032001e0078009e0090000200370073
:102b30002e009000be0090004f0478000080fa0044
:102b4000000006000800fa00881f7800008fbe0011
:102b5000220798003307980018c0b3002e01900098
:102b6000be0190001e0078009e009000c5f707008f
:102b70000000e000010035000044eb000804e00024
:102b8000030032001e0078009e0090000200370013
:102b90002e009000be0090004f0478000080fa00e4
:102ba000000006000c00fa00881f7800008fbe00ad
:102bb00022079800330798004407980055079800ab
:102bc00018c0b3004e019000de0190001e00780096
:102bd0009e009000adf707000000e00001003c00ff
:102be0000044eb000804e000040032004e019000b5
:102bf000de019000028fbe000e00370018c0b30047
:102c00002e019000be0190001e0078009e009000f2
:102c10009cf707000000e000010035000044eb00d5
:102c20000804e000030032002e019000be01900075
:102c3000028fbe001e0078009e0090004f047800b6
:102c40000080fa00000006000400fa00008fbe00b9
:102c5000b2fd2000930424001e0078009e00900026
:102c600046f7070002002000433324001af807004b
:102c70000080fa00000006000400fa00008fbe0089
:102c8000b2fd2000930424001e0078009e009000f6
:102c900011f80700020020004333240037f7070033
:102ca0000080fa00000006000600fa0010079800f5
:102cb000210798000040eb00004f78005400070007
:102cc000ae009000810f5000110034000040eb0076
:102cd000004f7800060037001e80fb009e00900029
:102ce00000804000104078000b0007001e4fe800f5
:102cf0009e80fb002e009000808f5000f6ff350074
:102d00002e0007000004e00001003a002200070046
:102d10000080fa00000006000200fa00004f780070
:102d2000b0808000a1022100008040001e48780091
:102d3000b08080000000e800b0808800b180800092
:102d4000f0072000808f5000010034001630ef00a3
:102d50000080fa00000006000200fa00c080800037
:102d6000a102210000804000104f7800c080800048
:102d70000000e800c0808800c1808000f0072000cb
:102d8000808f5000010034001830ef001e407800a2
:102d90000080fa00000006000200fa0010c0b30034
:102da0001af0b700ecff0700004f78001e80fb0010
:102db000201188000080fa00000006000000fa00e0
:102dc0001ad0bf000080fa00000006000200fa00de
:102dd000b1808000c0808000808f500004003500ea
:102de000b1808000c0808000008f50000500370057
:102df000b1808000c0808000008050000108200069
:102e0000010f40001e0078000080fa00000006005c
:102e10000200fa000000eb00000f7800ebff070053
:102e200001082000008f50001e0078000080fa008a
:102e3000000006000000fa0021e3a9002143a800d9
:102e400001198000f0cf2f00008060000019880079
:102e50002043a90001198000000e2000010070002d
:102e60000019880011198000f0ff21000080600027
:102e7000101988002343a80011198000f0cf2f00fb
:102e800000806000101988001119800030f82f00b0
:102e9000008060000040a000101988002203a900f3
:102ea0002223a90025e3a900f0c0b30024e3b70062
:102eb00021198000f00f2e008080600000f02000bb
:102ec00001007000201988003303a9002e0ea8000d
:102ed0002f6ea8006f2ea8001e2ea8004feea8008f
:102ee0003063a80030c3a8003163a80031e3a80014
:102ef0002e03a8004119800000fc2f000080600014
:102f00004019880028e3a90001a8a90021a8a80069
:102f100021e3a8000080fa00000006000000fa008b
:102f20002023a8000080fa00000006000000fa003c
:102f3000001d21000080fa00000006000000fa00d9
:102f400029d0bf000080fa00000006000000fa004f
:102f50002970ef000080fa00000006000200fa006d
:102f6000004f78002a0007000000e0000c00340049
:102f700000818000a10a2100008040001e487800e6
:102f8000008180000000e80000818800018180004d
:102f900000082000808f5000010034002030ef0036
:102fa0000080fa00000006000200fa001081800094
:102fb000a10a210000804000104f7800108180009d
:102fc0000000e800108188001181800000082000c6
:102fd000808f5000010034002230ef001e40780046
:102fe0000080fa00000006000000fa000181800065
:102ff00010818000808f50000200320010c0b300aa
:10300000010037000040eb000080fa0000000600dd
:103010000200fa000000eb00000f78000500070036
:1030200001082000008f50001e0078000080fa0088
:10303000000006000200fa000000eb00000f78001c
:103040000181800010818000808f500004003500d5
:103050000181800010818000008f50000500370042
:103060000181800010818000008050000108200054
:10307000010f40001e0078000080fa0000000600ea
:103080000000fa002002a9000111800090ff2f002b
:10309000008060000011880020a2a9002062a80022
:1030a000500520004011880023a2a90023e2a900b6
:1030b0000188a9002188a80011118000f0f32f00d9
:1030c00000806000101188000168a9002168a80034
:1030d00021e2a8002342a8000080fa0000000600b8
:1030e0000600fa0010079800210798000040eb0046
:1030f000004f78000040eb00004f78000e003700d2
:1031000000000000111180000020200000806000fd
:103110000000e000fbff3a001e0090001040780025
:103120000080fb00201188001e0090000000e800d5
:10313000100798001e4fe8009e80fb002e009000b4
:10314000808f5000eeff35000080fa00000006007e
:103150000000fa00f0032000303a8800213a800095
:10316000f0f32f0000806000203a8800213a8000b0
:1031700000fe2f00008060000000a000203a8800c0
:103180001200200080072000a109200033742000d5
:10319000804978008149780082497800103a80009f
:1031a000000178000200a0006004200071052000ea
:1031b0002374200080497800814978008249780092
:1031c00000000000113a80000000270080806000ad
:1031d00000002100808f5000faff3a00000000003c
:1031e000113a800000022000008060000000e00032
:0c31f000fbff32000080fa000000060027
:020000040000fa
:1031fc0024100000020000008000000026100000d7
:10320c0002000000800000001c1000000400000000
:10321c00820000000000480042000000aa110000db
:10322c002600000080000000d01100000a00000001
:10323c008000000028100000020000008000000048
:10324c00001000000c000000800000002a1000009c
:10325c008000000080000000161000000600000036
:10326c0080000000aa100000800000008000000018
:10327c002010000004000000800000002a11000053
:10328c0080000000800000000c1000000a0000000c
:08329c008000000000000000aa
:020000040000fa
:1032a4000000fa000e2eef001e2eef002e2eef006f
:1032b4003e2eef004e2eef005e2eef006e2eef003e
:1032c400214ea90060cea90060eea90011cea9008c
:1032d40011eea90020cea90020eea900213680001d
:1032e40000f82f00008060008001b30020368800c1
:1032f4001134800000fc2f00008060000000a0005a
:0c330400103488000080fa000000060071
:020000040000fa
:02000004000af0
:04afe000cfff00009f
:020000040000fa
:02000004000af0
:04afe400ffff00006b
:020000040000fa
:02000004000af0
:04afe8007fff0000e7
:020000040000fa
:02000004000af0
:04afec005fff000003
:020000040000fa
:02000004000af0
:04aff00038ff000026
:020000040000fa
:02000004000af0
:04aff400ffff00005b
:00000001FF
