:020000040000fa
:080000000002040000000000f2
:020000040000fa
:040008007003000081
:020000040000fa
:04000c00700300007d
:020000040000fa
:040010007003000079
:020000040000fa
:040014007003000075
:020000040000fa
:040018007003000071
:020000040000fa
:04001c00700300006d
:020000040000fa
:040020007003000069
:020000040000fa
:040024007003000065
:020000040000fa
:040028007003000061
:020000040000fa
:04002c00700300005d
:020000040000fa
:040030007003000059
:020000040000fa
:0400340002030000c3
:020000040000fa
:040038007003000051
:020000040000fa
:04003c00700300004d
:020000040000fa
:040040007003000049
:020000040000fa
:040044007003000045
:020000040000fa
:04004800fa020000b8
:020000040000fa
:04004c00700300003d
:020000040000fa
:040050007003000039
:020000040000fa
:040054007003000035
:020000040000fa
:040058007003000031
:020000040000fa
:04005c004c03000051
:020000040000fa
:040060007003000029
:020000040000fa
:040064007003000025
:020000040000fa
:040068007003000021
:020000040000fa
:04006c00700300001d
:020000040000fa
:040070007003000019
:020000040000fa
:040074007003000015
:020000040000fa
:040078007003000011
:020000040000fa
:04007c00700300000d
:020000040000fa
:040080007003000009
:020000040000fa
:040084007003000005
:020000040000fa
:040088007003000001
:020000040000fa
:04008c0070030000fd
:020000040000fa
:0400900070030000f9
:020000040000fa
:040094002203000043
:020000040000fa
:0400980070030000f1
:020000040000fa
:04009c0070030000ed
:020000040000fa
:0400a00070030000e9
:020000040000fa
:0400a40070030000e5
:020000040000fa
:0400a80070030000e1
:020000040000fa
:0400ac0070030000dd
:020000040000fa
:0400b00070030000d9
:020000040000fa
:0400b40070030000d5
:020000040000fa
:0400b80070030000d1
:020000040000fa
:0400bc0070030000cd
:020000040000fa
:0400c00070030000c9
:020000040000fa
:0400c40070030000c5
:020000040000fa
:0400c80070030000c1
:020000040000fa
:0400cc0070030000bd
:020000040000fa
:0400d00070030000b9
:020000040000fa
:0400d40070030000b5
:020000040000fa
:0400d80070030000b1
:020000040000fa
:0400dc0070030000ad
:020000040000fa
:0400e00070030000a9
:020000040000fa
:0400e40070030000a5
:020000040000fa
:0400e80070030000a1
:020000040000fa
:0400ec00700300009d
:020000040000fa
:0400f0007003000099
:020000040000fa
:0400f4007003000095
:020000040000fa
:0400f8007003000091
:020000040000fa
:0400fc00700300008d
:020000040000fa
:040100007003000088
:020000040000fa
:040104007003000084
:020000040000fa
:040108007003000080
:020000040000fa
:04010c00700300007c
:020000040000fa
:040110007003000078
:020000040000fa
:040114007003000074
:020000040000fa
:040118007003000070
:020000040000fa
:04011c00700300006c
:020000040000fa
:040120007003000068
:020000040000fa
:040124007003000064
:020000040000fa
:040128007003000060
:020000040000fa
:04012c00700300005c
:020000040000fa
:040130007003000058
:020000040000fa
:040134007003000054
:020000040000fa
:040138007003000050
:020000040000fa
:04013c00700300004c
:020000040000fa
:040140007003000048
:020000040000fa
:040144007003000044
:020000040000fa
:040148007003000040
:020000040000fa
:04014c00700300003c
:020000040000fa
:040150007003000038
:020000040000fa
:040154007003000034
:020000040000fa
:040158007003000030
:020000040000fa
:04015c00700300002c
:020000040000fa
:040160007003000028
:020000040000fa
:040164007003000024
:020000040000fa
:040168007003000020
:020000040000fa
:04016c00700300001c
:020000040000fa
:040170007003000018
:020000040000fa
:040174007003000014
:020000040000fa
:040178007003000010
:020000040000fa
:04017c00700300000c
:020000040000fa
:040180007003000008
:020000040000fa
:040184007003000004
:020000040000fa
:040188007003000000
:020000040000fa
:04018c0070030000fc
:020000040000fa
:0401900070030000f8
:020000040000fa
:0401940070030000f4
:020000040000fa
:0401980070030000f0
:020000040000fa
:04019c0070030000ec
:020000040000fa
:0401a00070030000e8
:020000040000fa
:0401a40070030000e4
:020000040000fa
:0401a80070030000e0
:020000040000fa
:0401ac0070030000dc
:020000040000fa
:0401b00070030000d8
:020000040000fa
:0401b40070030000d4
:020000040000fa
:0401b80070030000d0
:020000040000fa
:0401bc0070030000cc
:020000040000fa
:0401c00070030000c8
:020000040000fa
:0401c40070030000c4
:020000040000fa
:0401c80070030000c0
:020000040000fa
:0401cc0070030000bc
:020000040000fa
:0401d00070030000b8
:020000040000fa
:0401d40070030000b4
:020000040000fa
:0401d80070030000b0
:020000040000fa
:0401dc0070030000ac
:020000040000fa
:0401e00070030000a8
:020000040000fa
:0401e40070030000a4
:020000040000fa
:0401e80070030000a0
:020000040000fa
:0401ec00700300009c
:020000040000fa
:0401f0007003000098
:020000040000fa
:0401f4007003000094
:020000040000fa
:0401f8007003000090
:020000040000fa
:0401fc00700300008c
:020000040000fa
:040200007003000087
:020000040000fa
:040204007003000083
:020000040000fa
:04020800700300007f
:020000040000fa
:04020c00700300007b
:020000040000fa
:040210007003000077
:020000040000fa
:040214007003000073
:020000040000fa
:04021800700300006f
:020000040000fa
:04021c00700300006b
:020000040000fa
:040220007003000067
:020000040000fa
:040224007003000063
:020000040000fa
:04022800700300005f
:020000040000fa
:04022c00700300005b
:020000040000fa
:040230007003000057
:020000040000fa
:040234007003000053
:020000040000fa
:04023800700300004f
:020000040000fa
:04023c00700300004b
:020000040000fa
:040240007003000047
:020000040000fa
:040244007003000043
:020000040000fa
:04024800700300003f
:020000040000fa
:04024c00700300003b
:020000040000fa
:040250007003000037
:020000040000fa
:040254007003000033
:020000040000fa
:04025800700300002f
:020000040000fa
:04025c00700300002b
:020000040000fa
:040260007003000027
:020000040000fa
:040264007003000023
:020000040000fa
:04026800700300001f
:020000040000fa
:04026c00700300001b
:020000040000fa
:040270007003000017
:020000040000fa
:040274007003000013
:020000040000fa
:04027800700300000f
:020000040000fa
:04027c00700300000b
:020000040000fa
:040280007003000007
:020000040000fa
:100400004f0421000eff2c000e01880000000000a8
:10041000000020000000e000020032000001200087
:100420002002880014000700af0007000000e00071
:1004300003003a00e01f2100010020000200370005
:100440000000200001002000810f70000100320038
:100450000f000700000020000000e0000200320052
:100460000000020000000000880e020000000000f2
:100470000040da000000fe00200020000000e00044
:1004800002003200100020009001880000000600e9
:10049000a1028800800478000000eb001f003700f4
:1004a000e284440054a0b4009905ba00e2844400f8
:1004b00054a0b4009906ba00e284440054a0b400e9
:1004c0000006eb00476fde00fd07b200ae018800ba
:1004d000636ce10003003a000ad801000000eb0061
:1004e0000e003700606ce10008003a00004deb00a0
:1004f0000a05e800020039003420ec000af0a000f0
:100500008b05e900f9ff3e00040037006168e10057
:10051000010032000086eb000b00070019c7ba008b
:100520000e04e0001905ba0003003a000a00e000da
:10053000dbff3a0000000600fe07b200ae028800b2
:100540008a047800f5ff37000cd0a300e20f4d00bd
:100550001c00390089027800354dba000a05e80010
:10056000020039003420ec000af0a0008b05e900fd
:100570000f003200254dba000a05e80002003900dc
:100580003420ec000af0a0008b05e90008003200de
:100590000c00e0000600320015cdba000a05e800a4
:1005a000020039003420ec000af0a0008b05e900bd
:1005b0008984e80054a0b4000b00e000e2ff3a0098
:1005c000000006009902ba00055d78008b05e9007d
:1005d000f7ff3200c82ade00055d78008b05e900d0
:1005e000f3ff32000c00e000f1ff320019ddba0029
:1005f000eeff37000000fa000108a9000080fa00b1
:10060000004006003600f800809fbe00829fbe00ba
:10061000849fbe00869fbe000000fa000068a9000b
:100620001a0507003a0707000080fa004f03be00d2
:100630004f02be004f01be004f00be003600f90061
:10064000004006003600f800809fbe00829fbe007a
:10065000849fbe00869fbe000000fa000368a900c8
:10066000008080001180800061004000e080480030
:100670000080880011808800cf0107000080fa0008
:100680004f03be004f02be004f01be004f00be0030
:100690003600f90000400600801f78000000fa00d4
:1006a00001a8a90000188000d081880010188000df
:1006b000e081880020188000f081880030188000d8
:1006c00000828800401880001082880010c0b300ab
:1006d00013f0b7000080fa004f00780000400600d9
:1006e0000040da000000fe000000050003f0a20058
:1006f000889fbe008a9fbe008c1f780018010700eb
:100700001f0133006450e1004f0032006420e1001b
:100710005200320003826c0007003b000905d00044
:100720000306d000820f54000c065d000200390061
:1007300002003200890178000306780085825500a6
:1007400004003d000003fd008103fd008502ea0076
:100750008b854200840f720002003b006000100095
:10076000e08018006011b8000005eb007a28e10075
:100770000a00390006007800c75ddd00f707b20007
:10078000878075002d003700828171000a01780092
:10079000610560008180d1000080d3008502e900fe
:1007a000f9ff3b00060440008784480002003b003c
:1007b00060041400e0841c000988a30007003200d4
:1007c0008a81710082817100610164008904d10015
:1007d0000884d3008b05e800170037000978a300d0
:1007e00013003a000b00e000130034008b05e90011
:1007f0000804440089844c000a4474000978a3006a
:100800000d003a000b00e000070034008b05e90002
:100810000804440089844c0001003a000b002000c9
:100820000978a300f7ff32000001eb000200370057
:10083000828171000a0178008e0007000cf0a70089
:1008400001f0a000d70037006420e10002003a0068
:10085000838f6c00d70033000801be000200be0089
:10086000d0003700889fbe008a9fbe008c1f780092
:10087000bb000700c200330003866c006450e10037
:100880002e0032006420e100330032006150e100ac
:100890002f0032006120e1003100320085855500d3
:1008a000eb07b00009002000080420000500370015
:1008b0000804440089844c000a0031000603430008
:1008c00087834b000001530081815b00f8ff3300f8
:1008d0000203be000800a0000804440089844c0004
:1008e000f6ff3900c639dd008301730001003200d4
:1008f000130020008904d1000884d3000998a300c4
:10090000050032000800a7000300a0008904d10000
:100910000884d3008b05e8008904d1000884d30043
:100920000001eb000281d2005200070001f0a1009b
:100930000cf0a70001f0a0009a0037006420e1004d
:100940009c0032000801be000200be00f7ff370025
:100950006120e100970032006000b800f3ff37002b
:100960000000200001f82700f0ff370014002000ed
:10097000c7003700f4ff2f00c50037000001be009c
:10098000620007000470a70003f0a1006509b10030
:10099000160032000d0035006828e1000600350021
:1009a000f0ff2f00f1ff27000300e00013003b00e1
:1009b0000100280000000500000040008180480080
:1009c0008502e900fcff3a0008003700f88f42007a
:1009d00002003c008000eb00000005008100d10017
:1009e0000080d3008502e800fcff3a000300e0002d
:1009f00002003b0060001000e080180000000600cc
:100a00000001be00410007000470a70003f0a10030
:100a100003f8a30013003a006509b100100032008a
:100a2000090035006928e1000200350001002800b6
:100a30000000050000004000818048008502e900b8
:100a4000fcff3a0000000600f88f42000500350068
:100a50008100d1000080d3008502e800fcff3a004d
:100a6000000006008000eb00000005006011b800e7
:100a7000a200370081002000618055000b003d007e
:100a80000b00200061fe2f000100e1001d0034007a
:100a900082817100610164008904d1000884d3005f
:100aa0000000e800faff3a007100200061006400d5
:100ab000030070000200600009003200610444007d
:100ac000e0844c000988a500050032008b05e80091
:100ad0006808e10002003a008904d1000884d300cc
:100ae000f20f20000258e10005003d00c75ddd0067
:100af000f907b20089807500080078000000060040
:100b00000bf827008b00780000000500c70ade0004
:100b1000f107b200f50fb20008003200e1cf420049
:100b2000020032000170a00024000500810f700057
:100b3000010032000408050044000500810f700028
:100b400002003a00140005008502e90000004000a0
:100b500081c04800fcff3b000170a000240005009c
:100b60000004be00e9ff07000003be000405be004c
:100b70000200be00e5ff0700844f7500000006007c
:100b80000200be006450e100050036006420e10070
:100b9000020036000968a30001003a000800be0008
:100ba0000160a0004f0678004f05be004f04be0054
:100bb00000000600f0ff2f00f1ff2700f9ff3700cb
:100bc000889fbe008a9fbe008c1f7800e4ff07004c
:100bd000ebff330003866c006450e1002400320018
:100be0006420e100270032006150e1002200320061
:100bf0006120e100210032008b854200eb07b1004b
:100c00000134b800003ab8000804420089844a0060
:100c1000013ab8000030b8008880400009014a005d
:100c200004003300000040008180480002014900b8
:100c30008b05e900c909dd00830170000100320065
:100c400013002000c814de004814dd004709de0050
:100c50001200b200c808de000884700085ff07009b
:100c600001f0a1000cf0a70001f0a000cdff3700bb
:100c70006120e100cfff32000801be000200be008b
:100c8000f7ff37006150e100fcff3a00c9ff370071
:100c9000889fbe008a9fbe00841f7800b0ff0700b7
:100ca0004f00780011003300f0ff2f00838f6c009d
:100cb00006003b00040565000a00a7000800370095
:100cc00009f0a6001000200008003700820f540031
:100cd000838f5c00030039001000200001003e00fb
:100ce0000000200009f0a7000000ea004f05be0048
:100cf0004f04be000000e00000000600889fbe0018
:100d00008a9fbe000082700004027100048271009c
:100d1000260032000004be000200be006011b800d0
:100d20006b092000950220000182cf000a003900e3
:100d30000541b1000082cf00070039000541b10034
:100d40000982cf00040039000541b1000882cf00bc
:100d5000010039000541b100054252001200320085
:100d60000a003b0082817100610164008100d100b2
:100d70000080d3008984d3000884d3008b05e80069
:100d80000442e800f7ff3a00070037000804440077
:100d900089844c0000004800818048008b05e900f0
:100da0000442e900f9ff3a0032ff07004f05be0098
:080db0004f04be000000060024
:020000040000fa
:100db8000000fa0008d0bf000080fb00cf80de00f2
:100dc800b201200003002000820f5000838f5800da
:100dd800ba003e00000601001b003700240037005f
:100de8002d00370037003700380037004100370042
:100df800420037004b0037004c00370056003700e0
:100e08005700370061003700ac003700ab003700ef
:100e1800aa003700a90037005e00370067003700d6
:100e280068003700710037007e0037008700370000
:100e380070003700790037008600370090003700cf
:100e4800910037009b0037000030ef000230ef00c0
:100e5800120020006000b800f60207000001eb0055
:100e68006000b800f302070010c0b30008f0b70034
:100e78000280800013808000803e20000100200056
:100e8800800f5100818f59008f00360020c0b300b9
:100e980008f0b7008d003700120020000000200085
:100ea800811c2400e30207000001eb000000200081
:100eb800811c2400df02070030c0b30008f0b7002f
:100ec80082003700830007008000370012002000ee
:100ed80000002000011a2400d60207000001eb00e0
:100ee8006000b800d302070050c0b30008f0b70094
:100ef80076003700770007007400370012002000e2
:100f08006000b800cb0207000001eb0000002000e1
:100f1800011a2400c702070070c0b30008f0b70028
:100f28006a0037006b0007006800370012002000d5
:100f38000000200001172400be0207000001eb009a
:100f48000000200001172c00ba02070090c0b3006f
:100f580008f0b7005d0037005e0007005b0037004f
:100f6800120020000000200001172c00b102070029
:100f78000001eb000000200001172400ad0207006b
:100f8800b0c0b30008f0b7005000370051000700a8
:100f98004e003700120020006000b800a5020700cc
:100fa8000001eb0000002000011f2c00a102070037
:100fb80010c1b30008f0b70044003700450007002f
:100fc800420037001200200000002000011f2c0002
:100fd800980207000001eb006000b80095020700c6
:100fe80030c1b30008f0b7003800370039000700f7
:100ff800360037001200200000002000010a2c00f3
:101008008c0207000001eb006000b80089020700ad
:1010180030c1b30008f0b7002c0037002d000700de
:101028002a003700120020006000b8008102070083
:101038000001eb0000002000010a2c007d020700df
:1010480050c1b30008f0b7002000370021000700a6
:101058001e0037001200200000002000811c240020
:10106800740207000001eb0000002000011a2400b0
:101078007002070090c1b30008f0b70013003700f2
:1010880014000700110037001200200000002000a3
:10109800011a2400670207000001eb00000020008d
:1010a800811c240063020700b0c1b30008f0b70038
:1010b8000600370007000700040037000870ef003b
:1010c8000000000001003700000000000080fa0066
:1010d800000006000000fa00881f78007081800078
:1010e8008181800018c0b300020020000312240090
:1010f8001cfe07000000e000010035000044eb0082
:101108000804e0000c013a005081800061818000f1
:1011180018c0b300020020000312240011fe0700cb
:101128000000e000010035000044eb000804e00086
:101138000300320020c1b30009f0b700fe003700f9
:10114800308180004181800018c0b3000200200077
:101158000312240003fe07000000e0000100350030
:101168000044eb000804e0000300320000c1b300b3
:1011780009f0b700f0003700b0818000c18180001d
:1011880018c0b3000200200003122400f5fd070078
:101198000000e000010035000044eb000804e00016
:1011a8000300320060c1b30009f0b700e200370065
:1011b80090818000a181800018c0b3000200200047
:1011c80003122400e7fd07000000e00001003500dd
:1011d8000044eb000804e0000300320040c1b30003
:1011e80009f0b700d40037003081800041818000c9
:1011f80018c0b30002002000031a2400d9fd07001c
:101208000000e000010035000044eb000804e000a5
:1012180024003200508180006181800018c0b30032
:1012280002002000031f2400d0fd07000000e0009a
:1012380001003c000044eb000804e0001900320003
:10124800b0818000c181800018c0b3000200200076
:10125800031f2400c5fd07000000e00001003c005a
:101268000044eb000804e0000e00320070818000aa
:101278008181800018c0b30002002000031f2400f1
:10128800bafd07000000e00001003c000044eb004c
:101298000804e0000300320060c0b30009f0b700a2
:1012a800a5003700508180006181800018c0b3001c
:1012b80002002000031a2400aafd07000000e00035
:1012c800010035000044eb000804e000240032006f
:1012d800308180004181800018c0b30002002000e6
:1012e800031f2400a1fd07000000e00001003c00ee
:1012f8000044eb000804e00019003200308180004f
:101308004181800018c0b30002002000031f2400a0
:1013180096fd07000000e00001003c000044eb00df
:101328000804e0000e003200708180008181800096
:1013380018c0b30002002000031f24008bfd070023
:101348000000e00001003c000044eb000804e0005d
:101358000300320040c0b30009f0b7007600370040
:1013680090818000a181800018c0b3000200200095
:10137800031a24007bfd07000000e000010035008f
:101388000044eb000804e0002f00320030818000a8
:101398004181800018c0b30002002000831c240093
:1013a80072fd07000000e00001003c000044eb0073
:1013b8000804e00024003200508180006181800030
:1013c80018c0b30002002000031f240067fd0700b7
:1013d8000000e00001003c000044eb000804e000cd
:1013e80019003200b0818000c181800018c0b300ac
:1013f80002002000031f24005cfd07000000e0003d
:1014080001003c000044eb000804e0000e0032003c
:10141800708180008181800018c0b3000200200024
:10142800031f240051fd07000000e00001003c00fc
:101438000044eb000804e0000300320080c1b30060
:1014480009f0b7003c003700b0818000c1818000fe
:1014580018c0b30002002000031a240041fd070051
:101468000000e000010035000044eb000804e00043
:101478002f003200308180004181800018c0b30005
:1014880002002000831c240038fd07000000e00053
:1014980001003c000044eb000804e0002400320096
:1014a800508180006181800018c0b30002002000d4
:1014b800031a24002dfd07000000e00001003c0095
:1014c8000044eb000804e00019003200908180001d
:1014d800a181800018c0b30002002000031f24006f
:1014e80022fd07000000e00001003c000044eb0082
:1014f8000804e0000e0032007081800081818000c5
:1015080018c0b30002002000031f240017fd0700c5
:101518000000e00001003c000044eb000804e0008b
:1015280003003200a0c1b30009f0b7000200370081
:1015380020c0b30009f0b70009d0bf008080fb00cd
:1015480008d0bf000080fb000000e900808f500039
:101558000200320009d0bf0008f0b7004f0478003d
:101568000080fa00000006000000fa0013e1a9005c
:1015780011e1a9001061a8001021a90081088000cc
:10158800f0fc2f0000806000800888000a21ef002e
:101598000621ef00202620007008880000a0250002
:1015a800600888002142800080ff2f0000806000d2
:1015b8000000a000204288000108a9002108a80016
:1015c80011e1a8000080fa00000006000000fa00ff
:1015d80005e1a9000421a9000068a9002068a80065
:1015e80005e1a80000002000a13724000d00070035
:1015f8000080fa00000006000000fa001fe1a900c0
:101608001e21a9000368a9002368a8001fe1a800fb
:1016180000002000a1472400760007000080fa009f
:10162800000006000400fa00881f7800008fbe0042
:1016380021088000f0fc2f0000806000200888004e
:101648001e0178009e0190000068290081c12400d5
:1016580082fc070018c0b30002f02f00f3772400c3
:10166800c2fc07000000e00001003c000044eb0061
:101678000804e0005400320021088000f0fc2f002c
:10168800008060000040a000200888001e0178004b
:101698009e0190000068290081c124006ffc0700aa
:1016a80002002000031024006cfc070018c0b300df
:1016b80002f02f00f3772400acfc07000000e000e4
:1016c80001003c000044eb000804e0003200320056
:1016d80021088000f0fc2f00008060000050a0006e
:1016e800200888001e0178009e01900000682900eb
:1016f80081c1240059fc07000200200003282400af
:1017080056fc070018c0b30002f02f00f37724003e
:1017180096fc07000000e00001003c000044eb00dc
:101728000804e000100032002108800000032000b7
:1017380001007000200888001e0178009e019000ba
:101748000068290081c1240044fc07000200200031
:101758000338240041fc070086fc070000007800dd
:1017680010088800200037001e0178009e019000b4
:101778000068290081c1240038fc0700020020000d
:101788000328240035fc07007afc070000007800d5
:1017980010088800140037001e0178009e01900090
:1017a8000068290081c124002cfc070002002000e9
:1017b8000310240029fc07006efc070000007800d5
:1017c80010088800080037001e0178009e0190006c
:1017d8000068290081c1240020fc070065fc07007f
:1017e80000007800100888004f0478000080fa0094
:1017f800000006000400fa00881f7800008fbe0071
:10180800f1088000f0fc2f0000806000f0088800dc
:101818001e0178009e0190000068290081c1240003
:101828000efc070018c0b30002f02f00f377240065
:101838004efc07000000e00001003c000044eb0003
:101848000804e00054003200f1088000f0fc2f008a
:10185800008060000040a000f00888001e017800a9
:101868009e0190000068290081c12400fbfb07004d
:101878000200200003102400f8fb070018c0b30082
:1018880002f02f00f377240038fc07000000e00086
:1018980001003c000044eb000804e0003200320084
:1018a800f1088000f0fc2f00008060000050a000cc
:1018b800f00888001e0178009e0190000068290049
:1018c80081c12400e5fb0700020020000328240052
:1018d800e2fb070018c0b30002f02f00f3772400e2
:1018e80022fc07000000e00001003c000044eb007f
:1018f8000804e00010003200f10880000003200016
:1019080001007000f00888001e0178009e01900018
:101918000068290081c12400d0fb070002002000d4
:1019280003382400cdfb070012fc070000007800f4
:10193800d0088800200037001e0178009e01900022
:101948000068290081c12400c4fb070002002000b0
:1019580003282400c1fb070006fc070000007800ec
:10196800d0088800140037001e0178009e019000fe
:101978000068290081c12400b8fb0700020020008c
:1019880003102400b5fb0700fafb070000007800ed
:10199800d0088800080037001e0178009e019000da
:1019a8000068290081c12400acfb0700f1fb070097
:1019b80000007800d00888004f0478000080fa0002
:1019c800000006000000fa001160800080ff2f0070
:1019d800008060001060880000fa20002060880005
:1019e80023aca800238ca80011618000f03f2f00d1
:1019f8000080600000a0a000106188003000200076
:101a080020618800c3aca800c38ca80011668000c0
:101a1800f03f2f000080600000a0a0001066880042
:101a2800300020002066880001eca8000080fa0041
:101a3800000006000600fa00008fbe00220798008a
:101a48002e0090000000e00005003a001e0178001a
:101a58009e019000b2808800c3808800070037008c
:101a68002e009000e10f500004003a001e0178009b
:101a78009e019000f2808800038188000080fa00af
:101a8800000006000000fa00889fbe001481800054
:101a980025818000f08080000181800018c0b3009b
:101aa8000001be000400be00aefb07000000e0001d
:101ab800010035000044eb000804e0000d0032008e
:101ac800f8808000098180001481800025818000d1
:101ad80050808000618080000001be000400be00cc
:101ae80001fb07000801be0074010700108188008f
:101af800218188001481800025818000f080800089
:101b08000181800018c0b3000001be000400be00bf
:101b180096fb07000000e00001003c000044eb00d9
:101b28000804e0000d003200f88080000981800080
:101b380014818000258180005080800061808000b1
:101b48000001be000400be00e6fa07000801be005e
:101b580042010700108188002181880010818000df
:101b68002181800018c0b3006011b8007ffb070016
:101b78000000e00001003c000044eb000804e00025
:101b880004003200c3eca90024cea800c3cca800ee
:101b980003003700c3cca90024eea800c3eca800ba
:101ba80010818000218180001601070002002000ba
:101bb8000322240000fc07008ffb070000007800c8
:101bc80030668800d4808000e5808000b080800086
:101bd800c180800018c0b3000001be000400be0030
:101be80060fb07000000e000010035000044eb0046
:101bf8000804e0000d003200b8808000c980800031
:101c0800d4808000e5808000508080006180800062
:101c18000001be000400be00b3fa07000801be00c0
:101c280026010700d0808800e1808800d4808000e9
:101c3800e5808000b0808000c180800018c0b300bb
:101c48000001be000400be0048fb07000000e000e1
:101c580001003c000044eb000804e0000d003200e5
:101c6800b8808000c9808000d4808000e580800032
:101c780050808000618080000001be000400be002a
:101c880098fa07000801be00f4000700d080880019
:101c9800e1808800d0808000e180800018c0b30017
:101ca8006011b80031fb07000000e00001003c00b3
:101cb8000044eb000804e0000400320023cca90033
:101cc80015eea80023eca8000300370023eca900b8
:101cd80015cea80023cca800d0808000e180800029
:101ce800c80007000200200003222400b2fb0700fe
:101cf80041fb070000007800306188004f04be00f7
:101d08000080fa00000006000600fa00881f78002c
:101d18008d010700cf0107002cfe070012fe070007
:101d280035fe070027ff07003d01070064cea80025
:101d380064eea800254ea80001003700000000004e
:101d480079010700e14f5000fcff3a007a010700d3
:101d580071010700000f78009e007800688040003d
:101d6800100078008000eb003efb070032332300b0
:101d78003305240090fb07000200200003582400cc
:101d8800b6fa0700d2cc2c00c30424008afb070053
:101d980010079800210798001e019000ae019000de
:101da8000000200081202400acfa07000200200077
:101db800030a24004bfa07005081880061818800db
:101dc8009e00780066804000100078008000eb00dc
:101dd80024fb0700323323003305240076fb070079
:101de80002002000035824009cfa0700d2cc2c00e3
:101df800c304240070fb070010079800210798000f
:101e08001e019000ae0190000000200081202400f7
:101e180092fa070002002000030a240031fa0700a2
:101e2800b0818800c18188009e00780064804000ed
:101e3800100078008000eb000afb07003233230013
:101e4800330524005cfb070002002000035824002f
:101e580082fa0700d2cc2c00c304240056fb0700ea
:101e680010079800210798001e019000ae0190000d
:101e7800000020008120240078fa070002002000da
:101e8800030a240017fa07007081880081818800fe
:101e98001e80e800100078008000eb00f1fa0700cf
:101ea800323323003305240043fb070002002000df
:101eb8000358240069fa0700d2cc2c00c30424007c
:101ec8003dfb070010079800210798001e019000ad
:101ed800ae01900000002000812024005ffa070076
:101ee80002002000030a2400fef907003081880060
:101ef800418188001e007800100078008000eb0007
:101f0800d8fa070032332300330524002afb0700e0
:101f1800020020000358240050fa0700d2cc2c00fd
:101f2800c304240024fb0700100798002107980029
:101f38001e019000ae0190000000200081202400c6
:101f480046fa070002002000030a2400e5f907000a
:101f580090818800a181880090818000a181800003
:101f680018c0b30002002000031f24007dfa0700f8
:101f78000000e000010035000044eb000804e00028
:101f880002003200254ea80001003700254ea900a6
:101f9800708180008181800018c0b3000200200099
:101fa800031f24006ffa07000000e000010035005d
:101fb8000044eb000804e0000200320064eea800d0
:101fc8000100370064eea900b0818000c181800063
:101fd80018c0b30002002000031f240061fa0700a4
:101fe8000000e000010035000044eb000804e000b8
:101ff8000200320064cea80051ff370064cea90069
:102008004fff37000400fa00881f7800008fbe00d9
:1020180018c0b3006011b8001e0078009e00900040
:1020280052fa07000000e00001003d000044eb0008
:102038000804e000030032001e0078009e009000b3
:10204800030037001e0078009e00900001f0a200f7
:102058004f0478000080fa00000006000800fa002b
:10206800881f7800008fbe00220798003307980069
:1020780018c0b3002e019000be0190001e00780029
:102088009e00900039fa07000000e00001003c00c3
:102098000044eb000804e000030032001e00780052
:1020a8009e009000020037002e009000be009000b5
:1020b8004f0478000080fa00000006000800fa00cb
:1020c800881f7800008fbe00220798003307980009
:1020d80018c0b3002e019000be0190001e007800c9
:1020e8009e0090001ffa07000000e0000100350084
:1020f8000044eb000804e000030032001e007800f2
:102108009e009000020037002e009000be00900054
:102118004f0478000080fa00000006000c00fa0066
:10212800881f7800008fbe002207980033079800a8
:10213800440798005507980018c0b3004e01900056
:10214800de0190001e0078009e00900007fa07004c
:102158000000e00001003c000044eb000804e0003f
:10216800040032004e019000de019000028fbe0094
:102178000e00370018c0b3002e019000be01900079
:102188001e0078009e009000f6f907000000e000ad
:10219800010035000044eb000804e00003003200b1
:1021a8002e019000be019000028fbe001e00780034
:1021b8009e0090004f0478000080fa00000006009e
:1021c8000400fa00008fbe00b2fd20009304240032
:1021d8001e0078009e009000a0f907000200200071
:1021e8004333240074fa07000080fa000000060058
:1021f8000400fa00008fbe00b2fd20009304240002
:102208001e0078009e0090006bfa07000200200074
:102218004333240091f907000080fa00000006000b
:102228000000fa0021e3a9002143a8000119800059
:10223800f0cf2f0000806000001988002043a9001b
:1022480001198000000e20000100700000198800ac
:1022580011198000f0ff210000806000101988002b
:102268002343a80011198000f0cf2f0000806000e0
:10227800101988001119800030f82f0000806000c4
:102288000040a000101988002203a9002223a900f9
:1022980025e3a900f0c0b30024e3b70021198000aa
:1022a800f00f2e008080600000f020000100700018
:1022b800201988003303a9002e0ea8002f6ea8004d
:1022c8006f2ea8001e2ea8004feea8003063a800ad
:1022d80030c3a8003163a80031e3a8002e03a8008a
:1022e8004119800000fc2f00008060004019880020
:1022f80028e3a90001a8a90021a8a80021e3a800b3
:102308000080fa00000006000000fa002023a80060
:102318000080fa00000006000000fa00a003210077
:102328000080fa00000006000000fa0013d0bf0089
:102338000080fa00000006000000fa001370ef00a9
:102348000080fa00000006000000fa00f0032000f8
:10235800303a8800213a8000f0f32f0000806000b6
:10236800203a8800213a800000fe2f00008060009b
:102378000000a000203a88001200200080072000fa
:10238800a109200033742000804978008149780031
:1023980082497800103a8000000178000200a0000d
:1023a8006004200071052000237420008049780013
:1023b800814978008249780000000000113a8000c5
:1023c800000027008080600000002100808f5000fe
:1023d800faff3a0000000000113a800000022000d5
:1023e800008060000000e000fbff32000080fa007f
:0423f80000000600db
:020000040000fa
:1023fc000e10000002000000800000001010000011
:10240c0002000000800000000a1000000400000020
:10241c00820000000000a00040000000141000002a
:10242c0026000000800000003a1000000a000000a6
:10243c00800000001210000002000000800000006c
:10244c00001000000a0000008000000000000000e6
:020000040000fa
:10245c000000fa000e2eef001e2eef002e2eef00c5
:10246c003e2eef004e2eef005e2eef006e2eef0094
:10247c00214ea90060cea90060eea90011cea900e2
:10248c0011eea90020cea90020eea9000080fa00d0
:04249c000000060036
:020000040000fa
:02000004000af0
:04afe000cfff00009f
:020000040000fa
:02000004000af0
:04afe400ffff00006b
:020000040000fa
:02000004000af0
:04afe8007fff0000e7
:020000040000fa
:02000004000af0
:04afec005fff000003
:020000040000fa
:02000004000af0
:04aff00038ff000026
:020000040000fa
:02000004000af0
:04aff400ffffff005c
:00000001FF
