:020000040000fa
:080000000002040000000000f2
:020000040000fa
:040008009803000059
:020000040000fa
:04000c009803000055
:020000040000fa
:040010009803000051
:020000040000fa
:04001400980300004d
:020000040000fa
:040018009803000049
:020000040000fa
:04001c009803000045
:020000040000fa
:040020009803000041
:020000040000fa
:04002400980300003d
:020000040000fa
:040028009803000039
:020000040000fa
:04002c009803000035
:020000040000fa
:040030009803000031
:020000040000fa
:0400340002030000c3
:020000040000fa
:040038009803000029
:020000040000fa
:04003c009803000025
:020000040000fa
:040040009803000021
:020000040000fa
:04004400980300001d
:020000040000fa
:04004800fa020000b8
:020000040000fa
:04004c009803000015
:020000040000fa
:040050009803000011
:020000040000fa
:04005400980300000d
:020000040000fa
:040058009803000009
:020000040000fa
:04005c006a03000033
:020000040000fa
:040060009803000001
:020000040000fa
:0400640098030000fd
:020000040000fa
:0400680098030000f9
:020000040000fa
:04006c0098030000f5
:020000040000fa
:0400700098030000f1
:020000040000fa
:0400740098030000ed
:020000040000fa
:0400780098030000e9
:020000040000fa
:04007c0098030000e5
:020000040000fa
:0400800098030000e1
:020000040000fa
:0400840098030000dd
:020000040000fa
:0400880098030000d9
:020000040000fa
:04008c0098030000d5
:020000040000fa
:0400900098030000d1
:020000040000fa
:040094002203000043
:020000040000fa
:0400980098030000c9
:020000040000fa
:04009c0098030000c5
:020000040000fa
:0400a00098030000c1
:020000040000fa
:0400a40098030000bd
:020000040000fa
:0400a80098030000b9
:020000040000fa
:0400ac0098030000b5
:020000040000fa
:0400b00098030000b1
:020000040000fa
:0400b40098030000ad
:020000040000fa
:0400b80098030000a9
:020000040000fa
:0400bc0098030000a5
:020000040000fa
:0400c00098030000a1
:020000040000fa
:0400c400980300009d
:020000040000fa
:0400c8009803000099
:020000040000fa
:0400cc009803000095
:020000040000fa
:0400d0009803000091
:020000040000fa
:0400d400980300008d
:020000040000fa
:0400d8009803000089
:020000040000fa
:0400dc009803000085
:020000040000fa
:0400e0009803000081
:020000040000fa
:0400e400980300007d
:020000040000fa
:0400e8009803000079
:020000040000fa
:0400ec009803000075
:020000040000fa
:0400f0009803000071
:020000040000fa
:0400f400980300006d
:020000040000fa
:0400f8009803000069
:020000040000fa
:0400fc009803000065
:020000040000fa
:040100009803000060
:020000040000fa
:04010400980300005c
:020000040000fa
:040108009803000058
:020000040000fa
:04010c009803000054
:020000040000fa
:040110009803000050
:020000040000fa
:04011400980300004c
:020000040000fa
:040118009803000048
:020000040000fa
:04011c009803000044
:020000040000fa
:040120009803000040
:020000040000fa
:04012400980300003c
:020000040000fa
:040128009803000038
:020000040000fa
:04012c009803000034
:020000040000fa
:040130009803000030
:020000040000fa
:04013400980300002c
:020000040000fa
:040138009803000028
:020000040000fa
:04013c009803000024
:020000040000fa
:040140009803000020
:020000040000fa
:04014400980300001c
:020000040000fa
:040148009803000018
:020000040000fa
:04014c009803000014
:020000040000fa
:040150009803000010
:020000040000fa
:04015400980300000c
:020000040000fa
:040158009803000008
:020000040000fa
:04015c009803000004
:020000040000fa
:040160009803000000
:020000040000fa
:0401640098030000fc
:020000040000fa
:0401680098030000f8
:020000040000fa
:04016c0098030000f4
:020000040000fa
:0401700098030000f0
:020000040000fa
:0401740098030000ec
:020000040000fa
:0401780098030000e8
:020000040000fa
:04017c0098030000e4
:020000040000fa
:0401800098030000e0
:020000040000fa
:0401840098030000dc
:020000040000fa
:0401880098030000d8
:020000040000fa
:04018c0098030000d4
:020000040000fa
:0401900098030000d0
:020000040000fa
:0401940098030000cc
:020000040000fa
:0401980098030000c8
:020000040000fa
:04019c0098030000c4
:020000040000fa
:0401a00098030000c0
:020000040000fa
:0401a40098030000bc
:020000040000fa
:0401a80098030000b8
:020000040000fa
:0401ac0098030000b4
:020000040000fa
:0401b00098030000b0
:020000040000fa
:0401b40098030000ac
:020000040000fa
:0401b80098030000a8
:020000040000fa
:0401bc0098030000a4
:020000040000fa
:0401c00098030000a0
:020000040000fa
:0401c400980300009c
:020000040000fa
:0401c8009803000098
:020000040000fa
:0401cc009803000094
:020000040000fa
:0401d0009803000090
:020000040000fa
:0401d400980300008c
:020000040000fa
:0401d8009803000088
:020000040000fa
:0401dc009803000084
:020000040000fa
:0401e0009803000080
:020000040000fa
:0401e400980300007c
:020000040000fa
:0401e8009803000078
:020000040000fa
:0401ec009803000074
:020000040000fa
:0401f0009803000070
:020000040000fa
:0401f400980300006c
:020000040000fa
:0401f8009803000068
:020000040000fa
:0401fc009803000064
:020000040000fa
:04020000980300005f
:020000040000fa
:04020400980300005b
:020000040000fa
:040208009803000057
:020000040000fa
:04020c009803000053
:020000040000fa
:04021000980300004f
:020000040000fa
:04021400980300004b
:020000040000fa
:040218009803000047
:020000040000fa
:04021c009803000043
:020000040000fa
:04022000980300003f
:020000040000fa
:04022400980300003b
:020000040000fa
:040228009803000037
:020000040000fa
:04022c009803000033
:020000040000fa
:04023000980300002f
:020000040000fa
:04023400980300002b
:020000040000fa
:040238009803000027
:020000040000fa
:04023c009803000023
:020000040000fa
:04024000980300001f
:020000040000fa
:04024400980300001b
:020000040000fa
:040248009803000017
:020000040000fa
:04024c009803000013
:020000040000fa
:04025000980300000f
:020000040000fa
:04025400980300000b
:020000040000fa
:040258009803000007
:020000040000fa
:04025c009803000003
:020000040000fa
:0402600098030000ff
:020000040000fa
:0402640098030000fb
:020000040000fa
:0402680098030000f7
:020000040000fa
:04026c0098030000f3
:020000040000fa
:0402700098030000ef
:020000040000fa
:0402740098030000eb
:020000040000fa
:0402780098030000e7
:020000040000fa
:04027c0098030000e3
:020000040000fa
:0402800098030000df
:020000040000fa
:10040000af0421000eff2c000e0188000000000048
:10041000000020000000e000020032000001200087
:100420002002880014000700c30007000000e0005d
:1004300003003a00400d21000100200002003700b7
:100440000000200001002000810f70000100320038
:100450000f000700000020000000e0000200320052
:100460000000020000000000900b020000000000ed
:100470000040da000000fe00200020000000e00044
:1004800002003200100020009001880000000600e9
:10049000a1028800800478000000eb001f003700f4
:1004a000e284440054a0b4009905ba00e2844400f8
:1004b00054a0b4009906ba00e284440054a0b400e9
:1004c0000006eb00476fde00fd07b200ae018800ba
:1004d000636ce10003003a000ad801000000eb0061
:1004e0000e003700606ce10008003a00004deb00a0
:1004f0000a05e800020039003420ec000af0a000f0
:100500008b05e900f9ff3e00040037006168e10057
:10051000010032000086eb000b00070019c7ba008b
:100520000e04e0001905ba0003003a000a00e000da
:10053000dbff3a0000000600fe07b200ae028800b2
:100540008a047800f5ff37000cd0a300e20f4d00bd
:100550001c00390089027800354dba000a05e80010
:10056000020039003420ec000af0a0008b05e900fd
:100570000f003200254dba000a05e80002003900dc
:100580003420ec000af0a0008b05e90008003200de
:100590000c00e0000600320015cdba000a05e800a4
:1005a000020039003420ec000af0a0008b05e900bd
:1005b0008984e80054a0b4000b00e000e2ff3a0098
:1005c000000006009902ba00055d78008b05e9007d
:1005d000f7ff3200c82ade00055d78008b05e900d0
:1005e000f3ff32000c00e000f1ff320019ddba0029
:1005f000eeff37000000fa000108a9000080fa00b1
:10060000004006003600f800809fbe00829fbe00ba
:10061000849fbe00869fbe000000fa000068a9000b
:1006200044050700a50607000080fa004f03be003e
:100630004f02be004f01be004f00be003600f90061
:10064000004006003600f800809fbe00829fbe007a
:10065000849fbe00869fbe000000fa000368a900c8
:1006600021738000000820000080600000f0a700d7
:100670000000ea000000e9004f00de0000407800c2
:100680000080fb00610060004700dd0021738000f6
:100690000170a1000100700020738800c0808000fc
:1006a000d180800061004000e0804800c080880068
:1006b000d1808800d40107000080fa004f03be00fb
:1006c0004f02be004f01be004f00be003600f900d1
:1006d00000400600809fbe000000fa0001a8a900ab
:1006e00001188000e0002100010878001118800046
:1006f000e00021001100980021188000e000210096
:100700002100980031188000e0002100310098009d
:1007100041188000e00021004100980010c0b300a3
:1007200016f0b7000080fa004f00be00004006003f
:100730000040da000000fe000000050003f0a20007
:10074000889fbe008a9fbe008c1f7800180107009a
:100750001f0133006450e1004f0032006420e100cb
:100760005200320003826c0007003b000905d000f4
:100770000306d000820f54000c065d000200390011
:100780000200320089017800030678008582550056
:1007900004003d000003fd008103fd008502ea0026
:1007a0008b854200840f720002003b006000100045
:1007b000e08018006011b8000005eb007a28e10025
:1007c0000a00390006007800c75ddd00f707b200b7
:1007d000878075002d003700828171000a01780042
:1007e000610560008180d1000080d3008502e900ae
:1007f000f9ff3b00060440008784480002003b00ec
:1008000060041400e0841c000988a3000700320083
:100810008a81710082817100610164008904d100c4
:100820000884d3008b05e800170037000978a3007f
:1008300013003a000b00e000130034008b05e900c0
:100840000804440089844c000a4474000978a30019
:100850000d003a000b00e000070034008b05e900b2
:100860000804440089844c0001003a000b00200079
:100870000978a300f7ff32000001eb000200370007
:10088000828171000a0178008e0007000cf0a70039
:1008900001f0a000d70037006420e10002003a0018
:1008a000838f6c00d70033000801be000200be0039
:1008b000d0003700889fbe008a9fbe008c1f780042
:1008c000bb000700c200330003866c006450e100e7
:1008d0002e0032006420e100330032006150e1005c
:1008e0002f0032006120e100310032008585550083
:1008f000eb07b000090020000804200005003700c5
:100900000804440089844c000a00310006034300b7
:1009100087834b000001530081815b00f8ff3300a7
:100920000203be000800a0000804440089844c00b3
:10093000f6ff3900c639dd00830173000100320083
:10094000130020008904d1000884d3000998a30073
:10095000050032000800a7000300a0008904d100b0
:100960000884d3008b05e8008904d1000884d300f3
:100970000001eb000281d2005200070001f0a1004b
:100980000cf0a70001f0a0009a0037006420e100fd
:100990009c0032000801be000200be00f7ff3700d5
:1009a0006120e100970032006000b800f3ff3700db
:1009b0000000200001f82700f0ff3700140020009d
:1009c000c7003700f4ff2f00c50037000001be004c
:1009d000620007000470a70003f0a1006509b100e0
:1009e000160032000d0035006828e10006003500d1
:1009f000f0ff2f00f1ff27000300e00013003b0091
:100a0000010028000000050000004000818048002f
:100a10008502e900fcff3a0008003700f88f420029
:100a200002003c008000eb00000005008100d100c6
:100a30000080d3008502e800fcff3a000300e000dc
:100a400002003b0060001000e0801800000006007b
:100a50000001be00410007000470a70003f0a100e0
:100a600003f8a30013003a006509b100100032003a
:100a7000090035006928e100020035000100280066
:100a80000000050000004000818048008502e90068
:100a9000fcff3a0000000600f88f42000500350018
:100aa0008100d1000080d3008502e800fcff3a00fd
:100ab000000006008000eb00000005006011b80097
:100ac000a200370081002000618055000b003d002e
:100ad0000b00200061fe2f000100e1001d0034002a
:100ae00082817100610164008904d1000884d3000f
:100af0000000e800faff3a00710020006100640085
:100b0000030070000200600009003200610444002c
:100b1000e0844c000988a500050032008b05e80040
:100b20006808e10002003a008904d1000884d3007b
:100b3000f20f20000258e10005003d00c75ddd0016
:100b4000f907b200898075000800780000000600ef
:100b50000bf827008b00780000000500c70ade00b4
:100b6000f107b200f50fb20008003200e1cf4200f9
:100b7000020032000170a00024000500810f700007
:100b8000010032000408050044000500810f7000d8
:100b900002003a00140005008502e9000000400050
:100ba00081c04800fcff3b000170a000240005004c
:100bb0000004be00e9ff07000003be000405be00fc
:100bc0000200be00e5ff0700844f7500000006002c
:100bd0000200be006450e100050036006420e10020
:100be000020036000968a30001003a000800be00b8
:100bf0000160a0004f0678004f05be004f04be0004
:100c000000000600f0ff2f00f1ff2700f9ff37007a
:100c1000889fbe008a9fbe008c1f7800e4ff0700fb
:100c2000ebff330003866c006450e10024003200c7
:100c30006420e100270032006150e1002200320010
:100c40006120e100210032008b854200eb07b100fa
:100c50000134b800003ab8000804420089844a0010
:100c6000013ab8000030b8008880400009014a000d
:100c70000400330000004000818048000201490068
:100c80008b05e900c909dd00830170000100320015
:100c900013002000c814de004814dd004709de0000
:100ca0001200b200c808de000884700085ff07004b
:100cb00001f0a1000cf0a70001f0a000cdff37006b
:100cc0006120e100cfff32000801be000200be003b
:100cd000f7ff37006150e100fcff3a00c9ff370021
:100ce000889fbe008a9fbe00841f7800b0ff070067
:100cf0004f00780011003300f0ff2f00838f6c004d
:100d000006003b00040565000a00a7000800370044
:100d100009f0a6001000200008003700820f5400e0
:100d2000838f5c00030039001000200001003e00aa
:100d30000000200009f0a7000000ea004f05be00f7
:100d40004f04be000000e00000000600889fbe00c7
:100d50008a9fbe000082700004027100048271004c
:100d6000260032000004be000200be006011b80080
:100d70006b092000950220000182cf000a00390093
:100d80000541b1000082cf00070039000541b100e4
:100d90000982cf00040039000541b1000882cf006c
:100da000010039000541b100054252001200320035
:100db0000a003b0082817100610164008100d10062
:100dc0000080d3008984d3000884d3008b05e80019
:100dd0000442e800f7ff3a00070037000804440027
:100de00089844c0000004800818048008b05e900a0
:100df0000442e900f9ff3a0032ff07004f05be0048
:080e00004f04be0000000600d3
:020000040000fa
:100e08000000fa001cd0bf000080fb00cf80de008d
:100e18003201200003002000820f5000838f580009
:100e280080003e0000060100130037001c00370058
:100e3800250037002f003700300037003900370011
:100e48003a00370043003700440037004e003700af
:100e58004f00370059003700720037007100370023
:100e6800700037006f003700560037005f0037000a
:100e780060003700690037001830ef001a30ef00c3
:100e8800120020006000b800140307000001eb0006
:100e98006000b8001103070010c0b3001cf0b700d1
:100ea800c2808000d3808000803e200001002000a6
:100eb800800f5100818f59005d00360020c0b300bb
:100ec8001cf0b7005b003700120020000000200073
:100ed800011f2400010307000001eb0000002000af
:100ee800011f2400fd02070030c0b3001cf0b7004a
:100ef80050003700510007004e0037001200200054
:100f080000002000011a2400f40207000001eb0091
:100f18006000b800f102070050c0b3001cf0b70031
:100f28004400370045000700420037001200200047
:100f38006000b800e90207000001eb000000200093
:100f4800011a2400e502070070c0b3001cf0b700c6
:100f5800380037003900070036003700120020003b
:100f68000000200001172400dc0207000001eb004c
:100f78000000200001172c00d802070090c0b30021
:100f88001cf0b7002b0037002c00070029003700a1
:100f9800120020000000200001172c00cf020700db
:100fa8000001eb000000200001172400cb0207001d
:100fb800b0c0b3001cf0b7001e0037001f000700c8
:100fc8001c003700120020006000b800c3020700b0
:100fd8000001eb0000002000011f2c00bf020700e9
:100fe80010c1b3001cf0b70012003700130007004f
:100ff800100037001200200000002000011f2c0004
:10100800b60207000001eb006000b800b302070059
:1010180030c1b3001cf0b700060037000700070016
:10102800040037001c70ef000000000001003700ca
:10103800000000000080fa00000006000200fa002c
:10104800881f78000040eb00004f7800b0818000d6
:10105800c181800018c0b30002002000031f2400d3
:1010680054fe07000000e000010035000044eb00da
:101078000804e00019003200f0818000018280003d
:1010880018c0b30002002000031a24004bfe07001a
:101098000000e00001003c000044eb000804e00010
:1010a8000e003200d0818000e181800018c0b300ba
:1010b80002002000031f240040fe07000000e0009b
:1010c80001003c000044eb000804e000030032008b
:1010d80020c0b300004f780055003700b081800071
:1010e800c181800018c0b30002002000031f240043
:1010f80032fe07000000e00001003c000044eb0065
:101108000804e00019003200f081800001828000ac
:1011180018c0b30002002000031a240027fe0700ad
:101128000000e00001003c000044eb000804e0007f
:101138000e003200d0818000e181800018c0b30029
:1011480002002000031f24001afe07000000e00030
:10115800010035000044eb000804e0000300320001
:1011680010c0b300004f780031003700f0818000d4
:101178000182800018c0b30002002000031a240076
:101188000cfe07000000e000010035000044eb0001
:101198000804e0000300320030c0b300004f7800bc
:1011a80023003700b0818000c181800018c0b300df
:1011b80002002000031f240000fe07000000e000da
:1011c80001003c000044eb000804e0001800320075
:1011d800f08180000182800018c0b3000200200066
:1011e800031a2400f5fd07000000e00001003c00a0
:1011f8000044eb000804e0000d003200d0818000bc
:10120800e181800018c0b30002002000031f240001
:10121800eafd07000000e00001003c000044eb008c
:101228000804e000020032000040eb00004f7800a4
:101238001e4078000004e00003003a0020c0b3001c
:101248001df0b700110037001e407800e24f500033
:1012580003003a0040c0b3001df0b7000b00370090
:101268001e407800e14f500003003a0060c0b30010
:101278001df0b700050037001e407800e34f50000e
:1012880002003a0080c0b3001df0b7001dd0bf00b7
:101298008080fb001cd0bf000080fb000000e9003c
:1012a800808f5000020032001dd0bf001cf0b70034
:1012b8004f0478000080fa00000006000000fa00e1
:1012c80013e1a90011e1a9001061a8001021a900eb
:1012d80081088000f0fc2f000080600080088800f2
:1012e8000a21ef000621ef00202620007008880060
:1012f80000a02500600888002142800080ff2f00a0
:10130800008060000000a000204288000108a900b9
:101318002108a80011e1a8000080fa0000000600da
:101328000000fa0005e1a9000421a9000068a9004d
:101338002068a80005e1a80000002000a1372400cb
:101348000d0007000080fa00000006000000fa0007
:101358001fe1a9001e21a9000368a9002368a800ad
:101368001fe1a80000002000a14724007600070024
:101378000080fa00000006000400fa00881f7800c8
:10138800008fbe0021088000f0fc2f000080600064
:10139800200888001e0178009e019000006829003e
:1013a80081c1240041fd070018c0b30002f02f00de
:1013b800f377240081fd07000000e00001003c00f5
:1013c8000044eb000804e0005400320021088000cb
:1013d800f0fc2f00008060000040a000200888007a
:1013e8001e0178009e0190000068290081c1240038
:1013f8002efd070002002000031024002bfd07002b
:1014080018c0b30002f02f00f37724006bfd07002b
:101418000000e00001003c000044eb000804e0008c
:101428003200320021088000f0fc2f0000806000ac
:101438000050a000200888001e0178009e0190003e
:101448000068290081c1240018fd0700020020005f
:101458000328240015fd070018c0b30002f02f0070
:10146800f377240055fd07000000e00001003c0070
:101478000044eb000804e00010003200210880005e
:101488000003200001007000200888001e01780079
:101498009e0190000068290081c1240003fd070017
:1014a800020020000338240000fd070045fd070066
:1014b8000000780010088800200037001e0178001e
:1014c8009e0190000068290081c12400f7fc0700f4
:1014d8000200200003282400f4fc070039fd07005f
:1014e8000000780010088800140037001e017800fa
:1014f8009e0190000068290081c12400ebfc0700d0
:101508000200200003102400e8fc07002dfd07005e
:101518000000780010088800080037001e017800d5
:101528009e0190000068290081c12400dffc0700ab
:1015380024fd070000007800100888004f04780098
:101548000080fa00000006000400fa00881f7800f6
:10155800008fbe00f1088000f0fc2f0000806000c2
:10156800f00888001e0178009e019000006829009c
:1015780081c12400cdfc070018c0b30002f02f0081
:10158800f37724000dfd07000000e00001003c0097
:101598000044eb000804e00054003200f108800029
:1015a800f0fc2f00008060000040a000f0088800d8
:1015b8001e0178009e0190000068290081c1240066
:1015c800bafc07000200200003102400b7fc070043
:1015d80018c0b30002f02f00f3772400f7fc0700cf
:1015e8000000e00001003c000044eb000804e000bb
:1015f80032003200f1088000f0fc2f00008060000b
:101608000050a000f00888001e0178009e0190009c
:101618000068290081c12400a4fc07000200200002
:1016280003282400a1fc070018c0b30002f02f0013
:10163800f3772400e1fc07000000e00001003c0013
:101648000044eb000804e00010003200f1088000bc
:101658000003200001007000f00888001e017800d7
:101668009e0190000068290081c124008ffc0700ba
:1016780002002000033824008cfc0700d1fc07007e
:1016880000007800d0088800200037001e0178008c
:101698009e0190000068290081c1240083fc070096
:1016a800020020000328240080fc0700c5fc070076
:1016b80000007800d0088800140037001e01780068
:1016c8009e0190000068290081c1240077fc070072
:1016d800020020000310240074fc0700b9fc070076
:1016e80000007800d0088800080037001e01780044
:1016f8009e0190000068290081c124006bfc07004e
:10170800b0fc070000007800d00888004f0478007b
:101718000080fa00000006000600fa00881f780022
:1017280074020700b3020700fdfe0700e3fe07008e
:1017380006ff0700cd0007002402070064cea800ba
:1017480064eea800254ea800010037000000000044
:1017580060020700e14f5000fcff3a0061020700f9
:1017680058020700000f78001e007800100078006b
:101778008000eb00cffc0700323323003305240040
:1017880021fd0700020020000358240047fc070041
:10179800d2cc2c00c30424001bfd070010079800be
:1017a800210798001e019000ae0190000000200063
:1017b800812024003dfc070002002000030a2400c9
:1017c800dcfb070030828800418288001e80e80028
:1017d800100078008000eb00b6fc070032332300cd
:1017e8003305240008fd07000200200003582400e8
:1017f8002efc0700d2cc2c00c304240002fd0700f5
:1018080010079800210798001e019000ae01900073
:10181800000020008120240024fc07000200200092
:10182800030a2400c3fb0700b0818800c181880037
:101838009e00780064804000100078008000eb0073
:101848009cfc07003233230033052400eefc07001c
:10185800020020000358240014fc0700d2cc2c00fe
:10186800c3042400e8fc070010079800210798002b
:101878001e019000ae01900000002000812024008d
:101888000afc070002002000030a2400a9fb070045
:10189800f0818800018288009e0078006680400000
:1018a800100078008000eb0082fc07003233230030
:1018b80033052400d4fc070002002000035824004c
:1018c800fafb0700d2cc2c00c3042400cefc07008e
:1018d80010079800210798001e019000ae019000a3
:1018e8000000200081202400f0fb070002002000f7
:1018f800030a24008ffb07001082880021828800d9
:101908009e00780068804000100078008000eb009e
:1019180068fc07003233230033052400bafc0700b3
:101928000200200003582400e0fb0700d2cc2c0062
:10193800c3042400b4fc070010079800210798008e
:101948001e019000ae0190000000200081202400bc
:10195800d6fb070002002000030a240075fb0700dd
:10196800d0818800e1818800b0818000c181800039
:1019780018c0b30002002000031f24000dfc07005c
:101988000000e000010035000044eb000804e0001e
:101998000b003a00308280004182800018c0b300fa
:1019a80002002000031f240002fc07000000e000e2
:1019b800010035000044eb000804e000020032009a
:1019c800254ea80001003700254ea900f0818000af
:1019d8000182800018c0b30002002000031f240009
:1019e800f4fb07000000e000010035000044eb00b4
:1019f8000804e0000200320064eea800010037008d
:101a080064eea900d0818000e181800018c0b30095
:101a180002002000031f2400e6fb07000000e0008e
:101a2800010035000044eb000804e0000b003a0018
:101a3800108280002182800018c0b30002002000bc
:101a4800031f2400dbfb07000000e0000100350055
:101a58000044eb000804e0000200320064cea80055
:101a68003bff370064cea90039ff37000000fa00b9
:101a78001160800080ff2f000080600010608800e7
:101a880000fa20002060880023aca800238ca8005e
:101a980011618000f03f2f000080600000a0a000ce
:101aa800106188003000200020618800c3aca800c5
:101ab800c38ca80011668000f03f2f0000806000f2
:101ac80000a0a00010668800300020002066880072
:101ad80001eca8000080fa00000006000600fa00e9
:101ae800008fbe00220798002e0090000000e00042
:101af80005003a001e0178009e019000328188009e
:101b080043818800070037002e009000e10f500045
:101b180004003a001e0178009e019000728188003e
:101b2800838188000080fa00000006000000fa00a7
:101b3800889fbe0094818000a5818000708180000c
:101b48008181800018c0b3000001be000400be00ff
:101b580098fb07000000e000010035000044eb009e
:101b68000804e0000d00320078818000898180003f
:101b780094818000a5818000f08080000181800030
:101b88000001be000400be00ebfa07000801be0019
:101b9800b500070090818800a181880094818000a9
:101ba800a5818000708180008181800018c0b30009
:101bb8000001be000400be0080fb07000000e0003a
:101bc80001003c000044eb000804e0000d00320076
:101bd800788180008981800094818000a5818000bf
:101be800f0808000018180000001be000400be007a
:101bf800d0fa07000801be00830007009081880022
:101c0800a181880090818000a181800018c0b30064
:101c18006011b80069fb07000000e00001003c000b
:101c28000044eb000804e00004003200c3eca90003
:101c380024cea800c3cca80003003700c3cca90059
:101c480024eea800c3eca80090818000a181800048
:101c5800570007000200200003222400eafb0700c7
:101c680079fb070000007800306688005481800006
:101c780065818000308180004181800018c0b300f8
:101c88000001be000400be004afb07000000e0009f
:101c9800010035000044eb000804e0000d003200ac
:101ca80038818000498180005481800065818000ee
:101cb800f0808000018180000001be000400be00a9
:101cc8009dfa07000801be006700070050818800e0
:101cd80061818800548180006581800030818000a6
:101ce8004181800018c0b3000001be000400be009e
:101cf80032fb07000000e00001003c000044eb005c
:101d08000804e0000d00320038818000498180001d
:101d18005481800065818000f0808000018180000e
:101d28000001be000400be0082fa07000801be00e0
:101d3800350007005081880061818800508180004b
:101d48006181800018c0b3006011b8001bfb070058
:101d58000000e00001003c000044eb000804e00043
:101d68000400320023cca90015eea80023eca8003b
:101d78000300370023eca90015cea80023cca80047
:101d88005081800061818000090007000200200066
:101d9800032224009cfb07002bfb070000007800af
:101da800306188004f04be000080fa000000060081
:101db8000400fa00881f7800008fbe0018c0b30026
:101dc8006011b8001e0078009e009000fbfa070022
:101dd8000000e00001003d000044eb000804e000c2
:101de800030032001e0078009e00900003003700b8
:101df8001e0078009e00900001f0a2004f047800b9
:101e08000080fa00000006000800fa00881f780029
:101e1800008fbe00220798003307980018c0b3004f
:101e28002e019000be0190001e0078009e009000d8
:101e3800e2fa07000000e00001003c000044eb006b
:101e48000804e000030032001e0078009e009000a5
:101e5800020037002e009000be0090004f0478006a
:101e68000080fa00000006000800fa00881f7800c9
:101e7800008fbe00220798003307980018c0b300ef
:101e88002e019000be0190001e0078009e00900078
:101e9800c8fa07000000e000010035000044eb002c
:101ea8000804e000030032001e0078009e00900045
:101eb800020037002e009000be0090004f0478000a
:101ec8000080fa00000006000c00fa00881f780065
:101ed800008fbe0022079800330798004407980037
:101ee8005507980018c0b3004e019000de0190001d
:101ef8001e0078009e009000b0fa07000000e00085
:101f080001003c000044eb000804e000040032003b
:101f18004e019000de019000028fbe000e003700d7
:101f280018c0b3002e019000be0190001e0078007a
:101f38009e0090009ffa07000000e00001003500b5
:101f48000044eb000804e000030032002e0190007a
:101f5800be019000028fbe001e0078009e00900017
:101f68004f0478000080fa00000006000400fa0020
:101f7800008fbe00b2fd2000930424001e007800ec
:101f88009e00900049fa0700020020004333240015
:101f98001dfb07000080fa00000006000400fa009c
:101fa800008fbe00b2fd2000930424001e007800bc
:101fb8009e00900014fb0700020020004333240019
:101fc8003afa07000080fa00000006000000fa0054
:101fd80021e3a9002143a80001198000f0cf2f00b8
:101fe80000806000001988002043a90001198000c2
:101ff800000e2000010070000019880011198000ef
:10200800f0ff210000806000101988002343a80019
:1020180011198000f0cf2f0000806000101988008f
:102028001119800030f82f00008060000040a000e7
:10203800101988002203a9002223a90025e3a9007a
:10204800f0c0b30024e3b70021198000f00f2e0080
:102058008080600000f020000100700020198800d6
:102068003303a9002e0ea8002f6ea8006f2ea8001b
:102078001e2ea8004feea8003063a80030c3a800a9
:102088003163a80031e3a8002e03a800411980009d
:1020980000fc2f00008060004019880028e3a90098
:1020a80001a8a90021a8a80021e3a8000080fa003f
:1020b800000006000000fa002023a8000080fa00b3
:1020c800000006000000fa00e00021000080fa008d
:1020d800000006000000fa0016d0bf000080fa00d9
:1020e800000006000000fa001670ef000080fa00f9
:1020f800000006000000fa00f0032000303a8800d3
:10210800213a8000f0f32f0000806000203a880018
:10211800213a800000fe2f00008060000000a0002f
:10212800203a88001200200080072000a109200022
:10213800337420008049780081497800824978000a
:10214800103a8000000178000200a000600420001e
:1021580071052000237420008049780081497800a7
:102168008249780000000000113a80000000270032
:102178008080600000002100808f5000faff3a0044
:1021880000000000113a800000022000008060007a
:102198000000e000fbff32000080fa0000000600ab
:020000040000fa
:1021a800001000000c000000800000002210000059
:1021b80002000000800000001e1000000400000063
:1021c800820000000000a000400000002410000071
:1021d80026000000800000000c1000000c00000029
:1021e80080000000181000000600000080000000b9
:0421f80000000000e3
:020000040000fa
:1021fc000000fa000e2eef001e2eef002e2eef0028
:10220c003e2eef004e2eef005e2eef006e2eef00f6
:10221c00214ea90060cea90060eea90011cea90044
:10222c0011eea90020cea90020eea9000080fa0032
:04223c000000060098
:020000040000fa
:02000004000af0
:04afe000cfff00009f
:020000040000fa
:02000004000af0
:04afe400ffff00006b
:020000040000fa
:02000004000af0
:04afe8007fff0000e7
:020000040000fa
:02000004000af0
:04afec005fff000003
:020000040000fa
:02000004000af0
:04aff00038ff000026
:020000040000fa
:02000004000af0
:04aff400ffff00005b
:00000001FF
