:020000040000fa
:080000000002040000000000f2
:020000040000fa
:040008007003000081
:020000040000fa
:04000c00700300007d
:020000040000fa
:040010007003000079
:020000040000fa
:040014007003000075
:020000040000fa
:040018007003000071
:020000040000fa
:04001c00700300006d
:020000040000fa
:040020007003000069
:020000040000fa
:040024007003000065
:020000040000fa
:040028007003000061
:020000040000fa
:04002c00700300005d
:020000040000fa
:040030007003000059
:020000040000fa
:0400340002030000c3
:020000040000fa
:040038007003000051
:020000040000fa
:04003c00700300004d
:020000040000fa
:040040007003000049
:020000040000fa
:040044007003000045
:020000040000fa
:04004800fa020000b8
:020000040000fa
:04004c00700300003d
:020000040000fa
:040050007003000039
:020000040000fa
:040054007003000035
:020000040000fa
:040058007003000031
:020000040000fa
:04005c004c03000051
:020000040000fa
:040060007003000029
:020000040000fa
:040064007003000025
:020000040000fa
:040068007003000021
:020000040000fa
:04006c00700300001d
:020000040000fa
:040070007003000019
:020000040000fa
:040074007003000015
:020000040000fa
:040078007003000011
:020000040000fa
:04007c00700300000d
:020000040000fa
:040080007003000009
:020000040000fa
:040084007003000005
:020000040000fa
:040088007003000001
:020000040000fa
:04008c0070030000fd
:020000040000fa
:0400900070030000f9
:020000040000fa
:040094002203000043
:020000040000fa
:0400980070030000f1
:020000040000fa
:04009c0070030000ed
:020000040000fa
:0400a00070030000e9
:020000040000fa
:0400a40070030000e5
:020000040000fa
:0400a80070030000e1
:020000040000fa
:0400ac0070030000dd
:020000040000fa
:0400b00070030000d9
:020000040000fa
:0400b40070030000d5
:020000040000fa
:0400b80070030000d1
:020000040000fa
:0400bc0070030000cd
:020000040000fa
:0400c00070030000c9
:020000040000fa
:0400c40070030000c5
:020000040000fa
:0400c80070030000c1
:020000040000fa
:0400cc0070030000bd
:020000040000fa
:0400d00070030000b9
:020000040000fa
:0400d40070030000b5
:020000040000fa
:0400d80070030000b1
:020000040000fa
:0400dc0070030000ad
:020000040000fa
:0400e00070030000a9
:020000040000fa
:0400e40070030000a5
:020000040000fa
:0400e80070030000a1
:020000040000fa
:0400ec00700300009d
:020000040000fa
:0400f0007003000099
:020000040000fa
:0400f4007003000095
:020000040000fa
:0400f8007003000091
:020000040000fa
:0400fc00700300008d
:020000040000fa
:040100007003000088
:020000040000fa
:040104007003000084
:020000040000fa
:040108007003000080
:020000040000fa
:04010c00700300007c
:020000040000fa
:040110007003000078
:020000040000fa
:040114007003000074
:020000040000fa
:040118007003000070
:020000040000fa
:04011c00700300006c
:020000040000fa
:040120007003000068
:020000040000fa
:040124007003000064
:020000040000fa
:040128007003000060
:020000040000fa
:04012c00700300005c
:020000040000fa
:040130007003000058
:020000040000fa
:040134007003000054
:020000040000fa
:040138007003000050
:020000040000fa
:04013c00700300004c
:020000040000fa
:040140007003000048
:020000040000fa
:040144007003000044
:020000040000fa
:040148007003000040
:020000040000fa
:04014c00700300003c
:020000040000fa
:040150007003000038
:020000040000fa
:040154007003000034
:020000040000fa
:040158007003000030
:020000040000fa
:04015c00700300002c
:020000040000fa
:040160007003000028
:020000040000fa
:040164007003000024
:020000040000fa
:040168007003000020
:020000040000fa
:04016c00700300001c
:020000040000fa
:040170007003000018
:020000040000fa
:040174007003000014
:020000040000fa
:040178007003000010
:020000040000fa
:04017c00700300000c
:020000040000fa
:040180007003000008
:020000040000fa
:040184007003000004
:020000040000fa
:040188007003000000
:020000040000fa
:04018c0070030000fc
:020000040000fa
:0401900070030000f8
:020000040000fa
:0401940070030000f4
:020000040000fa
:0401980070030000f0
:020000040000fa
:04019c0070030000ec
:020000040000fa
:0401a00070030000e8
:020000040000fa
:0401a40070030000e4
:020000040000fa
:0401a80070030000e0
:020000040000fa
:0401ac0070030000dc
:020000040000fa
:0401b00070030000d8
:020000040000fa
:0401b40070030000d4
:020000040000fa
:0401b80070030000d0
:020000040000fa
:0401bc0070030000cc
:020000040000fa
:0401c00070030000c8
:020000040000fa
:0401c40070030000c4
:020000040000fa
:0401c80070030000c0
:020000040000fa
:0401cc0070030000bc
:020000040000fa
:0401d00070030000b8
:020000040000fa
:0401d40070030000b4
:020000040000fa
:0401d80070030000b0
:020000040000fa
:0401dc0070030000ac
:020000040000fa
:0401e00070030000a8
:020000040000fa
:0401e40070030000a4
:020000040000fa
:0401e80070030000a0
:020000040000fa
:0401ec00700300009c
:020000040000fa
:0401f0007003000098
:020000040000fa
:0401f4007003000094
:020000040000fa
:0401f8007003000090
:020000040000fa
:0401fc00700300008c
:020000040000fa
:040200007003000087
:020000040000fa
:040204007003000083
:020000040000fa
:04020800700300007f
:020000040000fa
:04020c00700300007b
:020000040000fa
:040210007003000077
:020000040000fa
:040214007003000073
:020000040000fa
:04021800700300006f
:020000040000fa
:04021c00700300006b
:020000040000fa
:040220007003000067
:020000040000fa
:040224007003000063
:020000040000fa
:04022800700300005f
:020000040000fa
:04022c00700300005b
:020000040000fa
:040230007003000057
:020000040000fa
:040234007003000053
:020000040000fa
:04023800700300004f
:020000040000fa
:04023c00700300004b
:020000040000fa
:040240007003000047
:020000040000fa
:040244007003000043
:020000040000fa
:04024800700300003f
:020000040000fa
:04024c00700300003b
:020000040000fa
:040250007003000037
:020000040000fa
:040254007003000033
:020000040000fa
:04025800700300002f
:020000040000fa
:04025c00700300002b
:020000040000fa
:040260007003000027
:020000040000fa
:040264007003000023
:020000040000fa
:04026800700300001f
:020000040000fa
:04026c00700300001b
:020000040000fa
:040270007003000017
:020000040000fa
:040274007003000013
:020000040000fa
:04027800700300000f
:020000040000fa
:04027c00700300000b
:020000040000fa
:040280007003000007
:020000040000fa
:100400006f0421000eff2c000e0188000000000088
:10041000000020000000e000020032000001200087
:100420002002880014000700af0007000000e00071
:1004300003003a008045210001002000020037003f
:100440000000200001002000810f70000100320038
:100450000f000700000020000000e0000200320052
:100460000000020000000000e21002000000000096
:100470000040da000000fe00200020000000e00044
:1004800002003200100020009001880000000600e9
:10049000a1028800800478000000eb001f003700f4
:1004a000e284440054a0b4009905ba00e2844400f8
:1004b00054a0b4009906ba00e284440054a0b400e9
:1004c0000006eb00476fde00fd07b200ae018800ba
:1004d000636ce10003003a000ad801000000eb0061
:1004e0000e003700606ce10008003a00004deb00a0
:1004f0000a05e800020039003420ec000af0a000f0
:100500008b05e900f9ff3e00040037006168e10057
:10051000010032000086eb000b00070019c7ba008b
:100520000e04e0001905ba0003003a000a00e000da
:10053000dbff3a0000000600fe07b200ae028800b2
:100540008a047800f5ff37000cd0a300e20f4d00bd
:100550001c00390089027800354dba000a05e80010
:10056000020039003420ec000af0a0008b05e900fd
:100570000f003200254dba000a05e80002003900dc
:100580003420ec000af0a0008b05e90008003200de
:100590000c00e0000600320015cdba000a05e800a4
:1005a000020039003420ec000af0a0008b05e900bd
:1005b0008984e80054a0b4000b00e000e2ff3a0098
:1005c000000006009902ba00055d78008b05e9007d
:1005d000f7ff3200c82ade00055d78008b05e900d0
:1005e000f3ff32000c00e000f1ff320019ddba0029
:1005f000eeff37000000fa000108a9000080fa00b1
:10060000004006003600f800809fbe00829fbe00ba
:10061000849fbe00869fbe000000fa000068a9000b
:1006200047060700670807000080fa004f03be0076
:100630004f02be004f01be004f00be003600f90061
:10064000004006003600f800809fbe00829fbe007a
:10065000849fbe00869fbe000000fa000368a900c8
:10066000008080001180800061004000e080480030
:100670000080880011808800cf0107000080fa0008
:100680004f03be004f02be004f01be004f00be0030
:100690003600f90000400600801f78000000fa00d4
:1006a00001a8a90000188000e081880010188000cf
:1006b000f0818800201880000082880030188000b7
:1006c00010828800401880002082880010c0b3008b
:1006d00015f0b7000080fa004f00780000400600d7
:1006e0000040da000000fe000000050003f0a20058
:1006f000889fbe008a9fbe008c1f780018010700eb
:100700001f0133006450e1004f0032006420e1001b
:100710005200320003826c0007003b000905d00044
:100720000306d000820f54000c065d000200390061
:1007300002003200890178000306780085825500a6
:1007400004003d000003fd008103fd008502ea0076
:100750008b854200840f720002003b006000100095
:10076000e08018006011b8000005eb007a28e10075
:100770000a00390006007800c75ddd00f707b20007
:10078000878075002d003700828171000a01780092
:10079000610560008180d1000080d3008502e900fe
:1007a000f9ff3b00060440008784480002003b003c
:1007b00060041400e0841c000988a30007003200d4
:1007c0008a81710082817100610164008904d10015
:1007d0000884d3008b05e800170037000978a300d0
:1007e00013003a000b00e000130034008b05e90011
:1007f0000804440089844c000a4474000978a3006a
:100800000d003a000b00e000070034008b05e90002
:100810000804440089844c0001003a000b002000c9
:100820000978a300f7ff32000001eb000200370057
:10083000828171000a0178008e0007000cf0a70089
:1008400001f0a000d70037006420e10002003a0068
:10085000838f6c00d70033000801be000200be0089
:10086000d0003700889fbe008a9fbe008c1f780092
:10087000bb000700c200330003866c006450e10037
:100880002e0032006420e100330032006150e100ac
:100890002f0032006120e1003100320085855500d3
:1008a000eb07b00009002000080420000500370015
:1008b0000804440089844c000a0031000603430008
:1008c00087834b000001530081815b00f8ff3300f8
:1008d0000203be000800a0000804440089844c0004
:1008e000f6ff3900c639dd008301730001003200d4
:1008f000130020008904d1000884d3000998a300c4
:10090000050032000800a7000300a0008904d10000
:100910000884d3008b05e8008904d1000884d30043
:100920000001eb000281d2005200070001f0a1009b
:100930000cf0a70001f0a0009a0037006420e1004d
:100940009c0032000801be000200be00f7ff370025
:100950006120e100970032006000b800f3ff37002b
:100960000000200001f82700f0ff370014002000ed
:10097000c7003700f4ff2f00c50037000001be009c
:10098000620007000470a70003f0a1006509b10030
:10099000160032000d0035006828e1000600350021
:1009a000f0ff2f00f1ff27000300e00013003b00e1
:1009b0000100280000000500000040008180480080
:1009c0008502e900fcff3a0008003700f88f42007a
:1009d00002003c008000eb00000005008100d10017
:1009e0000080d3008502e800fcff3a000300e0002d
:1009f00002003b0060001000e080180000000600cc
:100a00000001be00410007000470a70003f0a10030
:100a100003f8a30013003a006509b100100032008a
:100a2000090035006928e1000200350001002800b6
:100a30000000050000004000818048008502e900b8
:100a4000fcff3a0000000600f88f42000500350068
:100a50008100d1000080d3008502e800fcff3a004d
:100a6000000006008000eb00000005006011b800e7
:100a7000a200370081002000618055000b003d007e
:100a80000b00200061fe2f000100e1001d0034007a
:100a900082817100610164008904d1000884d3005f
:100aa0000000e800faff3a007100200061006400d5
:100ab000030070000200600009003200610444007d
:100ac000e0844c000988a500050032008b05e80091
:100ad0006808e10002003a008904d1000884d300cc
:100ae000f20f20000258e10005003d00c75ddd0067
:100af000f907b20089807500080078000000060040
:100b00000bf827008b00780000000500c70ade0004
:100b1000f107b200f50fb20008003200e1cf420049
:100b2000020032000170a00024000500810f700057
:100b3000010032000408050044000500810f700028
:100b400002003a00140005008502e90000004000a0
:100b500081c04800fcff3b000170a000240005009c
:100b60000004be00e9ff07000003be000405be004c
:100b70000200be00e5ff0700844f7500000006007c
:100b80000200be006450e100050036006420e10070
:100b9000020036000968a30001003a000800be0008
:100ba0000160a0004f0678004f05be004f04be0054
:100bb00000000600f0ff2f00f1ff2700f9ff3700cb
:100bc000889fbe008a9fbe008c1f7800e4ff07004c
:100bd000ebff330003866c006450e1002400320018
:100be0006420e100270032006150e1002200320061
:100bf0006120e100210032008b854200eb07b1004b
:100c00000134b800003ab8000804420089844a0060
:100c1000013ab8000030b8008880400009014a005d
:100c200004003300000040008180480002014900b8
:100c30008b05e900c909dd00830170000100320065
:100c400013002000c814de004814dd004709de0050
:100c50001200b200c808de000884700085ff07009b
:100c600001f0a1000cf0a70001f0a000cdff3700bb
:100c70006120e100cfff32000801be000200be008b
:100c8000f7ff37006150e100fcff3a00c9ff370071
:100c9000889fbe008a9fbe00841f7800b0ff0700b7
:100ca0004f00780011003300f0ff2f00838f6c009d
:100cb00006003b00040565000a00a7000800370095
:100cc00009f0a6001000200008003700820f540031
:100cd000838f5c00030039001000200001003e00fb
:100ce0000000200009f0a7000000ea004f05be0048
:100cf0004f04be000000e00000000600889fbe0018
:100d00008a9fbe000082700004027100048271009c
:100d1000260032000004be000200be006011b800d0
:100d20006b092000950220000182cf000a003900e3
:100d30000541b1000082cf00070039000541b10034
:100d40000982cf00040039000541b1000882cf00bc
:100d5000010039000541b100054252001200320085
:100d60000a003b0082817100610164008100d100b2
:100d70000080d3008984d3000884d3008b05e80069
:100d80000442e800f7ff3a00070037000804440077
:100d900089844c0000004800818048008b05e900f0
:100da0000442e900f9ff3a0032ff07004f05be0098
:080db0004f04be000000060024
:020000040000fa
:100db8000000fa0008d0bf000080fb00cf80de00f2
:100dc800f202200003002000820f5000838f580099
:100dd80092013e00000601002f003700380037005e
:100de800410037004b0037004c00370056003700f1
:100df8005700370061003700620037006c00370089
:100e08006d00370077003700840137008301370011
:100e18008201370081013700740037007d003700f8
:100e28007e00370087003700940037009d003700a8
:100e3800860037008f0037009c003700a600370077
:100e4800a7003700b1003700bf003700c9003700de
:100e5800b0003700ba0037000c0137001601370020
:100e68001701370025013700d1003700db003700b4
:100e7800c2003700cc003700f70037000101370007
:100e8800d8003700e60037002a013700380137005c
:100e980045013700530137000030ef000230ef0002
:100ea800120020006000b8000f0407000001eb00ea
:100eb8006000b8000c04070010c0b30008f0b700c9
:100ec8000280800013808000803e20000100200006
:100ed800800f5100818f59005301360020c0b300a4
:100ee80008f0b70059013700120020000000200068
:100ef800011a2400fc0307000001eb000000200099
:100f0800011a2400f803070030c0b30008f0b70046
:100f18004e0137004f0107004c0137001200200036
:100f280000002000811c2400ef0307000001eb00f3
:100f38000000200001172400eb03070050c0b30095
:100f480008f0b70041013700420107003f013700b0
:100f5800120020000000200001172400e20307000f
:100f68000001eb0000002000811c2400de030700c4
:100f780070c0b30008f0b70034013700350107002e
:100f88003201370012002000000020000117240061
:100f9800d50307000001eb000000200001172c001a
:100fa800d103070090c0b30008f0b700270137004d
:100fb800280107002501370012002000000020004a
:100fc80001172c00c80307000001eb0000002000f7
:100fd80001172400c4030700b0c0b30008f0b7002d
:100fe8001a0137001b010700180137001200200002
:100ff8006000b800bc0307000001eb0000002000ff
:1010080001172c00b803070010c1b30008f0b7009f
:101018000e0137000f0107000c01370012002000f5
:101028000000200001172c00af0307000001eb00af
:101038006000b800ac03070030c1b30008f0b70087
:1010480002013700030107000001370012002000e9
:101058000000200001172c00a30307000001eb008b
:101068006000b800a003070030c1b30008f0b70063
:10107800f6003700f7000700f400370012002000e0
:101088006000b800980307000001eb000000200092
:1010980001172c009403070050c1b30008f0b700f3
:1010a800ea003700eb000700e800370012002000d4
:1010b80000002000811c24008b0307000001eb00c6
:1010c80000002000011724008703070090c1b30027
:1010d80008f0b700dd003700de000700db0037004e
:1010e8001200200000002000011724007e030700e2
:1010f8000001eb0000002000811c24007a03070097
:10110800b0c1b30008f0b700d0003700d100070025
:10111800ce0037001200200000002000010a240041
:10112800710307000001eb0000002000811c24006f
:101138006d030700f0c1b30008f0b700c300370023
:10114800c4000700c1003700120020000000200082
:10115800811c2400640307000001eb00000020004c
:10116800010a240060030700d0c1b30008f0b700eb
:10117800b6003700b7000700b4003700120020009f
:1011880000002000811c2400570307000001eb0029
:1011980000002000011a24005303070070c2b300a6
:1011a80008f0b700a9003700aa000700a700370019
:1011b8001200200000002000011a24004a03070042
:1011c8000001eb0000002000811c240046030700fa
:1011d80050c2b30008f0b7009c0037009d0007001c
:1011e8009a00370012002000000020000117240098
:1011f8003d0307000001eb000000200001172c0050
:10120800390307000080800011808000208088005a
:1012180031808800b0c2b30008f0b7008b003700f7
:101228000280800013808000208080003180800050
:101238000001510081815900803e200001002000fa
:10124800800f5100818f59007900360020c0b3000b
:1012580008f0b7007d0037001200200000002000d1
:1012680001172400200307000001eb000000200004
:1012780001172c001c03070090c2b30008f0b70048
:10128800720037007300070070003700120020005a
:101298000000200001172c00130307000001eb00d9
:1012a80000002000011724000f03070010c2b3003c
:1012b80008f0b700650037006600070063003700d4
:1012c800120020000000200001122400060307007d
:1012d8000001eb000000200001122c0002030700af
:1012e8000080800011808000208088003180880084
:1012f80030c2b30008f0b700540037000280800005
:10130800138080002080800031808000000151001f
:1013180081815900a009210001002000800f51009f
:10132800818f59004400360020c0b30008f0b70090
:1013380046003700120020000000200001172c0092
:10134800e90207000001eb0000002000011724005b
:10135800e50207000080800011808000208088005e
:1013680031808800d0c2b30008f0b70037003700da
:1013780002808000138080002080800031808000ff
:101388000001510081815900401f20000100200008
:10139800800f5100818f59002900360020c0b3000a
:1013a80008f0b700290037001200200000002000d4
:1013b80001172400cc0207000001eb000000200008
:1013c80001172c00c80207000080800011808000ef
:1013d8002080880031808800f0c2b30008f0b70090
:1013e8001a0037000280800013808000208080006f
:1013f800318080000001510081815900401f200088
:1014080001002000800f5100818f59000e00360026
:1014180020c0b30008f0b7000c0037000870ef00d8
:101428000000000009003700000000000700370036
:10143800000000000500370000000000030037002e
:101448000000000001003700000000000080fa00e2
:10145800000006000000fa00881f780080818000e4
:101468009181800018c0b3000200200003122400fc
:101478003cfd07000000e000010035000044eb00df
:101488000804e00013003200448180005581800088
:10149800608180007181800018c0b3000001be0027
:1014a8000400be0031fd07000000e00001003c0020
:1014b8000044eb000804e00003003200c0c2b3009f
:1014c8000af0b700fc003700e0c2b3000af0b7002a
:1014d800f9003700608180007181800018c0b30076
:1014e80002002000031024001efd07000000e00099
:1014f800010035000044eb000804e000030032005e
:1015080000c2b3000af0b700eb003700408180004a
:101518005181800018c0b30002002000031024008d
:1015280010fd07000000e000010035000044eb005a
:101538000804e0000300320080c2b3000af0b700dc
:10154800dd003700c0818000d181800018c0b30061
:10155800020020000310240002fd07000000e00044
:10156800010035000044eb000804e00003003200ed
:1015780000c2b3000af0b700cf003700a081800096
:10158800b181800018c0b3000200200003102400bd
:10159800f4fc07000000e000010035000044eb0007
:1015a8000804e0000300320080c2b3000af0b7006c
:1015b800c1003700cc00070009f0b70009d0bf0010
:1015c8000080fb00cf80de00f20120000300200035
:1015d800820f5000838f5800b7003e0000060100bc
:1015e800b20037001e0037002300370028003700fc
:1015f8005c0037002c00370030003700350037001a
:101608002000370039003700ab003700aa00370048
:101618002d003700410037006800370039003700d7
:10162800120037007b003700330037004a003700cc
:10163800200037005e0037003b0037003d003700d0
:1016480016003700410037009b0037008400370040
:10165800230037003a0037002d0037006a003700b2
:1016680060c2b3000af0b7009300370040c2b3006d
:101678000af0b7009000370080c1b3000af0b70045
:101688008d003700a0c1b3000af0b7008a00370008
:1016980080c1b3000af0b70087003700a0c1b300cb
:1016a8000af0b7008400370040c0b3000af0b70062
:1016b8008100370060c0b3000af0b70040c0b30033
:1016c8000af0b7007c00370060c0b3000af0b7002a
:1016d8007900370040c0b3000af0b7007600370041
:1016e80060c0b3000af0b70073003700c0c1b30090
:1016f8000af0b70070003700e0c1b3000af0b70085
:101708006d003700c0c1b3000af0b7006a003700a7
:10171800e0c1b3000af0b70067003700c0c1b300ea
:101728000af0b70064003700e0c1b3000af0b70060
:1017380061003700a0c0b3000af0b7005e003700b0
:1017480080c0b3000af0b7005b003700a0c0b30048
:101758000af0b7005800370080c0b3000af0b7009d
:1017680055003700448180005581800060818000e9
:101778007181800018c0b3000001be000400be00e3
:101788007afc07000000e00001003c000044eb0088
:101798000804e00003003200c0c2b3000af0b7003a
:1017a80045003700e0c2b3000af0b7004200370036
:1017b800a0c2b3000af0b7003f003700a481800040
:1017c800b5818000c0818000d181800018c0b3003d
:1017d8000001be000400be0064fc07000000e00039
:1017e80001003c000044eb000804e0000300320064
:1017f800c0c2b3000af0b7002f003700e0c2b30040
:101808000af0b7002c003700a0c2b3000af0b700f6
:1018180029003700a4818000b5818000c081800044
:10182800d181800018c0b3000001be000400be00d2
:101838004efc07000000e00001003c000044eb0003
:101848000804e00003003200a0c1b3000af0b700aa
:101858001900370080c1b3000af0b700160037003e
:10186800a4818000b5818000c0818000d181800082
:1018780018c0b3000001be000400be003bfc070016
:101888000000e00001003c000044eb000804e00018
:1018980003003200a0c1b3000af0b7000600370009
:1018a80080c1b3000af0b7000300370020c0b300be
:1018b8000af0b700000000000ad0bf008080fb00db
:1018c80008d0bf000080fb000000e900808f5000b6
:1018d800020032000ad0bf0008f0b7004f047800b9
:1018e8000080fa00000006000000fa00881f780057
:1018f8000970ef00c0818000d181800018c0b3005a
:10190800020020000312240016fc07000000e0007b
:10191800010035000044eb000804e0000300320039
:1019280009d0bf000044a00009f0b7006081800022
:101938007181800018c0b300020020000317240042
:1019480008fc07000000e000010035000044eb003f
:101958000804e0000300320009d0bf000034a000f2
:1019680009f0b700808180009181800018c0b30021
:1019780002002000831c2400fafb07000000e0009e
:10198800010035000044eb000804e00003003200c9
:1019980009d0bf000024a00009f0b70040818000f2
:1019a8005181800018c0b3000200200003172400f2
:1019b800ecfb07000000e000010035000044eb00ec
:1019c8000804e0000300320009d0bf000014a000a2
:1019d80009f0b700a0818000b181800018c0b30071
:1019e8000200200003122400defb07000000e000d4
:1019f800010035000044eb000804e0000300320059
:101a080009d0bf000004a00009f0b70009d0bf004a
:101a18004f0478000080fa00000006000000fa0079
:101a280013e1a90011e1a9001061a8001021a90083
:101a380081088000f0fc2f0000806000800888008a
:101a48000a21ef000621ef002026200070088800f8
:101a580000a02500600888002142800080ff2f0038
:101a6800008060000000a000204288000108a90052
:101a78002108a80011e1a8000080fa000000060073
:101a88000000fa0005e1a9000421a9000068a900e6
:101a98002068a80005e1a80000002000a14f24004c
:101aa8000d0007000080fa00000006000000fa00a0
:101ab8001fe1a9001e21a9000368a9002368a80046
:101ac8001fe1a80000002000a147240076000700bd
:101ad8000080fa00000006000400fa00881f780061
:101ae800008fbe0021088000f0fc2f0000806000fd
:101af800200888001e0178009e01900000682900d7
:101b080081c1240055fb070018c0b30002f02f0064
:101b1800f377240095fb07000000e00001003c007b
:101b28000044eb000804e000540032002108800063
:101b3800f0fc2f00008060000040a0002008880012
:101b48001e0178009e0190000068290081c12400d0
:101b580042fb070002002000031024003ffb07009f
:101b680018c0b30002f02f00f37724007ffb0700b2
:101b78000000e00001003c000044eb000804e00025
:101b88003200320021088000f0fc2f000080600045
:101b98000050a000200888001e0178009e019000d7
:101ba8000068290081c124002cfb070002002000e6
:101bb8000328240029fb070018c0b30002f02f00f7
:101bc800f377240069fb07000000e00001003c00f7
:101bd8000044eb000804e0001000320021088000f7
:101be8000003200001007000200888001e01780012
:101bf8009e0190000068290081c1240017fb07009e
:101c0800020020000338240014fb070059fb0700da
:101c18000000780010088800200037001e017800b6
:101c28009e0190000068290081c124000bfb070079
:101c3800020020000328240008fb07004dfb0700d2
:101c48000000780010088800140037001e01780092
:101c58009e0190000068290081c12400fffa070056
:101c68000200200003102400fcfa070041fb0700d3
:101c78000000780010088800080037001e0178006e
:101c88009e0190000068290081c12400f3fa070032
:101c980038fb070000007800100888004f0478001f
:101ca8000080fa00000006000400fa00881f78008f
:101cb800008fbe00f1088000f0fc2f00008060005b
:101cc800f00888001e0178009e0190000068290035
:101cd80081c12400e1fa070018c0b30002f02f0008
:101ce800f377240021fb07000000e00001003c001e
:101cf8000044eb000804e00054003200f1088000c2
:101d0800f0fc2f00008060000040a000f008880070
:101d18001e0178009e0190000068290081c12400fe
:101d2800cefa07000200200003102400cbfa0700b7
:101d380018c0b30002f02f00f37724000bfb070054
:101d48000000e00001003c000044eb000804e00053
:101d580032003200f1088000f0fc2f0000806000a3
:101d68000050a000f00888001e0178009e01900035
:101d78000068290081c12400b8fa07000200200089
:101d880003282400b5fa070018c0b30002f02f009a
:101d9800f3772400f5fa07000000e00001003c009a
:101da8000044eb000804e00010003200f108800055
:101db8000003200001007000f00888001e01780070
:101dc8009e0190000068290081c12400a3fa070041
:101dd8000200200003382400a0fa0700e5fa0700f3
:101de80000007800d0088800200037001e01780025
:101df8009e0190000068290081c1240097fa07001d
:101e0800020020000328240094fa0700d9fa0700ea
:101e180000007800d0088800140037001e01780000
:101e28009e0190000068290081c124008bfa0700f8
:101e3800020020000310240088fa0700cdfa0700ea
:101e480000007800d0088800080037001e017800dc
:101e58009e0190000068290081c124007ffa0700d4
:101e6800c4fa070000007800d00888004f04780002
:101e78000080fa00000006000000fa0011608000ef
:101e880080ff2f00008060001060880000fa2000aa
:101e98002060880023aca800238ca8001161800072
:101ea800f03f2f000080600000a0a00010618800b3
:101eb8003000200020618800c3aca800c38ca800b3
:101ec80011668000f03f2f000080600000a0a00095
:101ed80010668800300020002066880001eca80009
:101ee8000080fa00000006000600fa00008fbe001d
:101ef800220798002e0090000000e00005003a003c
:101f08001e0178009e019000c2808800d38088005e
:101f1800070037002e009000e10f500004003a003f
:101f28001e0178009e0190000281880013818800bc
:101f38000080fa00000006000000fa00889fbe003a
:101f4800248180003581800000818000118180001b
:101f580018c0b3000001be000400be0081fa0700eb
:101f68000000e000010035000044eb000804e00038
:101f78000d003200088180001981800024818000d2
:101f88003581800060808000718080000001be0083
:101f98000400be00d4f907000801be007401070060
:101fa800208188003181880024818000358180006b
:101fb800008180001181800018c0b3000001be00bc
:101fc8000400be0069fa07000000e00001003c00c0
:101fd8000044eb000804e0000d0032000881800096
:101fe8001981800024818000358180006080800014
:101ff800718080000001be000400be00b9f907002e
:102008000801be0042010700208188003181880054
:10201800208180003181800018c0b3006011b800b1
:1020280052fa07000000e00001003c000044eb0009
:102038000804e00004003200c3eca90024cea80084
:10204800c3cca80003003700c3cca90024eea80025
:10205800c3eca800208180003181800016010700b0
:102068000200200003222400d3fa070062fa0700c6
:102078000000780030668800e4808000f5808000e9
:10208800c0808000d180800018c0b3000001be006d
:102098000400be0033fa07000000e000010035002c
:1020a8000044eb000804e0000d003200c880800006
:1020b800d9808000e4808000f58080006080800006
:1020c800718080000001be000400be0086f9070090
:1020d8000801be0026010700e0808800f180880022
:1020e800e4808000f5808000c0808000d18080007e
:1020f80018c0b3000001be000400be001bfa0700b0
:102108000000e00001003c000044eb000804e0008f
:102118000d003200c8808000d9808000e4808000f3
:10212800f580800060808000718080000001be0022
:102138000400be006bf907000801be00f4000700a8
:10214800e0808800f1808800e0808000f1808000d5
:1021580018c0b3006011b80004fa07000000e000de
:1021680001003c000044eb000804e00004003200d9
:1021780023cca90015eea80023eca8000300370023
:1021880023eca90015cea80023cca800e08080008d
:10219800f1808000c800070002002000032224000c
:1021a80085fa070014fa07000000780030618800fb
:1021b8004f04be000080fa00000006000600fa0086
:1021c800881f78008d010700cf0107002cfe07004b
:1021d80012fe070035fe070027ff07003d01070034
:1021e80064cea80064eea800254ea80001003700c0
:1021f8000000000079010700e14f5000fcff3a00a1
:102208007a01070071010700000f78009e0078002e
:1022180068804000100078008000eb0011fa070089
:10222800323323003305240063fa0700020020003c
:102238000358240089f90700d2cc2c00c3042400d9
:102248005dfa070010079800210798001e0190000a
:10225800ae01900000002000812024007ff90700d3
:1022680002002000030a24001ef90700608188008c
:10227800718188009e007800668040001000780018
:102288008000eb00f7f90700323323003305240000
:1022980049fa070002002000035824006ff90700dc
:1022a800d2cc2c00c304240043fa0700100798007e
:1022b800210798001e019000ae0190000000200048
:1022c8008120240065f9070002002000030a240089
:1022d80004f90700c0818800d18188009e00780039
:1022e80064804000100078008000eb00ddf90700f2
:1022f80032332300330524002ffa070002002000a0
:102308000358240055f90700d2cc2c00c30424003c
:1023180029fa070010079800210798001e0190006d
:10232800ae01900000002000812024004bf9070036
:1023380002002000030a2400eaf8070080818800d0
:10234800918188001e80e800100078008000eb0072
:10235800c4f90700323323003305240016fa0700b6
:1023680002002000035824003cf90700d2cc2c00be
:10237800c304240010fa07001007980021079800ea
:102388001e019000ae019000000020008120240072
:1023980032f9070002002000030a2400d1f80700e0
:1023a80040818800518188001e0078001000780064
:1023b8008000eb00abf9070032332300330524001b
:1023c800fdf90700020020000358240023f9070044
:1023d800d2cc2c00c3042400f7f90700100798009a
:1023e800210798001e019000ae0190000000200017
:1023f8008120240019f9070002002000030a2400a4
:10240800b8f80700a0818800b1818800a081800009
:10241800b181800018c0b30002002000031f24000f
:1024280050f907000000e000010035000044eb000f
:102438000804e00002003200254ea8000100370021
:10244800254ea900808180009181800018c0b300ca
:1024580002002000031f240042f907000000e000ea
:10246800010035000044eb000804e00002003200df
:1024780064eea8000100370064eea900c081800066
:10248800d181800018c0b30002002000031f24007f
:1024980034f907000000e000010035000044eb00bb
:1024a8000804e0000200320064cea80051ff3700a3
:1024b80064cea9004fff37000400fa00881f780097
:1024c800008fbe0018c0b3006011b8001e0078006d
:1024d8009e00900025f907000000e00001003d0083
:1024e8000044eb000804e000030032001e007800fe
:1024f8009e009000030037001e0078009e009000a8
:1025080001f0a2004f0478000080fa0000000600e5
:102518000800fa00881f7800008fbe002207980084
:102528003307980018c0b3002e019000be01900038
:102538001e0078009e0090000cf907000000e000e3
:1025480001003c000044eb000804e00003003200f6
:102558001e0078009e009000020037002e009000b8
:10256800be0090004f0478000080fa0000000600ca
:102578000800fa00881f7800008fbe002207980024
:102588003307980018c0b3002e019000be019000d8
:102598001e0078009e009000f2f807000000e0009e
:1025a800010035000044eb000804e000030032009d
:1025b8001e0078009e009000020037002e00900058
:1025c800be0090004f0478000080fa00000006006a
:1025d8000c00fa00881f7800008fbe0022079800c0
:1025e80033079800440798005507980018c0b300af
:1025f8004e019000de0190001e0078009e009000c1
:10260800daf807000000e00001003c000044eb009d
:102618000804e000040032004e019000de01900042
:10262800028fbe000e00370018c0b3002e019000c4
:10263800be0190001e0078009e009000c9f80700b7
:102648000000e000010035000044eb000804e00051
:10265800030032002e019000be019000028fbe00e0
:102668001e0078009e0090004f0478000080fa0059
:10267800000006000400fa00008fbe00b2fd200032
:10268800930424001e0078009e00900073f8070051
:10269800020020004333240047f907000080fa00b5
:1026a800000006000400fa00008fbe00b2fd200002
:1026b800930424001e0078009e0090003ef9070055
:1026c800020020004333240064f807000080fa0069
:1026d800000006000000fa0021e3a9002143a80039
:1026e80001198000f0cf2f000080600000198800d9
:1026f8002043a90001198000000e2000010070008d
:102708000019880011198000f0ff21000080600086
:10271800101988002343a80011198000f0cf2f005a
:1027280000806000101988001119800030f82f000f
:10273800008060000040a000101988002203a90052
:102748002223a90025e3a900f0c0b30024e3b700c1
:1027580021198000f00f2e008080600000f020001a
:1027680001007000201988003303a9002e0ea8006c
:102778002f6ea8006f2ea8001e2ea8004feea800ee
:102788003063a80030c3a8003163a80031e3a80073
:102798002e03a8004119800000fc2f000080600073
:1027a8004019880028e3a90001a8a90021a8a800c9
:1027b80021e3a8000080fa00000006000000fa00eb
:1027c8002023a8000080fa00000006000000fa009c
:1027d800c00321000080fa00000006000000fa0093
:1027e80015d0bf000080fa00000006000000fa00c3
:1027f8001570ef000080fa00000006000000fa00e3
:10280800f0032000303a8800213a8000f0f32f00ce
:1028180000806000203a8800213a800000fe2f00e6
:10282800008060000000a000203a8800120020000c
:1028380080072000a1092000337420008049780017
:102848008149780082497800103a800000017800b8
:102858000200a000600420007105200023742000fd
:10286800804978008149780082497800000000009a
:10287800113a8000000027008080600000002100dd
:10288800808f5000faff3a0000000000113a8000e3
:1028980000022000008060000000e000fbff320022
:0828a8000080fa0000000600a8
:020000040000fa
:1028b0001010000002000000800000001210000054
:1028c00002000000800000000c1000000400000066
:1028d00082000000000048004200000016100000c6
:1028e00026000000800000003c1000000a000000ec
:1028f00080000000141000000200000080000000b2
:10290000001000000c00000080000000000000002b
:020000040000fa
:102910000000fa000e2eef001e2eef002e2eef000c
:102920003e2eef004e2eef005e2eef006e2eef00db
:10293000214ea90060cea90060eea90011cea90029
:1029400011eea90020cea90020eea9000080fa0017
:04295000000006007d
:020000040000fa
:02000004000af0
:04afe000cfff00009f
:020000040000fa
:02000004000af0
:04afe400ffff00006b
:020000040000fa
:02000004000af0
:04afe8007fff0000e7
:020000040000fa
:02000004000af0
:04afec005fff000003
:020000040000fa
:02000004000af0
:04aff00038ff000026
:020000040000fa
:02000004000af0
:04aff400ffff00005b
:00000001FF
